{
  "contractName": "MainGame",
  "abi": [
    {
      "inputs": [],
      "stateMutability": "nonpayable",
      "type": "constructor"
    },
    {
      "anonymous": false,
      "inputs": [
        {
          "indexed": false,
          "internalType": "uint256",
          "name": "id",
          "type": "uint256"
        },
        {
          "indexed": false,
          "internalType": "address",
          "name": "contractid",
          "type": "address"
        },
        {
          "indexed": false,
          "internalType": "uint256",
          "name": "price",
          "type": "uint256"
        },
        {
          "indexed": false,
          "internalType": "string",
          "name": "name",
          "type": "string"
        },
        {
          "indexed": false,
          "internalType": "bool",
          "name": "typee",
          "type": "bool"
        },
        {
          "indexed": false,
          "internalType": "uint256",
          "name": "nftid",
          "type": "uint256"
        }
      ],
      "name": "addERC1155",
      "type": "event"
    },
    {
      "anonymous": false,
      "inputs": [
        {
          "indexed": false,
          "internalType": "uint256",
          "name": "id",
          "type": "uint256"
        },
        {
          "indexed": false,
          "internalType": "address",
          "name": "contractid",
          "type": "address"
        },
        {
          "indexed": false,
          "internalType": "uint256",
          "name": "price",
          "type": "uint256"
        },
        {
          "indexed": false,
          "internalType": "string",
          "name": "name",
          "type": "string"
        },
        {
          "indexed": false,
          "internalType": "bool",
          "name": "typee",
          "type": "bool"
        }
      ],
      "name": "addERC721",
      "type": "event"
    },
    {
      "anonymous": false,
      "inputs": [
        {
          "indexed": false,
          "internalType": "uint256",
          "name": "townhallid",
          "type": "uint256"
        },
        {
          "indexed": false,
          "internalType": "address",
          "name": "own",
          "type": "address"
        }
      ],
      "name": "startGamev",
      "type": "event"
    },
    {
      "inputs": [
        {
          "internalType": "uint256",
          "name": "",
          "type": "uint256"
        }
      ],
      "name": "assets",
      "outputs": [
        {
          "internalType": "string",
          "name": "Name",
          "type": "string"
        },
        {
          "internalType": "uint256",
          "name": "id",
          "type": "uint256"
        },
        {
          "internalType": "address",
          "name": "contractadd",
          "type": "address"
        },
        {
          "internalType": "uint256",
          "name": "price",
          "type": "uint256"
        },
        {
          "internalType": "bool",
          "name": "tokentype",
          "type": "bool"
        }
      ],
      "stateMutability": "view",
      "type": "function",
      "constant": true
    },
    {
      "inputs": [],
      "name": "maincurrency",
      "outputs": [
        {
          "internalType": "address",
          "name": "",
          "type": "address"
        }
      ],
      "stateMutability": "view",
      "type": "function",
      "constant": true
    },
    {
      "inputs": [],
      "name": "owner",
      "outputs": [
        {
          "internalType": "address",
          "name": "",
          "type": "address"
        }
      ],
      "stateMutability": "view",
      "type": "function",
      "constant": true
    },
    {
      "inputs": [
        {
          "internalType": "address",
          "name": "",
          "type": "address"
        }
      ],
      "name": "townhalluser",
      "outputs": [
        {
          "internalType": "bool",
          "name": "gamestarted",
          "type": "bool"
        },
        {
          "internalType": "uint256",
          "name": "townhallid",
          "type": "uint256"
        }
      ],
      "stateMutability": "view",
      "type": "function",
      "constant": true
    },
    {
      "inputs": [
        {
          "internalType": "uint256[]",
          "name": "amount",
          "type": "uint256[]"
        },
        {
          "internalType": "uint256",
          "name": "minerid",
          "type": "uint256"
        }
      ],
      "name": "lockBase",
      "outputs": [],
      "stateMutability": "nonpayable",
      "type": "function"
    },
    {
      "inputs": [
        {
          "internalType": "string",
          "name": "name",
          "type": "string"
        },
        {
          "internalType": "address",
          "name": "contractadd",
          "type": "address"
        },
        {
          "internalType": "uint256",
          "name": "price",
          "type": "uint256"
        }
      ],
      "name": "addAsset721",
      "outputs": [],
      "stateMutability": "nonpayable",
      "type": "function"
    },
    {
      "inputs": [
        {
          "internalType": "string",
          "name": "name",
          "type": "string"
        },
        {
          "internalType": "address",
          "name": "contractadd",
          "type": "address"
        },
        {
          "internalType": "uint256",
          "name": "price",
          "type": "uint256"
        }
      ],
      "name": "addAsset1155",
      "outputs": [],
      "stateMutability": "nonpayable",
      "type": "function"
    },
    {
      "inputs": [
        {
          "internalType": "uint256",
          "name": "id",
          "type": "uint256"
        }
      ],
      "name": "assetdetails",
      "outputs": [
        {
          "components": [
            {
              "internalType": "string",
              "name": "Name",
              "type": "string"
            },
            {
              "internalType": "uint256",
              "name": "id",
              "type": "uint256"
            },
            {
              "internalType": "address",
              "name": "contractadd",
              "type": "address"
            },
            {
              "internalType": "uint256",
              "name": "price",
              "type": "uint256"
            },
            {
              "internalType": "bool",
              "name": "tokentype",
              "type": "bool"
            }
          ],
          "internalType": "struct MainGame.Asset",
          "name": "",
          "type": "tuple"
        }
      ],
      "stateMutability": "view",
      "type": "function",
      "constant": true
    },
    {
      "inputs": [],
      "name": "startgame",
      "outputs": [],
      "stateMutability": "nonpayable",
      "type": "function"
    },
    {
      "inputs": [
        {
          "internalType": "uint256",
          "name": "building",
          "type": "uint256"
        }
      ],
      "name": "endwar",
      "outputs": [],
      "stateMutability": "nonpayable",
      "type": "function"
    },
    {
      "inputs": [
        {
          "internalType": "uint256",
          "name": "minerid",
          "type": "uint256"
        },
        {
          "internalType": "uint256",
          "name": "assetid",
          "type": "uint256"
        },
        {
          "internalType": "uint256",
          "name": "amountid",
          "type": "uint256"
        }
      ],
      "name": "lockERC721",
      "outputs": [],
      "stateMutability": "nonpayable",
      "type": "function"
    },
    {
      "inputs": [
        {
          "internalType": "uint256",
          "name": "assetid",
          "type": "uint256"
        },
        {
          "internalType": "uint256",
          "name": "amount",
          "type": "uint256"
        }
      ],
      "name": "lockERC1155",
      "outputs": [],
      "stateMutability": "nonpayable",
      "type": "function"
    },
    {
      "inputs": [
        {
          "internalType": "uint256",
          "name": "minerid",
          "type": "uint256"
        },
        {
          "internalType": "uint256",
          "name": "assetid",
          "type": "uint256"
        }
      ],
      "name": "unlockERC721",
      "outputs": [],
      "stateMutability": "nonpayable",
      "type": "function"
    },
    {
      "inputs": [
        {
          "internalType": "uint256",
          "name": "assetid",
          "type": "uint256"
        }
      ],
      "name": "mintERC721",
      "outputs": [],
      "stateMutability": "payable",
      "type": "function",
      "payable": true
    },
    {
      "inputs": [
        {
          "internalType": "uint256",
          "name": "minerid",
          "type": "uint256"
        }
      ],
      "name": "collect",
      "outputs": [],
      "stateMutability": "nonpayable",
      "type": "function"
    },
    {
      "inputs": [
        {
          "internalType": "uint256",
          "name": "assetid",
          "type": "uint256"
        }
      ],
      "name": "mintERC1155",
      "outputs": [],
      "stateMutability": "nonpayable",
      "type": "function"
    },
    {
      "inputs": [
        {
          "internalType": "address",
          "name": "scadd",
          "type": "address"
        }
      ],
      "name": "setmaincurrency",
      "outputs": [],
      "stateMutability": "nonpayable",
      "type": "function"
    },
    {
      "inputs": [],
      "name": "withdraw",
      "outputs": [],
      "stateMutability": "payable",
      "type": "function",
      "payable": true
    }
  ],
  "bytecode": "0x60806040526000600355600060045534801561001a57600080fd5b50326000806101000a81548173ffffffffffffffffffffffffffffffffffffffff021916908373ffffffffffffffffffffffffffffffffffffffff1602179055506123af8061006a6000396000f3fe6080604052600436106101085760003560e01c80636c8f29de11610095578063cf35bdd011610064578063cf35bdd0146102e8578063d9f8deb814610329578063df71835b14610367578063ea4d6c4614610390578063ecc9a947146103cd57610108565b80636c8f29de146102525780638da5cb5b1461027d578063aaaea047146102a8578063ce3f865f146102bf57610108565b80633ccfd60b116100dc5780633ccfd60b146101a457806344484e3b146101ae57806345fd0272146101d757806346294c70146102005780635e5cbc6b1461022957610108565b806228cdba1461010d57806306ba9545146101295780630addf41d146101525780630ed2b3971461017b575b600080fd5b610127600480360381019061012291906117dc565b6103f6565b005b34801561013557600080fd5b50610150600480360381019061014b91906117dc565b6104c3565b005b34801561015e57600080fd5b50610179600480360381019061017491906119ad565b610561565b005b34801561018757600080fd5b506101a2600480360381019061019d9190611a1c565b61070b565b005b6101ac6107a7565b005b3480156101ba57600080fd5b506101d560048036038101906101d091906119ad565b61086f565b005b3480156101e357600080fd5b506101fe60048036038101906101f99190611a49565b610a9d565b005b34801561020c57600080fd5b5061022760048036038101906102229190611a49565b610b60565b005b34801561023557600080fd5b50610250600480360381019061024b9190611b51565b610c52565b005b34801561025e57600080fd5b50610267610cf5565b6040516102749190611bbc565b60405180910390f35b34801561028957600080fd5b50610292610d1b565b60405161029f9190611bbc565b60405180910390f35b3480156102b457600080fd5b506102bd610d3f565b005b3480156102cb57600080fd5b506102e660048036038101906102e191906117dc565b610fed565b005b3480156102f457600080fd5b5061030f600480360381019061030a91906117dc565b611136565b604051610320959493929190611c89565b60405180910390f35b34801561033557600080fd5b50610350600480360381019061034b9190611a1c565b611221565b60405161035e929190611ce3565b60405180910390f35b34801561037357600080fd5b5061038e60048036038101906103899190611d0c565b611252565b005b34801561039c57600080fd5b506103b760048036038101906103b291906117dc565b611344565b6040516103c49190611e4c565b60405180910390f35b3480156103d957600080fd5b506103f460048036038101906103ef91906117dc565b611488565b005b600560008281526020019081526020016000206003015434101561041957600080fd5b60006005600083815260200190815260200160002060020160009054906101000a900473ffffffffffffffffffffffffffffffffffffffff1690508073ffffffffffffffffffffffffffffffffffffffff16636a627842326040518263ffffffff1660e01b815260040161048d9190611bbc565b600060405180830381600087803b1580156104a757600080fd5b505af11580156104bb573d6000803e3d6000fd5b505050505050565b600160009054906101000a900473ffffffffffffffffffffffffffffffffffffffff1673ffffffffffffffffffffffffffffffffffffffff1663eb4a022360148361050e9190611e9d565b326040518363ffffffff1660e01b815260040161052c929190611ef7565b600060405180830381600087803b15801561054657600080fd5b505af115801561055a573d6000803e3d6000fd5b5050505050565b60008054906101000a900473ffffffffffffffffffffffffffffffffffffffff1673ffffffffffffffffffffffffffffffffffffffff163373ffffffffffffffffffffffffffffffffffffffff16146105b957600080fd5b60006040518060a00160405280858152602001600081526020018473ffffffffffffffffffffffffffffffffffffffff1681526020018381526020016000151581525090508060056000600354815260200190815260200160002060008201518160000190805190602001906106309291906116a8565b506020820151816001015560408201518160020160006101000a81548173ffffffffffffffffffffffffffffffffffffffff021916908373ffffffffffffffffffffffffffffffffffffffff1602179055506060820151816003015560808201518160040160006101000a81548160ff0219169083151502179055509050507f1861ba944951dc48f847f76c96cc9c52af44b8575199793f659db17a5f3dc96e600360008154809291906106e390611f20565b9190505584848760006040516106fd959493929190611f69565b60405180910390a150505050565b60008054906101000a900473ffffffffffffffffffffffffffffffffffffffff1673ffffffffffffffffffffffffffffffffffffffff163373ffffffffffffffffffffffffffffffffffffffff161461076357600080fd5b80600160006101000a81548173ffffffffffffffffffffffffffffffffffffffff021916908373ffffffffffffffffffffffffffffffffffffffff16021790555050565b60008054906101000a900473ffffffffffffffffffffffffffffffffffffffff1673ffffffffffffffffffffffffffffffffffffffff163373ffffffffffffffffffffffffffffffffffffffff16146107ff57600080fd5b60008060009054906101000a900473ffffffffffffffffffffffffffffffffffffffff1690508073ffffffffffffffffffffffffffffffffffffffff166108fc479081150290604051600060405180830381858888f1935050505015801561086b573d6000803e3d6000fd5b5050565b60008054906101000a900473ffffffffffffffffffffffffffffffffffffffff1673ffffffffffffffffffffffffffffffffffffffff163373ffffffffffffffffffffffffffffffffffffffff16146108c757600080fd5b60008273ffffffffffffffffffffffffffffffffffffffff16631bc7ffe985846040518363ffffffff1660e01b8152600401610904929190611fc3565b6020604051808303816000875af1158015610923573d6000803e3d6000fd5b505050506040513d601f19601f820116820180604052508101906109479190612008565b905060006040518060a001604052808681526020018381526020018573ffffffffffffffffffffffffffffffffffffffff1681526020018481526020016001151581525090508060056000600354815260200190815260200160002060008201518160000190805190602001906109bf9291906116a8565b506020820151816001015560408201518160020160006101000a81548173ffffffffffffffffffffffffffffffffffffffff021916908373ffffffffffffffffffffffffffffffffffffffff1602179055506060820151816003015560808201518160040160006101000a81548160ff0219169083151502179055509050507ff307a583ac0d9d00d09164e18f56f4b662bd1e124097217e4b6089227fd6970d60036000815480929190610a7290611f20565b91905055858588600187604051610a8e96959493929190612035565b60405180910390a15050505050565b60006005600084815260200190815260200160002060020160009054906101000a900473ffffffffffffffffffffffffffffffffffffffff1690508073ffffffffffffffffffffffffffffffffffffffff1663f7cacf596005600086815260200190815260200160002060010154846040518363ffffffff1660e01b8152600401610b2992919061209d565b600060405180830381600087803b158015610b4357600080fd5b505af1158015610b57573d6000803e3d6000fd5b50505050505050565b60006005600083815260200190815260200160002060020160009054906101000a900473ffffffffffffffffffffffffffffffffffffffff1690508073ffffffffffffffffffffffffffffffffffffffff1663c774f61984600260003273ffffffffffffffffffffffffffffffffffffffff1673ffffffffffffffffffffffffffffffffffffffff1681526020019081526020016000206001015460006040518463ffffffff1660e01b8152600401610c1b9392919061210b565b600060405180830381600087803b158015610c3557600080fd5b505af1158015610c49573d6000803e3d6000fd5b50505050505050565b60005b8251811015610cf057600015156005600083815260200190815260200160002060040160009054906101000a900460ff1615151415610cb857610cb38282858481518110610ca657610ca5612142565b5b6020026020010151611252565b610cdd565b610cdc81848381518110610ccf57610cce612142565b5b6020026020010151610a9d565b5b8080610ce890611f20565b915050610c55565b505050565b600160009054906101000a900473ffffffffffffffffffffffffffffffffffffffff1681565b60008054906101000a900473ffffffffffffffffffffffffffffffffffffffff1681565b60001515600260003273ffffffffffffffffffffffffffffffffffffffff1673ffffffffffffffffffffffffffffffffffffffff16815260200190815260200160002060000160009054906101000a900460ff16151514610d9f57600080fd5b60008054906101000a900473ffffffffffffffffffffffffffffffffffffffff1673ffffffffffffffffffffffffffffffffffffffff163273ffffffffffffffffffffffffffffffffffffffff161415610e8557600160009054906101000a900473ffffffffffffffffffffffffffffffffffffffff1673ffffffffffffffffffffffffffffffffffffffff1663eb4a0223611388326040518363ffffffff1660e01b8152600401610e529291906121ac565b600060405180830381600087803b158015610e6c57600080fd5b505af1158015610e80573d6000803e3d6000fd5b505050505b6040518060400160405280600115158152602001600454815250600260003273ffffffffffffffffffffffffffffffffffffffff1673ffffffffffffffffffffffffffffffffffffffff16815260200190815260200160002060008201518160000160006101000a81548160ff02191690831515021790555060208201518160010155905050600160009054906101000a900473ffffffffffffffffffffffffffffffffffffffff1673ffffffffffffffffffffffffffffffffffffffff1663eb4a02236103e8326040518363ffffffff1660e01b8152600401610f6a929190612210565b600060405180830381600087803b158015610f8457600080fd5b505af1158015610f98573d6000803e3d6000fd5b505050507f6c1687743138b86f06b6379a2fde1c50e1689ecf2851961848e798aaac7813fa60046000815480929190610fd090611f20565b9190505532604051610fe3929190611ef7565b60405180910390a1565b60006005600080815260200190815260200160002060020160009054906101000a900473ffffffffffffffffffffffffffffffffffffffff1673ffffffffffffffffffffffffffffffffffffffff1663ce3f865f836040518263ffffffff1660e01b815260040161105e9190612239565b6020604051808303816000875af115801561107d573d6000803e3d6000fd5b505050506040513d601f19601f820116820180604052508101906110a19190612008565b9050600160009054906101000a900473ffffffffffffffffffffffffffffffffffffffff1673ffffffffffffffffffffffffffffffffffffffff1663eb4a022382326040518363ffffffff1660e01b8152600401611100929190611ef7565b600060405180830381600087803b15801561111a57600080fd5b505af115801561112e573d6000803e3d6000fd5b505050505050565b600560205280600052604060002060009150905080600001805461115990612283565b80601f016020809104026020016040519081016040528092919081815260200182805461118590612283565b80156111d25780601f106111a7576101008083540402835291602001916111d2565b820191906000526020600020905b8154815290600101906020018083116111b557829003601f168201915b5050505050908060010154908060020160009054906101000a900473ffffffffffffffffffffffffffffffffffffffff16908060030154908060040160009054906101000a900460ff16905085565b60026020528060005260406000206000915090508060000160009054906101000a900460ff16908060010154905082565b60006005600084815260200190815260200160002060020160009054906101000a900473ffffffffffffffffffffffffffffffffffffffff1690508073ffffffffffffffffffffffffffffffffffffffff1663c774f61985600260003273ffffffffffffffffffffffffffffffffffffffff1673ffffffffffffffffffffffffffffffffffffffff16815260200190815260200160002060010154856040518463ffffffff1660e01b815260040161130c939291906122b5565b600060405180830381600087803b15801561132657600080fd5b505af115801561133a573d6000803e3d6000fd5b5050505050505050565b61134c61172e565b600560008381526020019081526020016000206040518060a001604052908160008201805461137a90612283565b80601f01602080910402602001604051908101604052809291908181526020018280546113a690612283565b80156113f35780601f106113c8576101008083540402835291602001916113f3565b820191906000526020600020905b8154815290600101906020018083116113d657829003601f168201915b50505050508152602001600182015481526020016002820160009054906101000a900473ffffffffffffffffffffffffffffffffffffffff1673ffffffffffffffffffffffffffffffffffffffff1673ffffffffffffffffffffffffffffffffffffffff168152602001600382015481526020016004820160009054906101000a900460ff1615151515815250509050919050565b6005600082815260200190815260200160002060030154600160009054906101000a900473ffffffffffffffffffffffffffffffffffffffff1673ffffffffffffffffffffffffffffffffffffffff166370a08231326040518263ffffffff1660e01b81526004016114fa9190611bbc565b602060405180830381865afa158015611517573d6000803e3d6000fd5b505050506040513d601f19601f8201168201806040525081019061153b9190612008565b101561154657600080fd5b600160009054906101000a900473ffffffffffffffffffffffffffffffffffffffff1673ffffffffffffffffffffffffffffffffffffffff166368c6b11a3260056000858152602001908152602001600020600301546040518363ffffffff1660e01b81526004016115b99291906122ec565b600060405180830381600087803b1580156115d357600080fd5b505af11580156115e7573d6000803e3d6000fd5b505050506005600082815260200190815260200160002060020160009054906101000a900473ffffffffffffffffffffffffffffffffffffffff1673ffffffffffffffffffffffffffffffffffffffff16631b2ef1ca600560008481526020019081526020016000206001015460016040518363ffffffff1660e01b8152600401611673929190612350565b600060405180830381600087803b15801561168d57600080fd5b505af11580156116a1573d6000803e3d6000fd5b5050505050565b8280546116b490612283565b90600052602060002090601f0160209004810192826116d6576000855561171d565b82601f106116ef57805160ff191683800117855561171d565b8280016001018555821561171d579182015b8281111561171c578251825591602001919060010190611701565b5b50905061172a9190611775565b5090565b6040518060a001604052806060815260200160008152602001600073ffffffffffffffffffffffffffffffffffffffff168152602001600081526020016000151581525090565b5b8082111561178e576000816000905550600101611776565b5090565b6000604051905090565b600080fd5b600080fd5b6000819050919050565b6117b9816117a6565b81146117c457600080fd5b50565b6000813590506117d6816117b0565b92915050565b6000602082840312156117f2576117f161179c565b5b6000611800848285016117c7565b91505092915050565b600080fd5b600080fd5b6000601f19601f8301169050919050565b7f4e487b7100000000000000000000000000000000000000000000000000000000600052604160045260246000fd5b61185c82611813565b810181811067ffffffffffffffff8211171561187b5761187a611824565b5b80604052505050565b600061188e611792565b905061189a8282611853565b919050565b600067ffffffffffffffff8211156118ba576118b9611824565b5b6118c382611813565b9050602081019050919050565b82818337600083830152505050565b60006118f26118ed8461189f565b611884565b90508281526020810184848401111561190e5761190d61180e565b5b6119198482856118d0565b509392505050565b600082601f83011261193657611935611809565b5b81356119468482602086016118df565b91505092915050565b600073ffffffffffffffffffffffffffffffffffffffff82169050919050565b600061197a8261194f565b9050919050565b61198a8161196f565b811461199557600080fd5b50565b6000813590506119a781611981565b92915050565b6000806000606084860312156119c6576119c561179c565b5b600084013567ffffffffffffffff8111156119e4576119e36117a1565b5b6119f086828701611921565b9350506020611a0186828701611998565b9250506040611a12868287016117c7565b9150509250925092565b600060208284031215611a3257611a3161179c565b5b6000611a4084828501611998565b91505092915050565b60008060408385031215611a6057611a5f61179c565b5b6000611a6e858286016117c7565b9250506020611a7f858286016117c7565b9150509250929050565b600067ffffffffffffffff821115611aa457611aa3611824565b5b602082029050602081019050919050565b600080fd5b6000611acd611ac884611a89565b611884565b90508083825260208201905060208402830185811115611af057611aef611ab5565b5b835b81811015611b195780611b0588826117c7565b845260208401935050602081019050611af2565b5050509392505050565b600082601f830112611b3857611b37611809565b5b8135611b48848260208601611aba565b91505092915050565b60008060408385031215611b6857611b6761179c565b5b600083013567ffffffffffffffff811115611b8657611b856117a1565b5b611b9285828601611b23565b9250506020611ba3858286016117c7565b9150509250929050565b611bb68161196f565b82525050565b6000602082019050611bd16000830184611bad565b92915050565b600081519050919050565b600082825260208201905092915050565b60005b83811015611c11578082015181840152602081019050611bf6565b83811115611c20576000848401525b50505050565b6000611c3182611bd7565b611c3b8185611be2565b9350611c4b818560208601611bf3565b611c5481611813565b840191505092915050565b611c68816117a6565b82525050565b60008115159050919050565b611c8381611c6e565b82525050565b600060a0820190508181036000830152611ca38188611c26565b9050611cb26020830187611c5f565b611cbf6040830186611bad565b611ccc6060830185611c5f565b611cd96080830184611c7a565b9695505050505050565b6000604082019050611cf86000830185611c7a565b611d056020830184611c5f565b9392505050565b600080600060608486031215611d2557611d2461179c565b5b6000611d33868287016117c7565b9350506020611d44868287016117c7565b9250506040611d55868287016117c7565b9150509250925092565b600082825260208201905092915050565b6000611d7b82611bd7565b611d858185611d5f565b9350611d95818560208601611bf3565b611d9e81611813565b840191505092915050565b611db2816117a6565b82525050565b611dc18161196f565b82525050565b611dd081611c6e565b82525050565b600060a0830160008301518482036000860152611df38282611d70565b9150506020830151611e086020860182611da9565b506040830151611e1b6040860182611db8565b506060830151611e2e6060860182611da9565b506080830151611e416080860182611dc7565b508091505092915050565b60006020820190508181036000830152611e668184611dd6565b905092915050565b7f4e487b7100000000000000000000000000000000000000000000000000000000600052601160045260246000fd5b6000611ea8826117a6565b9150611eb3836117a6565b9250817fffffffffffffffffffffffffffffffffffffffffffffffffffffffffffffffff0483118215151615611eec57611eeb611e6e565b5b828202905092915050565b6000604082019050611f0c6000830185611c5f565b611f196020830184611bad565b9392505050565b6000611f2b826117a6565b91507fffffffffffffffffffffffffffffffffffffffffffffffffffffffffffffffff821415611f5e57611f5d611e6e565b5b600182019050919050565b600060a082019050611f7e6000830188611c5f565b611f8b6020830187611bad565b611f986040830186611c5f565b8181036060830152611faa8185611c26565b9050611fb96080830184611c7a565b9695505050505050565b60006040820190508181036000830152611fdd8185611c26565b9050611fec6020830184611c5f565b9392505050565b600081519050612002816117b0565b92915050565b60006020828403121561201e5761201d61179c565b5b600061202c84828501611ff3565b91505092915050565b600060c08201905061204a6000830189611c5f565b6120576020830188611bad565b6120646040830187611c5f565b81810360608301526120768186611c26565b90506120856080830185611c7a565b61209260a0830184611c5f565b979650505050505050565b60006040820190506120b26000830185611c5f565b6120bf6020830184611c5f565b9392505050565b6000819050919050565b6000819050919050565b60006120f56120f06120eb846120c6565b6120d0565b6117a6565b9050919050565b612105816120da565b82525050565b60006060820190506121206000830186611c5f565b61212d6020830185611c5f565b61213a60408301846120fc565b949350505050565b7f4e487b7100000000000000000000000000000000000000000000000000000000600052603260045260246000fd5b6000819050919050565b600061219661219161218c84612171565b6120d0565b6117a6565b9050919050565b6121a68161217b565b82525050565b60006040820190506121c1600083018561219d565b6121ce6020830184611bad565b9392505050565b6000819050919050565b60006121fa6121f56121f0846121d5565b6120d0565b6117a6565b9050919050565b61220a816121df565b82525050565b60006040820190506122256000830185612201565b6122326020830184611bad565b9392505050565b600060208201905061224e6000830184611c5f565b92915050565b7f4e487b7100000000000000000000000000000000000000000000000000000000600052602260045260246000fd5b6000600282049050600182168061229b57607f821691505b602082108114156122af576122ae612254565b5b50919050565b60006060820190506122ca6000830186611c5f565b6122d76020830185611c5f565b6122e46040830184611c5f565b949350505050565b60006040820190506123016000830185611bad565b61230e6020830184611c5f565b9392505050565b6000819050919050565b600061233a61233561233084612315565b6120d0565b6117a6565b9050919050565b61234a8161231f565b82525050565b60006040820190506123656000830185611c5f565b6123726020830184612341565b939250505056fea2646970667358221220dffd9a1225896eb45530e1b75421dda690505ecad534c4351604ed4dbef7a7bd64736f6c634300080c0033",
  "immutableReferences": {},
  "source": "pragma solidity ^0.8.0;\n\npragma experimental ABIEncoderV2;\n\ninterface IERC1155  {\n\n function addAsset(string memory assetname,uint256 price)  external returns (uint256);\n function mint(uint256 id,uint256 amount) external;\n function updatelock(uint256 assetid,uint256 amount) external;\n\n}   \n\n\ninterface IERC20 {\n  \n    function balanceOf(address account) external view returns (uint256);\n    function subtract(address owner,uint256 amount)  external;\n     function mintnew(uint256 amount,address to)  external;\n    }\n\n\ninterface ERC721 /* is ERC165 */ {\n    function mint(address starter) external;\n    function lock(uint256 minerid,uint256 townhallid)  external;\n    function unlock(uint256 minerid,uint256 townhallid)  external;\n    function updatelock(uint256 minerid,uint256 townhallid,uint256 amount)  external;\n    function collect(uint256 id) external returns(uint256);\n\n}\n\n\ncontract MainGame {\n\n    address public owner;\n    address public maincurrency;\n    struct Asset{\n        string Name;\n        uint256 id;\n        address contractadd;\n        uint256 price;\n        bool tokentype ;\n    }\n    struct User{\n        bool gamestarted;\n        uint256 townhallid;\n    }\n    mapping(address => User) public townhalluser;\n    uint256 currentcount = 0;\n    uint256 townhallcount = 0;\n    mapping(uint256 => Asset) public assets;\n  \n        modifier onlyOwner(){\n            require(msg.sender == owner);\n            _;\n    }\n    event addERC721(uint256 id,address contractid,uint256 price,string name,bool typee);\n    event addERC1155(uint256 id,address contractid,uint256 price,string name,bool typee,uint256 nftid);\n    event startGamev(uint256 townhallid,address own);\n\n    constructor(){\n        owner = tx.origin;\n    }\n\n    function lockBase(uint256[] memory amount,uint256 minerid) public {\n        for(uint i=0;i<amount.length;i++){\n            if(assets[i].tokentype == false){\n                lockERC721(minerid, i,amount[i]);\n            }else{\n                lockERC1155(i, amount[i]);\n            }\n        }\n    }\n\n    function addAsset721(string memory name,address contractadd,uint256 price) public onlyOwner {\n\n             Asset memory asset = Asset(name,0,contractadd,price,false);\n             assets[currentcount] = asset;\n            emit addERC721(currentcount++, contractadd, price, name,false);\n\n    }\n\n    function addAsset1155(string memory name,address contractadd,uint256 price) public onlyOwner{\n            \n             uint256 id = IERC1155(contractadd).addAsset(name,price);\n            Asset memory asset = Asset(name,id,contractadd,price,true);\n             assets[currentcount] = asset;\n           emit addERC1155(currentcount++, contractadd, price, name, true,id);\n    }\n\n    function assetdetails(uint256 id) public view returns (Asset memory) {\n        return assets[id];\n    }\n\n    function startgame() public {\n        require(townhalluser[tx.origin].gamestarted == false);\n        if(tx.origin == owner){\n            IERC20(maincurrency).mintnew(5000, tx.origin);\n        \n        }\n        townhalluser[tx.origin] = User(true,townhallcount);\n        IERC20(maincurrency).mintnew(1000, tx.origin);\n        emit startGamev(townhallcount++,tx.origin);\n    }\n\n    function endwar(uint256 building) public {\n        IERC20(maincurrency).mintnew(building*20, tx.origin);\n    }\n\n    function lockERC721(uint256 minerid,uint256 assetid,uint256 amountid) public {\n        address contractadd = assets[assetid].contractadd;\n     \n        ERC721(contractadd).updatelock(minerid,townhalluser[tx.origin].townhallid,amountid);\n\n    }\n\n\n    function lockERC1155(uint256 assetid,uint256 amount) public {\n        address contractadd = assets[assetid].contractadd;\n        IERC1155(contractadd).updatelock(assets[assetid].id,amount);\n    }\n    \n\n    function unlockERC721(uint256 minerid,uint256 assetid) public {\n        address contractadd = assets[assetid].contractadd;\n        ERC721(contractadd).updatelock(minerid,townhalluser[tx.origin].townhallid,0);\n\n    }\n    \n    function mintERC721(uint256 assetid) payable public {\n        require(msg.value>=assets[assetid].price);\n        \n        address contractadd = assets[assetid].contractadd;\n        ERC721(contractadd).mint(tx.origin);\n    }\n\n    function collect(uint256 minerid) public {\n        uint256 amount = ERC721(assets[0].contractadd).collect(minerid);\n        IERC20(maincurrency).mintnew(amount, tx.origin);\n\n    }\n\n    function mintERC1155(uint256 assetid) public{\n        \n        require(IERC20(maincurrency).balanceOf(tx.origin) >= assets[assetid].price);\n        IERC20(maincurrency).subtract(tx.origin, assets[assetid].price);\n        IERC1155(assets[assetid].contractadd).mint(assets[assetid].id,1);\n    }\n\n\n    function setmaincurrency(address scadd) public onlyOwner {\n        maincurrency = scadd;\n    }\n\n\n\n    function withdraw() public payable onlyOwner {\n         address payable  own = payable(owner);\n       own.transfer(address(this).balance); \n    }\n\n}",
  "sourcePath": "/home/kali/Documents/RTS_Contract/contracts/MainGame.sol",
  "compiler": {
    "name": "solc",
    "version": "0.8.12+commit.f00d7308.Emscripten.clang"
  },
  "schemaVersion": "3.4.5",
  "updatedAt": "2022-04-20T16:18:27.346Z",
  "networkType": "ethereum",
  "devdoc": {
    "kind": "dev",
    "methods": {},
    "version": 1
  },
  "userdoc": {
    "kind": "user",
    "methods": {},
    "version": 1
  }
}