{
  "address": "0x692222e146c8CaD5D8C79dc5Dc16C90762caDb9A",
  "abi": [
    {
      "anonymous": false,
      "inputs": [
        {
          "indexed": true,
          "internalType": "address",
          "name": "previousOwner",
          "type": "address"
        },
        {
          "indexed": true,
          "internalType": "address",
          "name": "newOwner",
          "type": "address"
        }
      ],
      "name": "OwnershipTransferred",
      "type": "event"
    },
    {
      "inputs": [
        {
          "internalType": "address",
          "name": "to",
          "type": "address"
        }
      ],
      "name": "giftSubscribtion",
      "outputs": [],
      "stateMutability": "payable",
      "type": "function"
    },
    {
      "inputs": [
        {
          "internalType": "uint256",
          "name": "_serviceFee",
          "type": "uint256"
        },
        {
          "internalType": "uint256",
          "name": "_subscribtionFee",
          "type": "uint256"
        }
      ],
      "name": "initialize",
      "outputs": [],
      "stateMutability": "nonpayable",
      "type": "function"
    },
    {
      "inputs": [
        {
          "internalType": "address",
          "name": "_addr",
          "type": "address"
        }
      ],
      "name": "isSubscribed",
      "outputs": [
        {
          "internalType": "bool",
          "name": "",
          "type": "bool"
        }
      ],
      "stateMutability": "view",
      "type": "function"
    },
    {
      "inputs": [],
      "name": "owner",
      "outputs": [
        {
          "internalType": "address",
          "name": "",
          "type": "address"
        }
      ],
      "stateMutability": "view",
      "type": "function"
    },
    {
      "inputs": [
        {
          "internalType": "address",
          "name": "to",
          "type": "address"
        }
      ],
      "name": "ownerGiftSubscribtion",
      "outputs": [],
      "stateMutability": "nonpayable",
      "type": "function"
    },
    {
      "inputs": [],
      "name": "renounceOwnership",
      "outputs": [],
      "stateMutability": "nonpayable",
      "type": "function"
    },
    {
      "inputs": [
        {
          "internalType": "address[]",
          "name": "recipients",
          "type": "address[]"
        },
        {
          "internalType": "uint256[]",
          "name": "amounts",
          "type": "uint256[]"
        }
      ],
      "name": "sendCoinsManyValues",
      "outputs": [],
      "stateMutability": "payable",
      "type": "function"
    },
    {
      "inputs": [
        {
          "internalType": "address[]",
          "name": "recipients",
          "type": "address[]"
        },
        {
          "internalType": "uint256",
          "name": "amount",
          "type": "uint256"
        }
      ],
      "name": "sendCoinsSingleValue",
      "outputs": [],
      "stateMutability": "payable",
      "type": "function"
    },
    {
      "inputs": [
        {
          "internalType": "address[]",
          "name": "recipients",
          "type": "address[]"
        },
        {
          "internalType": "uint256[]",
          "name": "tokenIds",
          "type": "uint256[]"
        },
        {
          "internalType": "uint256[]",
          "name": "amounts",
          "type": "uint256[]"
        },
        {
          "internalType": "address",
          "name": "asset",
          "type": "address"
        }
      ],
      "name": "sendERC1155",
      "outputs": [],
      "stateMutability": "payable",
      "type": "function"
    },
    {
      "inputs": [
        {
          "internalType": "address[]",
          "name": "recipients",
          "type": "address[]"
        },
        {
          "internalType": "uint256[]",
          "name": "tokenIds",
          "type": "uint256[]"
        },
        {
          "internalType": "uint256",
          "name": "amount",
          "type": "uint256"
        },
        {
          "internalType": "address",
          "name": "asset",
          "type": "address"
        }
      ],
      "name": "sendERC1155SameAmount",
      "outputs": [],
      "stateMutability": "payable",
      "type": "function"
    },
    {
      "inputs": [
        {
          "internalType": "address[]",
          "name": "recipients",
          "type": "address[]"
        },
        {
          "internalType": "uint256[]",
          "name": "tokenIds",
          "type": "uint256[]"
        },
        {
          "internalType": "address",
          "name": "asset",
          "type": "address"
        }
      ],
      "name": "sendERC721",
      "outputs": [],
      "stateMutability": "payable",
      "type": "function"
    },
    {
      "inputs": [
        {
          "internalType": "address[]",
          "name": "recipients",
          "type": "address[]"
        },
        {
          "internalType": "uint256[]",
          "name": "amounts",
          "type": "uint256[]"
        },
        {
          "internalType": "address",
          "name": "asset",
          "type": "address"
        }
      ],
      "name": "sendTokensManyValues",
      "outputs": [],
      "stateMutability": "payable",
      "type": "function"
    },
    {
      "inputs": [
        {
          "internalType": "address[]",
          "name": "recipients",
          "type": "address[]"
        },
        {
          "internalType": "uint256",
          "name": "amount",
          "type": "uint256"
        },
        {
          "internalType": "address",
          "name": "asset",
          "type": "address"
        }
      ],
      "name": "sendTokensSingleValue",
      "outputs": [],
      "stateMutability": "payable",
      "type": "function"
    },
    {
      "inputs": [],
      "name": "serviceFee",
      "outputs": [
        {
          "internalType": "uint256",
          "name": "",
          "type": "uint256"
        }
      ],
      "stateMutability": "view",
      "type": "function"
    },
    {
      "inputs": [
        {
          "internalType": "uint256",
          "name": "_serviceFee",
          "type": "uint256"
        },
        {
          "internalType": "uint256",
          "name": "_subscribtionFee",
          "type": "uint256"
        }
      ],
      "name": "setFees",
      "outputs": [],
      "stateMutability": "nonpayable",
      "type": "function"
    },
    {
      "inputs": [
        {
          "internalType": "uint256",
          "name": "fee",
          "type": "uint256"
        }
      ],
      "name": "setServiceFee",
      "outputs": [],
      "stateMutability": "nonpayable",
      "type": "function"
    },
    {
      "inputs": [
        {
          "internalType": "uint256",
          "name": "_subscribtionFee",
          "type": "uint256"
        }
      ],
      "name": "setSubscribtionFee",
      "outputs": [],
      "stateMutability": "nonpayable",
      "type": "function"
    },
    {
      "inputs": [],
      "name": "subscribe",
      "outputs": [],
      "stateMutability": "payable",
      "type": "function"
    },
    {
      "inputs": [],
      "name": "subscribtionFee",
      "outputs": [
        {
          "internalType": "uint256",
          "name": "",
          "type": "uint256"
        }
      ],
      "stateMutability": "view",
      "type": "function"
    },
    {
      "inputs": [
        {
          "internalType": "uint256[]",
          "name": "arr",
          "type": "uint256[]"
        }
      ],
      "name": "sum",
      "outputs": [
        {
          "internalType": "uint256",
          "name": "",
          "type": "uint256"
        }
      ],
      "stateMutability": "pure",
      "type": "function"
    },
    {
      "inputs": [
        {
          "internalType": "address",
          "name": "newOwner",
          "type": "address"
        }
      ],
      "name": "transferOwnership",
      "outputs": [],
      "stateMutability": "nonpayable",
      "type": "function"
    },
    {
      "inputs": [],
      "name": "unsubscribe",
      "outputs": [],
      "stateMutability": "nonpayable",
      "type": "function"
    },
    {
      "inputs": [],
      "name": "withdraw",
      "outputs": [],
      "stateMutability": "nonpayable",
      "type": "function"
    },
    {
      "inputs": [
        {
          "internalType": "address",
          "name": "asset",
          "type": "address"
        },
        {
          "internalType": "uint256",
          "name": "tokenId",
          "type": "uint256"
        },
        {
          "internalType": "uint256",
          "name": "amount",
          "type": "uint256"
        }
      ],
      "name": "withdraw1155",
      "outputs": [],
      "stateMutability": "nonpayable",
      "type": "function"
    },
    {
      "inputs": [
        {
          "internalType": "address",
          "name": "asset",
          "type": "address"
        }
      ],
      "name": "withdraw20",
      "outputs": [],
      "stateMutability": "nonpayable",
      "type": "function"
    },
    {
      "inputs": [
        {
          "internalType": "address",
          "name": "asset",
          "type": "address"
        },
        {
          "internalType": "uint256",
          "name": "tokenId",
          "type": "uint256"
        }
      ],
      "name": "withdraw721",
      "outputs": [],
      "stateMutability": "nonpayable",
      "type": "function"
    }
  ],
  "transactionHash": "0x29b4b1d141999fcf210eb473be746217cd52f208eb7a7da6eb6f4ba5c8deba68",
  "args": [],
  "numDeployments": 2,
  "solcInputHash": "c4081caf5f24becf049795aa6f994cbd",
  "bytecode": "0x608060405234801561001057600080fd5b506121e4806100206000396000f3fe6080604052600436106101815760003560e01c80635cdf76f8116100d15780638f449a051161008a578063eb6df17d11610064578063eb6df17d146103c1578063f07a380e146103e1578063f2fde38b14610401578063fcae44841461042157610181565b80638f449a051461036c578063b92ae87c14610374578063e4a30116146103a157610181565b80635cdf76f8146102da57806363b0497d146102fa578063715018a61461030d5780638801599c146103225780638abdf5aa146103355780638da5cb5b1461034a57610181565b80633f0082281161013e5780634a8419fd116101185780634a8419fd146102745780634b2786331461029457806359b5a536146102b45780635b1f1530146102c757610181565b80633f00822814610239578063472b5bc71461024c578063495f657c1461026157610181565b80630194db8e146101865780630b43b271146101bc5780630b78f9c0146101d157806317c2adb3146101f15780632ff1d0f9146102045780633ccfd60b14610224575b600080fd5b34801561019257600080fd5b506101a66101a1366004611d5d565b610436565b6040516101b391906120b7565b60405180910390f35b6101cf6101ca366004611c5e565b61049b565b005b3480156101dd57600080fd5b506101cf6101ec366004611de8565b61067f565b6101cf6101ff366004611a82565b6106c4565b34801561021057600080fd5b506101cf61021f366004611ac5565b6106f9565b34801561023057600080fd5b506101cf610791565b6101cf610247366004611bc9565b6107ec565b34801561025857600080fd5b506101a66109ea565b6101cf61026f366004611d11565b610a29565b34801561028057600080fd5b506101cf61028f366004611a82565b610cbf565b3480156102a057600080fd5b506101cf6102af366004611db8565b610e0c565b6101cf6102c2366004611cce565b610e79565b6101cf6102d5366004611af7565b610fa8565b3480156102e657600080fd5b506101cf6102f5366004611db8565b611112565b6101cf610308366004611b58565b611154565b34801561031957600080fd5b506101cf61140a565b6101cf610330366004611b58565b611445565b34801561034157600080fd5b506101a6611616565b34801561035657600080fd5b5061035f611653565b6040516101b39190611e09565b6101cf61169c565b34801561038057600080fd5b5061039461038f366004611a82565b6116ce565b6040516101b39190611eac565b3480156103ad57600080fd5b506101cf6103bc366004611de8565b611737565b3480156103cd57600080fd5b506101cf6103dc366004611a82565b61177a565b3480156103ed57600080fd5b506101cf6103fc366004611a9c565b6117a9565b34801561040d57600080fd5b506101cf61041c366004611a82565b611836565b34801561042d57600080fd5b506101cf611894565b600080805b83518110156104925761047e84828151811061046757634e487b7160e01b600052603260045260246000fd5b60200260200101518361189f90919063ffffffff16565b91508061048a81612167565b91505061043b565b5090505b919050565b60405163e985e9c560e01b815281906001600160a01b0382169063e985e9c5906104cb9033903090600401611e1d565b60206040518083038186803b1580156104e357600080fd5b505afa1580156104f7573d6000803e3d6000fd5b505050506040513d601f19601f8201168201806040525081019061051b9190611d98565b6105405760405162461bcd60e51b81526004016105379061207b565b60405180910390fd5b610549336116ce565b8061055b5750610557611616565b3410155b6105775760405162461bcd60e51b81526004016105379061208c565b6101008551111561059a5760405162461bcd60e51b815260040161053790611eff565b60005b85518161ffff16101561067757816001600160a01b031663f242432a33888461ffff16815181106105de57634e487b7160e01b600052603260045260246000fd5b6020026020010151888561ffff168151811061060a57634e487b7160e01b600052603260045260246000fd5b6020026020010151886040518563ffffffff1660e01b81526004016106329493929190611e5b565b600060405180830381600087803b15801561064c57600080fd5b505af1158015610660573d6000803e3d6000fd5b50505050808061066f90612145565b91505061059d565b505050505050565b33610688611653565b6001600160a01b0316146106ae5760405162461bcd60e51b815260040161053790611fee565b6106b782611112565b6106c081610e0c565b5050565b6106cc6109ea565b3410156106eb5760405162461bcd60e51b81526004016105379061204e565b6106f68160016118b2565b50565b33610702611653565b6001600160a01b0316146107285760405162461bcd60e51b815260040161053790611fee565b604051637921219560e11b81526001600160a01b0384169063f242432a9061075a903090339087908790600401611e5b565b600060405180830381600087803b15801561077457600080fd5b505af1158015610788573d6000803e3d6000fd5b50505050505050565b3361079a611653565b6001600160a01b0316146107c05760405162461bcd60e51b815260040161053790611fee565b60405133904780156108fc02916000818181858888f193505050501580156106f6573d6000803e3d6000fd5b60405163e985e9c560e01b815281906001600160a01b0382169063e985e9c59061081c9033903090600401611e1d565b60206040518083038186803b15801561083457600080fd5b505afa158015610848573d6000803e3d6000fd5b505050506040513d601f19601f8201168201806040525081019061086c9190611d98565b6108885760405162461bcd60e51b81526004016105379061207b565b610891336116ce565b806108a3575061089f611616565b3410155b6108bf5760405162461bcd60e51b81526004016105379061208c565b610100855111156108e25760405162461bcd60e51b815260040161053790611eff565b60005b85518161ffff16101561067757816001600160a01b031663f242432a33888461ffff168151811061092657634e487b7160e01b600052603260045260246000fd5b6020026020010151888561ffff168151811061095257634e487b7160e01b600052603260045260246000fd5b6020026020010151888661ffff168151811061097e57634e487b7160e01b600052603260045260246000fd5b60200260200101516040518563ffffffff1660e01b81526004016109a59493929190611e5b565b600060405180830381600087803b1580156109bf57600080fd5b505af11580156109d3573d6000803e3d6000fd5b5050505080806109e290612145565b9150506108e5565b60008060006040516020016109fe90611ed6565b6040516020818303038152906040528051906020012081526020019081526020016000205490505b90565b8251600090610a389084611900565b905080826001600160a01b031663dd62ed3e33306040518363ffffffff1660e01b8152600401610a69929190611e1d565b60206040518083038186803b158015610a8157600080fd5b505afa158015610a95573d6000803e3d6000fd5b505050506040513d601f19601f82011682018060405250810190610ab99190611dd0565b1015610ad75760405162461bcd60e51b815260040161053790611f5a565b6040516370a0823160e01b815281906001600160a01b038416906370a0823190610b05903390600401611e09565b60206040518083038186803b158015610b1d57600080fd5b505afa158015610b31573d6000803e3d6000fd5b505050506040513d601f19601f82011682018060405250810190610b559190611dd0565b1015610b735760405162461bcd60e51b815260040161053790611f8a565b610b7c336116ce565b80610b8e5750610b8a611616565b3410155b610baa5760405162461bcd60e51b81526004016105379061208c565b61010084511115610bcd5760405162461bcd60e51b815260040161053790611eff565b60005b84518161ffff161015610cb857826001600160a01b03166323b872dd33878461ffff1681518110610c1157634e487b7160e01b600052603260045260246000fd5b6020026020010151876040518463ffffffff1660e01b8152600401610c3893929190611e37565b602060405180830381600087803b158015610c5257600080fd5b505af1158015610c66573d6000803e3d6000fd5b505050506040513d601f19601f82011682018060405250810190610c8a9190611d98565b610ca65760405162461bcd60e51b81526004016105379061207b565b80610cb081612145565b915050610bd0565b5050505050565b33610cc8611653565b6001600160a01b031614610cee5760405162461bcd60e51b815260040161053790611fee565b6040516370a0823160e01b81526000906001600160a01b038316906370a0823190610d1d903090600401611e09565b60206040518083038186803b158015610d3557600080fd5b505afa158015610d49573d6000803e3d6000fd5b505050506040513d601f19601f82011682018060405250810190610d6d9190611dd0565b60405163a9059cbb60e01b81529091506001600160a01b0383169063a9059cbb90610d9e9033908590600401611e93565b602060405180830381600087803b158015610db857600080fd5b505af1158015610dcc573d6000803e3d6000fd5b505050506040513d601f19601f82011682018060405250810190610df09190611d98565b6106c05760405162461bcd60e51b81526004016105379061207b565b33610e15611653565b6001600160a01b031614610e3b5760405162461bcd60e51b815260040161053790611fee565b80600080604051602001610e4e90611ed6565b6040516020818303038152906040528051906020012081526020019081526020016000208190555050565b8151600090610e889083611900565b9050610e93336116ce565b15610ebd5780341015610eb85760405162461bcd60e51b81526004016105379061204e565b610eee565b610ecf610ec8611616565b829061189f565b341015610eee5760405162461bcd60e51b81526004016105379061204e565b61010083511115610f115760405162461bcd60e51b815260040161053790611eff565b60005b83518161ffff161015610fa257838161ffff1681518110610f4557634e487b7160e01b600052603260045260246000fd5b60200260200101516001600160a01b03166108fc849081150290604051600060405180830381858888f19350505050610f905760405162461bcd60e51b81526004016105379061207b565b80610f9a81612145565b915050610f14565b50505050565b6000610fb382610436565b90508151835114610fd65760405162461bcd60e51b815260040161053790612023565b610fdf336116ce565b1561100957803410156110045760405162461bcd60e51b81526004016105379061204e565b611033565b611014610ec8611616565b3410156110335760405162461bcd60e51b81526004016105379061204e565b610100835111156110565760405162461bcd60e51b815260040161053790611eff565b60005b83518161ffff161015610fa257838161ffff168151811061108a57634e487b7160e01b600052603260045260246000fd5b60200260200101516001600160a01b03166108fc848361ffff16815181106110c257634e487b7160e01b600052603260045260246000fd5b60200260200101519081150290604051600060405180830381858888f193505050506111005760405162461bcd60e51b81526004016105379061207b565b8061110a81612145565b915050611059565b3361111b611653565b6001600160a01b0316146111415760405162461bcd60e51b815260040161053790611fee565b80600080604051602001610e4e90611f36565b600061115f83610436565b905080826001600160a01b031663dd62ed3e33306040518363ffffffff1660e01b8152600401611190929190611e1d565b60206040518083038186803b1580156111a857600080fd5b505afa1580156111bc573d6000803e3d6000fd5b505050506040513d601f19601f820116820180604052508101906111e09190611dd0565b10156111fe5760405162461bcd60e51b815260040161053790611f5a565b6040516370a0823160e01b815281906001600160a01b038416906370a082319061122c903390600401611e09565b60206040518083038186803b15801561124457600080fd5b505afa158015611258573d6000803e3d6000fd5b505050506040513d601f19601f8201168201806040525081019061127c9190611dd0565b101561129a5760405162461bcd60e51b815260040161053790611f8a565b6112a3336116ce565b806112b557506112b1611616565b3410155b6112d15760405162461bcd60e51b81526004016105379061208c565b610100845111156112f45760405162461bcd60e51b815260040161053790611eff565b60005b84518161ffff161015610cb857826001600160a01b03166323b872dd33878461ffff168151811061133857634e487b7160e01b600052603260045260246000fd5b6020026020010151878561ffff168151811061136457634e487b7160e01b600052603260045260246000fd5b60200260200101516040518463ffffffff1660e01b815260040161138a93929190611e37565b602060405180830381600087803b1580156113a457600080fd5b505af11580156113b8573d6000803e3d6000fd5b505050506040513d601f19601f820116820180604052508101906113dc9190611d98565b6113f85760405162461bcd60e51b81526004016105379061207b565b8061140281612145565b9150506112f7565b33611413611653565b6001600160a01b0316146114395760405162461bcd60e51b815260040161053790611fee565b611443600061190c565b565b60405163e985e9c560e01b815281906001600160a01b0382169063e985e9c5906114759033903090600401611e1d565b60206040518083038186803b15801561148d57600080fd5b505afa1580156114a1573d6000803e3d6000fd5b505050506040513d601f19601f820116820180604052508101906114c59190611d98565b6114e15760405162461bcd60e51b81526004016105379061207b565b6114ea336116ce565b806114fc57506114f8611616565b3410155b6115185760405162461bcd60e51b81526004016105379061208c565b6101008451111561153b5760405162461bcd60e51b815260040161053790611eff565b60005b84518161ffff161015610cb857816001600160a01b03166323b872dd33878461ffff168151811061157f57634e487b7160e01b600052603260045260246000fd5b6020026020010151878561ffff16815181106115ab57634e487b7160e01b600052603260045260246000fd5b60200260200101516040518463ffffffff1660e01b81526004016115d193929190611e37565b600060405180830381600087803b1580156115eb57600080fd5b505af11580156115ff573d6000803e3d6000fd5b50505050808061160e90612145565b91505061153e565b6000611620611653565b6001600160a01b0316336001600160a01b0316141561164157506000610a26565b6000806040516020016109fe90611f36565b60006002600060405160200161166890611eb7565b60408051601f19818403018152918152815160209283012083529082019290925201600020546001600160a01b0316905090565b6116a46109ea565b3410156116c35760405162461bcd60e51b81526004016105379061204e565b6114433360016118b2565b60006116d8611653565b6001600160a01b0316826001600160a01b03161480611731575060046000836040516020016117079190611fb8565b60408051601f198184030181529181528151602092830120835290820192909252016000205460ff165b92915050565b6000611741611653565b6001600160a01b0316146117675760405162461bcd60e51b81526004016105379061207b565b6117703361190c565b6106c0828261067f565b33611783611653565b6001600160a01b0316146106eb5760405162461bcd60e51b815260040161053790611fee565b336117b2611653565b6001600160a01b0316146117d85760405162461bcd60e51b815260040161053790611fee565b6040516323b872dd60e01b81526001600160a01b038316906323b872dd9061180890309033908690600401611e37565b600060405180830381600087803b15801561182257600080fd5b505af1158015610677573d6000803e3d6000fd5b3361183f611653565b6001600160a01b0316146118655760405162461bcd60e51b815260040161053790611fee565b6001600160a01b03811661188b5760405162461bcd60e51b81526004016105379061207b565b6106f68161190c565b6114433360006118b2565b60006118ab828461210e565b9392505050565b8060046000846040516020016118c89190611fb8565b60408051808303601f19018152918152815160209283012083529082019290925201600020805460ff19169115159190911790555050565b60006118ab8284612126565b6000611916611653565b9050816002600060405160200161192c90611eb7565b60408051808303601f1901815291815281516020928301208352908201929092528101600090812080546001600160a01b0319166001600160a01b039485161790559051848316928416917f8be0079c531659141344cd1fd0a4f28419497f9722a3daafe3b4186f6b6457e091a35050565b80356001600160a01b038116811461049657600080fd5b600082601f8301126119c5578081fd5b813560206119da6119d5836120ea565b6120c0565b82815281810190858301838502870184018810156119f6578586fd5b855b85811015611a1b57611a098261199e565b845292840192908401906001016119f8565b5090979650505050505050565b600082601f830112611a38578081fd5b81356020611a486119d5836120ea565b8281528181019085830183850287018401881015611a64578586fd5b855b85811015611a1b57813584529284019290840190600101611a66565b600060208284031215611a93578081fd5b6118ab8261199e565b60008060408385031215611aae578081fd5b611ab78361199e565b946020939093013593505050565b600080600060608486031215611ad9578081fd5b611ae28461199e565b95602085013595506040909401359392505050565b60008060408385031215611b09578182fd5b823567ffffffffffffffff80821115611b20578384fd5b611b2c868387016119b5565b93506020850135915080821115611b41578283fd5b50611b4e85828601611a28565b9150509250929050565b600080600060608486031215611b6c578283fd5b833567ffffffffffffffff80821115611b83578485fd5b611b8f878388016119b5565b94506020860135915080821115611ba4578384fd5b50611bb186828701611a28565b925050611bc06040850161199e565b90509250925092565b60008060008060808587031215611bde578081fd5b843567ffffffffffffffff80821115611bf5578283fd5b611c01888389016119b5565b95506020870135915080821115611c16578283fd5b611c2288838901611a28565b94506040870135915080821115611c37578283fd5b50611c4487828801611a28565b925050611c536060860161199e565b905092959194509250565b60008060008060808587031215611c73578384fd5b843567ffffffffffffffff80821115611c8a578586fd5b611c96888389016119b5565b95506020870135915080821115611cab578485fd5b50611cb887828801611a28565b93505060408501359150611c536060860161199e565b60008060408385031215611ce0578182fd5b823567ffffffffffffffff811115611cf6578283fd5b611d02858286016119b5565b95602094909401359450505050565b600080600060608486031215611d25578283fd5b833567ffffffffffffffff811115611d3b578384fd5b611d47868287016119b5565b93505060208401359150611bc06040850161199e565b600060208284031215611d6e578081fd5b813567ffffffffffffffff811115611d84578182fd5b611d9084828501611a28565b949350505050565b600060208284031215611da9578081fd5b815180151581146118ab578182fd5b600060208284031215611dc9578081fd5b5035919050565b600060208284031215611de1578081fd5b5051919050565b60008060408385031215611dfa578182fd5b50508035926020909101359150565b6001600160a01b0391909116815260200190565b6001600160a01b0392831681529116602082015260400190565b6001600160a01b039384168152919092166020820152604081019190915260600190565b6001600160a01b0394851681529290931660208301526040820152606081019190915260a06080820181905260009082015260c00190565b6001600160a01b03929092168252602082015260400190565b901515815260200190565b60208082526005908201526437bbb732b960d91b604082015260600190565b6020808252600f908201526e737562736372696274696f6e46656560881b604082015260600190565b60208082526018908201527f526563697069656e747320617272617920746f6f206269670000000000000000604082015260600190565b6020808252600a90820152697365727669636546656560b01b604082015260600190565b602080825260169082015275496e73756666696369656e7420616c6c6f77616e636560501b604082015260600190565b602080825260149082015273496e73756666696369656e742062616c616e636560601b604082015260600190565b6040808252600b908201526a737562736372696265727360a81b60608201526001600160a01b0391909116602082015260800190565b6020808252818101527f4f776e61626c653a2063616c6c6572206973206e6f7420746865206f776e6572604082015260600190565b602080825260119082015270696e76616c696420417267756d656e747360781b604082015260600190565b602080825260139082015272125b9cdd59999a58da595b9d08185b5bdd5b9d606a1b604082015260600190565b602080825260009082015260400190565b602080825260119082015270496e73756666696369656e74206665657360781b604082015260600190565b90815260200190565b60405181810167ffffffffffffffff811182821017156120e2576120e2612198565b604052919050565b600067ffffffffffffffff82111561210457612104612198565b5060209081020190565b6000821982111561212157612121612182565b500190565b600081600019048311821515161561214057612140612182565b500290565b600061ffff8083168181141561215d5761215d612182565b6001019392505050565b600060001982141561217b5761217b612182565b5060010190565b634e487b7160e01b600052601160045260246000fd5b634e487b7160e01b600052604160045260246000fdfea2646970667358221220c581d05a1b310591da646160fbfd1b2513a1098b29a730ce0c41de5efe60deda64736f6c63430008000033",
  "devdoc": {
    "kind": "dev",
    "methods": {},
    "version": 1
  },
  "userdoc": {
    "kind": "user",
    "methods": {},
    "version": 1
  },
  "storageLayout": {
    "storage": [
      {
        "astId": 1969,
        "contract": "contracts/AirdropDistributor.sol:AirdropDistributor",
        "label": "uintStorage",
        "offset": 0,
        "slot": "0",
        "type": "t_mapping(t_bytes32,t_uint256)"
      },
      {
        "astId": 1973,
        "contract": "contracts/AirdropDistributor.sol:AirdropDistributor",
        "label": "stringStorage",
        "offset": 0,
        "slot": "1",
        "type": "t_mapping(t_bytes32,t_string_storage)"
      },
      {
        "astId": 1977,
        "contract": "contracts/AirdropDistributor.sol:AirdropDistributor",
        "label": "addressStorage",
        "offset": 0,
        "slot": "2",
        "type": "t_mapping(t_bytes32,t_address)"
      },
      {
        "astId": 1981,
        "contract": "contracts/AirdropDistributor.sol:AirdropDistributor",
        "label": "bytesStorage",
        "offset": 0,
        "slot": "3",
        "type": "t_mapping(t_bytes32,t_bytes_storage)"
      },
      {
        "astId": 1985,
        "contract": "contracts/AirdropDistributor.sol:AirdropDistributor",
        "label": "boolStorage",
        "offset": 0,
        "slot": "4",
        "type": "t_mapping(t_bytes32,t_bool)"
      },
      {
        "astId": 1989,
        "contract": "contracts/AirdropDistributor.sol:AirdropDistributor",
        "label": "intStorage",
        "offset": 0,
        "slot": "5",
        "type": "t_mapping(t_bytes32,t_int256)"
      }
    ],
    "types": {
      "t_address": {
        "encoding": "inplace",
        "label": "address",
        "numberOfBytes": "20"
      },
      "t_bool": {
        "encoding": "inplace",
        "label": "bool",
        "numberOfBytes": "1"
      },
      "t_bytes32": {
        "encoding": "inplace",
        "label": "bytes32",
        "numberOfBytes": "32"
      },
      "t_bytes_storage": {
        "encoding": "bytes",
        "label": "bytes",
        "numberOfBytes": "32"
      },
      "t_int256": {
        "encoding": "inplace",
        "label": "int256",
        "numberOfBytes": "32"
      },
      "t_mapping(t_bytes32,t_address)": {
        "encoding": "mapping",
        "key": "t_bytes32",
        "label": "mapping(bytes32 => address)",
        "numberOfBytes": "32",
        "value": "t_address"
      },
      "t_mapping(t_bytes32,t_bool)": {
        "encoding": "mapping",
        "key": "t_bytes32",
        "label": "mapping(bytes32 => bool)",
        "numberOfBytes": "32",
        "value": "t_bool"
      },
      "t_mapping(t_bytes32,t_bytes_storage)": {
        "encoding": "mapping",
        "key": "t_bytes32",
        "label": "mapping(bytes32 => bytes)",
        "numberOfBytes": "32",
        "value": "t_bytes_storage"
      },
      "t_mapping(t_bytes32,t_int256)": {
        "encoding": "mapping",
        "key": "t_bytes32",
        "label": "mapping(bytes32 => int256)",
        "numberOfBytes": "32",
        "value": "t_int256"
      },
      "t_mapping(t_bytes32,t_string_storage)": {
        "encoding": "mapping",
        "key": "t_bytes32",
        "label": "mapping(bytes32 => string)",
        "numberOfBytes": "32",
        "value": "t_string_storage"
      },
      "t_mapping(t_bytes32,t_uint256)": {
        "encoding": "mapping",
        "key": "t_bytes32",
        "label": "mapping(bytes32 => uint256)",
        "numberOfBytes": "32",
        "value": "t_uint256"
      },
      "t_string_storage": {
        "encoding": "bytes",
        "label": "string",
        "numberOfBytes": "32"
      },
      "t_uint256": {
        "encoding": "inplace",
        "label": "uint256",
        "numberOfBytes": "32"
      }
    }
  }
}