{
  "address": "0x8464135c8F25Da09e49BC8782676a84730C318bC",
  "abi": [
    {
      "constant": true,
      "inputs": [],
      "name": "proxyOwner",
      "outputs": [
        {
          "name": "",
          "type": "address"
        }
      ],
      "payable": false,
      "stateMutability": "view",
      "type": "function"
    },
    {
      "constant": true,
      "inputs": [],
      "name": "version",
      "outputs": [
        {
          "name": "",
          "type": "string"
        }
      ],
      "payable": false,
      "stateMutability": "view",
      "type": "function"
    },
    {
      "constant": false,
      "inputs": [
        {
          "name": "version",
          "type": "string"
        },
        {
          "name": "implementation",
          "type": "address"
        }
      ],
      "name": "upgradeTo",
      "outputs": [],
      "payable": false,
      "stateMutability": "nonpayable",
      "type": "function"
    },
    {
      "constant": true,
      "inputs": [],
      "name": "implementation",
      "outputs": [
        {
          "name": "",
          "type": "address"
        }
      ],
      "payable": false,
      "stateMutability": "view",
      "type": "function"
    },
    {
      "constant": true,
      "inputs": [],
      "name": "upgradeabilityOwner",
      "outputs": [
        {
          "name": "",
          "type": "address"
        }
      ],
      "payable": false,
      "stateMutability": "view",
      "type": "function"
    },
    {
      "constant": false,
      "inputs": [
        {
          "name": "version",
          "type": "string"
        },
        {
          "name": "implementation",
          "type": "address"
        },
        {
          "name": "data",
          "type": "bytes"
        }
      ],
      "name": "upgradeToAndCall",
      "outputs": [],
      "payable": true,
      "stateMutability": "payable",
      "type": "function"
    },
    {
      "constant": false,
      "inputs": [
        {
          "name": "newOwner",
          "type": "address"
        }
      ],
      "name": "transferProxyOwnership",
      "outputs": [],
      "payable": false,
      "stateMutability": "nonpayable",
      "type": "function"
    },
    {
      "payable": true,
      "stateMutability": "payable",
      "type": "fallback"
    },
    {
      "anonymous": false,
      "inputs": [
        {
          "indexed": false,
          "name": "previousOwner",
          "type": "address"
        },
        {
          "indexed": false,
          "name": "newOwner",
          "type": "address"
        }
      ],
      "name": "ProxyOwnershipTransferred",
      "type": "event"
    },
    {
      "anonymous": false,
      "inputs": [
        {
          "indexed": false,
          "name": "version",
          "type": "string"
        },
        {
          "indexed": true,
          "name": "implementation",
          "type": "address"
        }
      ],
      "name": "Upgraded",
      "type": "event"
    }
  ],
  "transactionHash": "0x5e1df78965d70b0f96e12eecb747246057c48a6250d3c024be7c4bde143e58aa",
  "args": [],
  "numDeployments": 1,
  "solcInputHash": "0e3b3b92c258a770f7316fe426ee81cb",
  "bytecode": "0x606060405261001a3364010000000061061161001f82021704565b610041565b60068054600160a060020a031916600160a060020a0392909216919091179055565b610716806100506000396000f3006060604052600436106100825763ffffffff7c0100000000000000000000000000000000000000000000000000000000600035041663025313a281146100c857806354fd4d50146100f75780635a8b1a9f146101815780635c60da1b146101df5780636fde8202146101f2578063958a41dd14610205578063f1739cae1461029f575b600061008c6102be565b9050600160a060020a03811615156100a357600080fd5b60405136600082376000803683855af43d806000843e8180156100c4578184f35b8184fd5b34156100d357600080fd5b6100db6102ce565b604051600160a060020a03909116815260200160405180910390f35b341561010257600080fd5b61010a6102dd565b60405160208082528190810183818151815260200191508051906020019080838360005b8381101561014657808201518382015260200161012e565b50505050905090810190601f1680156101735780820380516001836020036101000a031916815260200191505b509250505060405180910390f35b341561018c57600080fd5b6101dd60046024813581810190830135806020601f8201819004810201604051908101604052818152929190602084018383808284375094965050509235600160a060020a03169250610385915050565b005b34156101ea57600080fd5b6100db6102be565b34156101fd57600080fd5b6100db6103ba565b6101dd60046024813581810190830135806020601f82018190048102016040519081016040528181529291906020840183838082843782019150505050505091908035600160a060020a031690602001909190803590602001908201803590602001908080601f0160208091040260200160405190810160405281815292919060208401838380828437509496506103c995505050505050565b34156102aa57600080fd5b6101dd600160a060020a0360043516610486565b600854600160a060020a03165b90565b60006102d86103ba565b905090565b6102e5610640565b60078054600181600116156101000203166002900480601f01602080910402602001604051908101604052809291908181526020018280546001816001161561010002031660029004801561037b5780601f106103505761010080835404028352916020019161037b565b820191906000526020600020905b81548152906001019060200180831161035e57829003601f168201915b5050505050905090565b61038d6102ce565b600160a060020a031633600160a060020a03161415156103ac57600080fd5b6103b6828261051b565b5050565b600654600160a060020a031690565b6103d16102ce565b600160a060020a031633600160a060020a03161415156103f057600080fd5b6103fa8383610385565b30600160a060020a0316348260405180828051906020019080838360005b83811015610430578082015183820152602001610418565b50505050905090810190601f16801561045d5780820380516001836020036101000a031916815260200191505b5091505060006040518083038185876187965a03f192505050151561048157600080fd5b505050565b61048e6102ce565b600160a060020a031633600160a060020a03161415156104ad57600080fd5b600160a060020a03811615156104c257600080fd5b7f5a3e66efaa1e445ebd894728a69d6959842ea1e97bd79b892797106e270efcd96104eb6102ce565b82604051600160a060020a039283168152911660208201526040908101905180910390a161051881610611565b50565b600854600160a060020a038281169116141561053657600080fd5b6007828051610549929160200190610652565b506008805473ffffffffffffffffffffffffffffffffffffffff1916600160a060020a0383169081179091557f8e05e0e35ff592971ca8b477d4285a33a61ded208d644042667b78693a472f5e8360405160208082528190810183818151815260200191508051906020019080838360005b838110156105d35780820151838201526020016105bb565b50505050905090810190601f1680156106005780820380516001836020036101000a031916815260200191505b509250505060405180910390a25050565b6006805473ffffffffffffffffffffffffffffffffffffffff1916600160a060020a0392909216919091179055565b60206040519081016040526000815290565b828054600181600116156101000203166002900490600052602060002090601f016020900481019282601f1061069357805160ff19168380011785556106c0565b828001600101855582156106c0579182015b828111156106c05782518255916020019190600101906106a5565b506106cc9291506106d0565b5090565b6102cb91905b808211156106cc57600081556001016106d65600a165627a7a72305820f34270955c519e2d37739eb1e9e705647c9a46e8649f6d80c97dd9a4a6b4c0490029",
  "devdoc": {
    "methods": {
      "implementation()": {
        "details": "Tells the address of the current implementation",
        "return": "address of the current implementation"
      },
      "proxyOwner()": {
        "details": "Tells the address of the proxy owner",
        "return": "the address of the proxy owner"
      },
      "transferProxyOwnership(address)": {
        "details": "Allows the current owner to transfer control of the contract to a newOwner.",
        "params": {
          "newOwner": "The address to transfer ownership to."
        }
      },
      "upgradeTo(string,address)": {
        "details": "Allows the upgradeability owner to upgrade the current version of the proxy.",
        "params": {
          "implementation": "representing the address of the new implementation to be set.",
          "version": "representing the version name of the new implementation to be set."
        }
      },
      "upgradeToAndCall(string,address,bytes)": {
        "details": "Allows the upgradeability owner to upgrade the current version of the proxy and call the new implementation to initialize whatever is needed through a low level call.",
        "params": {
          "data": "represents the msg.data to bet sent in the low level call. This parameter may include the function signature of the implementation to be called with the needed payload",
          "implementation": "representing the address of the new implementation to be set.",
          "version": "representing the version name of the new implementation to be set."
        }
      },
      "upgradeabilityOwner()": {
        "details": "Tells the address of the owner",
        "return": "the address of the owner"
      },
      "version()": {
        "details": "Tells the version name of the current implementation",
        "return": "string representing the name of the current version"
      }
    },
    "title": "EternalStorageProxy"
  },
  "userdoc": {
    "methods": {}
  }
}