{
	"data": {
		"bytecode": {
			"linkReferences": {},
			"object": "6107e060405261072b60808181529062003c5160a03980516200002b91600f9160209091019062000153565b5060408051808201909152600d8082526c1e17ba32bc3a1f1e17b9bb339f60991b6020909201918252620000629160109162000153565b506040516200437c3803806200437c83398101604081905262000085916200020f565b604080518082018252601081526f584443204e616d65205365727669636560801b602080830191825283518085019094526003845262584e5360e81b908401528151919291620000d89160009162000153565b508051620000ee90600190602084019062000153565b5050600a80546001600160a01b031916331790555083516200011890600990602087019062000153565b50600c839055600d829055600e81905562000140600b6200014a602090811b6200217217901c565b5050505062000344565b80546001019055565b828054620001619062000307565b90600052602060002090601f016020900481019282620001855760008555620001d0565b82601f10620001a057805160ff1916838001178555620001d0565b82800160010185558215620001d0579182015b82811115620001d0578251825591602001919060010190620001b3565b50620001de929150620001e2565b5090565b5b80821115620001de5760008155600101620001e3565b634e487b7160e01b600052604160045260246000fd5b600080600080608085870312156200022657600080fd5b84516001600160401b03808211156200023e57600080fd5b818701915087601f8301126200025357600080fd5b815181811115620002685762000268620001f9565b604051601f8201601f19908116603f01168101908382118183101715620002935762000293620001f9565b81604052828152602093508a84848701011115620002b057600080fd5b600091505b82821015620002d45784820184015181830185015290830190620002b5565b82821115620002e65760008484830101525b9289015160408a01516060909a0151939b909a509297509195505050505050565b600181811c908216806200031c57607f821691505b602082108114156200033e57634e487b7160e01b600052602260045260246000fd5b50919050565b6138fd80620003546000396000f3fe60806040526004361061021a5760003560e01c80638da5cb5b11610123578063bf40fac1116100ab578063f0f193461161006f578063f0f193461461068c578063f2c298be146106ac578063f5064fd0146106bf578063fb825e5f146106df578063fe2c61981461070157600080fd5b8063bf40fac1146105cd578063c87b56dd146105ed578063d7e915d51461060d578063e327ad6114610623578063e985e9c51461064357600080fd5b80639791c097116100f25780639791c0971461052d578063a22cb4651461054d578063aa585d561461056d578063b88d4fde1461058d578063bee51f3b146105ad57600080fd5b80638da5cb5b146104b85780638f32d59b146104d857806395d89b41146104f85780639751e9f11461050d57600080fd5b8063438b6300116101a65780636352211e116101755780636352211e146103fc57806370a082311461041c5780638600c8b21461043c57806386e80b71146104525780638a08677d1461048057600080fd5b8063438b63001461035a5780634622ab03146103875780634e82dc89146103a7578063541e771d146103cb57600080fd5b806315bf7227116101ed57806315bf7227146102d057806323b872dd146102f05780632d551432146103105780633ccfd60b1461032557806342842e0e1461033a57600080fd5b806301ffc9a71461021f57806306fdde0314610254578063081812fc14610276578063095ea7b3146102ae575b600080fd5b34801561022b57600080fd5b5061023f61023a366004612c7d565b610721565b60405190151581526020015b60405180910390f35b34801561026057600080fd5b50610269610773565b60405161024b9190612cf2565b34801561028257600080fd5b50610296610291366004612d05565b610805565b6040516001600160a01b03909116815260200161024b565b3480156102ba57600080fd5b506102ce6102c9366004612d3a565b61082c565b005b3480156102dc57600080fd5b506102ce6102eb366004612da5565b610947565b3480156102fc57600080fd5b506102ce61030b366004612df8565b610a32565b34801561031c57600080fd5b50610269610a63565b34801561033157600080fd5b506102ce610af1565b34801561034657600080fd5b506102ce610355366004612df8565b610ba6565b34801561036657600080fd5b5061037a610375366004612e34565b610bc1565b60405161024b9190612e4f565b34801561039357600080fd5b506102696103a2366004612d05565b610ca1565b3480156103b357600080fd5b506103bd600e5481565b60405190815260200161024b565b3480156103d757600080fd5b506103eb6103e6366004612f3e565b610cba565b60405161024b959493929190612f72565b34801561040857600080fd5b50610296610417366004612d05565b610f9b565b34801561042857600080fd5b506103bd610437366004612e34565b610ffb565b34801561044857600080fd5b506103bd600c5481565b34801561045e57600080fd5b5061047261046d366004612fdf565b611081565b60405161024b929190613075565b34801561048c57600080fd5b506103bd61049b366004612f3e565b805160208183018101805160088252928201919093012091525481565b3480156104c457600080fd5b50600a54610296906001600160a01b031681565b3480156104e457600080fd5b50600a546001600160a01b0316331461023f565b34801561050457600080fd5b506102696114bf565b34801561051957600080fd5b506102696105283660046130ae565b6114ce565b34801561053957600080fd5b5061023f610548366004612fdf565b6116fd565b34801561055957600080fd5b506102ce6105683660046130f8565b611793565b34801561057957600080fd5b506102ce610588366004613134565b61179e565b34801561059957600080fd5b506102ce6105a8366004613160565b6117c3565b3480156105b957600080fd5b506103bd6105c8366004612fdf565b6117f5565b3480156105d957600080fd5b506102966105e8366004612fdf565b61184e565b3480156105f957600080fd5b50610269610608366004612d05565b61185d565b34801561061957600080fd5b506103bd600d5481565b34801561062f57600080fd5b5061023f61063e366004612f3e565b611b3e565b34801561064f57600080fd5b5061023f61065e3660046131db565b6001600160a01b03918216600090815260056020908152604080832093909416825291909152205460ff1690565b34801561069857600080fd5b506102ce6106a736600461320e565b611b51565b6102ce6106ba366004612fdf565b611c9c565b3480156106cb57600080fd5b506102ce6106da366004613326565b611de5565b3480156106eb57600080fd5b506106f4611fa6565b60405161024b91906133a6565b34801561070d57600080fd5b506103bd61071c366004612fdf565b6120f2565b60006001600160e01b031982166380ac58cd60e01b148061075257506001600160e01b03198216635b5e139f60e01b145b8061076d57506301ffc9a760e01b6001600160e01b03198316145b92915050565b606060008054610782906133b9565b80601f01602080910402602001604051908101604052809291908181526020018280546107ae906133b9565b80156107fb5780601f106107d0576101008083540402835291602001916107fb565b820191906000526020600020905b8154815290600101906020018083116107de57829003601f168201915b5050505050905090565b60006108108261217b565b506000908152600460205260409020546001600160a01b031690565b600061083782610f9b565b9050806001600160a01b0316836001600160a01b031614156108aa5760405162461bcd60e51b815260206004820152602160248201527f4552433732313a20617070726f76616c20746f2063757272656e74206f776e656044820152603960f91b60648201526084015b60405180910390fd5b336001600160a01b03821614806108c657506108c6813361065e565b6109385760405162461bcd60e51b815260206004820152603e60248201527f4552433732313a20617070726f76652063616c6c6572206973206e6f7420746f60448201527f6b656e206f776e6572206e6f7220617070726f76656420666f7220616c6c000060648201526084016108a1565b61094283836121dd565b505050565b600a546001600160a01b0316331461095e57600080fd5b600883836040516109709291906133ee565b90815260200160405180910390205460001461099f57604051630ea075bf60e21b815260040160405180910390fd5b6109a983836116fd565b6109ca578282604051637f19f48d60e01b81526004016108a19291906133fe565b60006109d5600b5490565b90506109e1828261224b565b60008181526007602052604090206109fa908585612b5a565b508060088585604051610a0e9291906133ee565b90815260405190819003602001902055610a2c600b80546001019055565b50505050565b610a3c3382612265565b610a585760405162461bcd60e51b81526004016108a19061342d565b6109428383836122e4565b60098054610a70906133b9565b80601f0160208091040260200160405190810160405280929190818152602001828054610a9c906133b9565b8015610ae95780601f10610abe57610100808354040283529160200191610ae9565b820191906000526020600020905b815481529060010190602001808311610acc57829003601f168201915b505050505081565b600a546001600160a01b03163314610b0857600080fd5b6040514790600090339083908381818185875af1925050503d8060008114610b4c576040519150601f19603f3d011682016040523d82523d6000602084013e610b51565b606091505b5050905080610ba25760405162461bcd60e51b815260206004820152601860248201527f4661696c656420746f2077697468647261772066756e6473000000000000000060448201526064016108a1565b5050565b610942838383604051806020016040528060008152506117c3565b60606000610bce83610ffb565b90506000816001600160401b03811115610bea57610bea612e93565b604051908082528060200260200182016040528015610c13578160200160208202803683370190505b509050600160005b8381108015610c2c5750600b548211155b15610c97576000610c3c83610f9b565b9050866001600160a01b0316816001600160a01b03161415610c845782848381518110610c6b57610c6b61347b565b602090810291909101015281610c80816134a7565b9250505b82610c8e816134a7565b93505050610c1b565b5090949350505050565b60076020526000908152604090208054610a70906133b9565b8051602081830181018051600682529282019190930120915280548190610ce0906133b9565b80601f0160208091040260200160405190810160405280929190818152602001828054610d0c906133b9565b8015610d595780601f10610d2e57610100808354040283529160200191610d59565b820191906000526020600020905b815481529060010190602001808311610d3c57829003601f168201915b505050505090806001018054610d6e906133b9565b80601f0160208091040260200160405190810160405280929190818152602001828054610d9a906133b9565b8015610de75780601f10610dbc57610100808354040283529160200191610de7565b820191906000526020600020905b815481529060010190602001808311610dca57829003601f168201915b505050505090806002018054610dfc906133b9565b80601f0160208091040260200160405190810160405280929190818152602001828054610e28906133b9565b8015610e755780601f10610e4a57610100808354040283529160200191610e75565b820191906000526020600020905b815481529060010190602001808311610e5857829003601f168201915b505050505090806003018054610e8a906133b9565b80601f0160208091040260200160405190810160405280929190818152602001828054610eb6906133b9565b8015610f035780601f10610ed857610100808354040283529160200191610f03565b820191906000526020600020905b815481529060010190602001808311610ee657829003601f168201915b505050505090806004018054610f18906133b9565b80601f0160208091040260200160405190810160405280929190818152602001828054610f44906133b9565b8015610f915780601f10610f6657610100808354040283529160200191610f91565b820191906000526020600020905b815481529060010190602001808311610f7457829003601f168201915b5050505050905085565b6000818152600260205260408120546001600160a01b03168061076d5760405162461bcd60e51b8152602060048201526018602482015277115490cdcc8c4e881a5b9d985b1a59081d1bdad95b88125160421b60448201526064016108a1565b60006001600160a01b0382166110655760405162461bcd60e51b815260206004820152602960248201527f4552433732313a2061646472657373207a65726f206973206e6f7420612076616044820152683634b21037bbb732b960b91b60648201526084016108a1565b506001600160a01b031660009081526003602052604090205490565b6060600080611090858561184e565b60408051600580825260c0820190925291925060009190816020015b60608152602001906001900390816110ac579050509050600686866040516110d59291906133ee565b90815260405190819003602001902080546110ef906133b9565b80601f016020809104026020016040519081016040528092919081815260200182805461111b906133b9565b80156111685780601f1061113d57610100808354040283529160200191611168565b820191906000526020600020905b81548152906001019060200180831161114b57829003601f168201915b5050505050816000815181106111805761118061347b565b60200260200101819052506006868660405161119d9291906133ee565b908152602001604051809103902060010180546111b9906133b9565b80601f01602080910402602001604051908101604052809291908181526020018280546111e5906133b9565b80156112325780601f1061120757610100808354040283529160200191611232565b820191906000526020600020905b81548152906001019060200180831161121557829003601f168201915b50505050508160018151811061124a5761124a61347b565b6020026020010181905250600686866040516112679291906133ee565b90815260200160405180910390206002018054611283906133b9565b80601f01602080910402602001604051908101604052809291908181526020018280546112af906133b9565b80156112fc5780601f106112d1576101008083540402835291602001916112fc565b820191906000526020600020905b8154815290600101906020018083116112df57829003601f168201915b5050505050816002815181106113145761131461347b565b6020026020010181905250600686866040516113319291906133ee565b9081526020016040518091039020600301805461134d906133b9565b80601f0160208091040260200160405190810160405280929190818152602001828054611379906133b9565b80156113c65780601f1061139b576101008083540402835291602001916113c6565b820191906000526020600020905b8154815290600101906020018083116113a957829003601f168201915b5050505050816003815181106113de576113de61347b565b6020026020010181905250600686866040516113fb9291906133ee565b90815260200160405180910390206004018054611417906133b9565b80601f0160208091040260200160405190810160405280929190818152602001828054611443906133b9565b80156114905780601f1061146557610100808354040283529160200191611490565b820191906000526020600020905b81548152906001019060200180831161147357829003601f168201915b5050505050816004815181106114a8576114a861347b565b6020908102919091010152925090505b9250929050565b606060018054610782906133b9565b606060008260048111156114e4576114e46134c2565b141561159b57600684846040516114fc9291906133ee565b9081526040519081900360200190208054611516906133b9565b80601f0160208091040260200160405190810160405280929190818152602001828054611542906133b9565b801561158f5780601f106115645761010080835404028352916020019161158f565b820191906000526020600020905b81548152906001019060200180831161157257829003601f168201915b505050505090506116f6565b60018260048111156115af576115af6134c2565b14156115e357600684846040516115c79291906133ee565b90815260200160405180910390206001018054611516906133b9565b60028260048111156115f7576115f76134c2565b141561162b576006848460405161160f9291906133ee565b90815260200160405180910390206002018054611516906133b9565b600382600481111561163f5761163f6134c2565b141561167357600684846040516116579291906133ee565b90815260200160405180910390206003018054611516906133b9565b6004826004811115611687576116876134c2565b14156116bb576006848460405161169f9291906133ee565b90815260200160405180910390206004018054611516906133b9565b60405162461bcd60e51b815260206004820152601060248201526f149958dbdc99081b9bdd08199bdd5b9960821b60448201526064016108a1565b9392505050565b6000600361174084848080601f01602080910402602001604051908101604052809392919081815260200183838082843760009201919091525061248092505050565b101580156116f65750601e61178a84848080601f01602080910402602001604051908101604052809392919081815260200183838082843760009201919091525061248092505050565b11159392505050565b610ba2338383612583565b600a546001600160a01b031633146117b557600080fd5b600c92909255600d55600e55565b6117cd3383612265565b6117e95760405162461bcd60e51b81526004016108a19061342d565b610a2c84848484612652565b6000600883836040516118099291906133ee565b9081526020016040518091039020546000141561182557600080fd5b600883836040516118379291906133ee565b908152602001604051809103902054905092915050565b60006116f661041784846117f5565b600081815260076020526040902080546060916119009161187d906133b9565b80601f01602080910402602001604051908101604052809291908181526020018280546118a9906133b9565b80156118f65780601f106118cb576101008083540402835291602001916118f6565b820191906000526020600020905b8154815290600101906020018083116118d957829003601f168201915b5050505050611b3e565b61193e5760405162461bcd60e51b815260206004820152600f60248201526e20b2323932b9b9903ab735b737bbb760891b60448201526064016108a1565b6000828152600760209081526040808320905161195e9260099101613572565b6040516020818303038152906040529050600061197a82612480565b9050600061198782612685565b905060606119ca6006600760008981526020019081526020016000206040516119b0919061359b565b908152604051908190036020019020805461187d906133b9565b15611a8c576000868152600760205260409081902090516006916119ed9161359b565b9081526040519081900360200190208054611a07906133b9565b80601f0160208091040260200160405190810160405280929190818152602001828054611a33906133b9565b8015611a805780601f10611a5557610100808354040283529160200191611a80565b820191906000526020600020905b815481529060010190602001808311611a6357829003601f168201915b50505050509050611ae2565b6000600f856010604051602001611aa5939291906135a7565b6040516020818303038152906040529050611abf81612782565b604051602001611acf91906135da565b6040516020818303038152906040529150505b6000611b10858385604051602001611afc9392919061361f565b604051602081830303815290604052612782565b905080604051602001611b2391906136f1565b60405160208183030381529060405295505050505050919050565b6000611b4982612480565b151592915050565b611b5b8b8b61184e565b6001600160a01b0316336001600160a01b031614611b8b576040516282b42960e81b815260040160405180910390fd5b8860068c8c604051611b9e9291906133ee565b90815260200160405180910390206000019080519060200190611bc2929190612bde565b50878760068d8d604051611bd79291906133ee565b90815260200160405180910390206001019190611bf5929190612b5a565b50858560068d8d604051611c0a9291906133ee565b90815260200160405180910390206002019190611c28929190612b5a565b50838360068d8d604051611c3d9291906133ee565b90815260200160405180910390206003019190611c5b929190612b5a565b50818160068d8d604051611c709291906133ee565b90815260200160405180910390206004019190611c8e929190612b5a565b505050505050505050505050565b60088282604051611cae9291906133ee565b908152602001604051809103902054600014611cdd57604051630ea075bf60e21b815260040160405180910390fd5b611ce782826116fd565b611d08578181604051637f19f48d60e01b81526004016108a19291906133fe565b604051631fc58c3360e31b8152600090309063fe2c619890611d3090869086906004016133fe565b602060405180830381865afa158015611d4d573d6000803e3d6000fd5b505050506040513d601f19601f82011682018060405250810190611d719190613736565b600a549091506001600160a01b03163314611dce5780341015611dce5760405162461bcd60e51b8152602060048201526015602482015274139bdd08195b9bdd59da08199d5b991cc81c185a59605a1b60448201526064016108a1565b6000611dd9600b5490565b90506109e1338261224b565b611def858561184e565b6001600160a01b0316336001600160a01b031614611e1f576040516282b42960e81b815260040160405180910390fd5b6000816004811115611e3357611e336134c2565b1415611e6d57828260068787604051611e4d9291906133ee565b908152604051908190036020019020611e67929091612b5a565b50611f9f565b6001816004811115611e8157611e816134c2565b1415611eb957828260068787604051611e9b9291906133ee565b90815260200160405180910390206001019190611e67929190612b5a565b6002816004811115611ecd57611ecd6134c2565b1415611f0557828260068787604051611ee79291906133ee565b90815260200160405180910390206002019190611e67929190612b5a565b6003816004811115611f1957611f196134c2565b1415611f5157828260068787604051611f339291906133ee565b90815260200160405180910390206003019190611e67929190612b5a565b6004816004811115611f6557611f656134c2565b1415611f9f57828260068787604051611f7f9291906133ee565b90815260200160405180910390206004019190611f9d929190612b5a565b505b5050505050565b606060006001611fb5600b5490565b611fbf919061374f565b6001600160401b03811115611fd657611fd6612e93565b60405190808252806020026020018201604052801561200957816020015b6060815260200190600190039081611ff45790505b50905060015b600b548110156120ec5760008181526007602052604090208054612032906133b9565b80601f016020809104026020016040519081016040528092919081815260200182805461205e906133b9565b80156120ab5780601f10612080576101008083540402835291602001916120ab565b820191906000526020600020905b81548152906001019060200180831161208e57829003601f168201915b5050505050826001836120be919061374f565b815181106120ce576120ce61347b565b602002602001018190525080806120e4906134a7565b91505061200f565b50919050565b60008061213484848080601f01602080910402602001604051908101604052809392919081815260200183838082843760009201919091525061248092505050565b90506000811161214357600080fd5b8060031415612156575050600c5461076d565b60068111612168575050600d5461076d565b5050600e5461076d565b80546001019055565b6000818152600260205260409020546001600160a01b03166121da5760405162461bcd60e51b8152602060048201526018602482015277115490cdcc8c4e881a5b9d985b1a59081d1bdad95b88125160421b60448201526064016108a1565b50565b600081815260046020526040902080546001600160a01b0319166001600160a01b038416908117909155819061221282610f9b565b6001600160a01b03167f8c5be1e5ebec7d5bd14f71427d1e84f3dd0314c0f7b2291e5b200ac8c7c3b92560405160405180910390a45050565b610ba28282604051806020016040528060008152506128e7565b60008061227183610f9b565b9050806001600160a01b0316846001600160a01b031614806122b857506001600160a01b0380821660009081526005602090815260408083209388168352929052205460ff165b806122dc5750836001600160a01b03166122d184610805565b6001600160a01b0316145b949350505050565b826001600160a01b03166122f782610f9b565b6001600160a01b03161461235b5760405162461bcd60e51b815260206004820152602560248201527f4552433732313a207472616e736665722066726f6d20696e636f72726563742060448201526437bbb732b960d91b60648201526084016108a1565b6001600160a01b0382166123bd5760405162461bcd60e51b8152602060048201526024808201527f4552433732313a207472616e7366657220746f20746865207a65726f206164646044820152637265737360e01b60648201526084016108a1565b6123c86000826121dd565b6001600160a01b03831660009081526003602052604081208054600192906123f190849061374f565b90915550506001600160a01b038216600090815260036020526040812080546001929061241f908490613766565b909155505060008181526002602052604080822080546001600160a01b0319166001600160a01b0386811691821790925591518493918716917fddf252ad1be2c89b69c2b068fc378daa952ba7f163c4a11628f55a4df523b3ef91a4505050565b8051600090819081905b8082101561257a5760008583815181106124a6576124a661347b565b01602001516001600160f81b0319169050600160ff1b8110156124d5576124ce600184613766565b9250612567565b600760fd1b6001600160f81b0319821610156124f6576124ce600284613766565b600f60fc1b6001600160f81b031982161015612517576124ce600384613766565b601f60fb1b6001600160f81b031982161015612538576124ce600484613766565b603f60fa1b6001600160f81b031982161015612559576124ce600584613766565b612564600684613766565b92505b5082612572816134a7565b93505061248a565b50909392505050565b816001600160a01b0316836001600160a01b031614156125e55760405162461bcd60e51b815260206004820152601960248201527f4552433732313a20617070726f766520746f2063616c6c65720000000000000060448201526064016108a1565b6001600160a01b03838116600081815260056020908152604080832094871680845294825291829020805460ff191686151590811790915591519182527f17307eab39ab6107e8899845ad3d59bd9653f200f220920489ca2b5937696c31910160405180910390a3505050565b61265d8484846122e4565b6126698484848461291a565b610a2c5760405162461bcd60e51b81526004016108a19061377e565b6060816126a95750506040805180820190915260018152600360fc1b602082015290565b8160005b81156126d357806126bd816134a7565b91506126cc9050600a836137e6565b91506126ad565b6000816001600160401b038111156126ed576126ed612e93565b6040519080825280601f01601f191660200182016040528015612717576020820181803683370190505b5090505b84156122dc5761272c60018361374f565b9150612739600a866137fa565b612744906030613766565b60f81b8183815181106127595761275961347b565b60200101906001600160f81b031916908160001a90535061277b600a866137e6565b945061271b565b8051606090806127a2575050604080516020810190915260008152919050565b600060036127b1836002613766565b6127bb91906137e6565b6127c690600461380e565b905060006127d5826020613766565b6001600160401b038111156127ec576127ec612e93565b6040519080825280601f01601f191660200182016040528015612816576020820181803683370190505b5090506000604051806060016040528060408152602001613888604091399050600181016020830160005b868110156128a2576003818a01810151603f601282901c8116860151600c83901c8216870151600684901c831688015192909316870151600891821b60ff94851601821b92841692909201901b91160160e01b835260049092019101612841565b5060038606600181146128bc57600281146128cd576128d9565b613d3d60f01b6001198301526128d9565b603d60f81b6000198301525b505050918152949350505050565b6128f18383612a18565b6128fe600084848461291a565b6109425760405162461bcd60e51b81526004016108a19061377e565b60006001600160a01b0384163b15612a0d57604051630a85bd0160e11b81526001600160a01b0385169063150b7a029061295e90339089908890889060040161382d565b6020604051808303816000875af1925050508015612999575060408051601f3d908101601f191682019092526129969181019061386a565b60015b6129f3573d8080156129c7576040519150601f19603f3d011682016040523d82523d6000602084013e6129cc565b606091505b5080516129eb5760405162461bcd60e51b81526004016108a19061377e565b805181602001fd5b6001600160e01b031916630a85bd0160e11b1490506122dc565b506001949350505050565b6001600160a01b038216612a6e5760405162461bcd60e51b815260206004820181905260248201527f4552433732313a206d696e7420746f20746865207a65726f206164647265737360448201526064016108a1565b6000818152600260205260409020546001600160a01b031615612ad35760405162461bcd60e51b815260206004820152601c60248201527f4552433732313a20746f6b656e20616c7265616479206d696e7465640000000060448201526064016108a1565b6001600160a01b0382166000908152600360205260408120805460019290612afc908490613766565b909155505060008181526002602052604080822080546001600160a01b0319166001600160a01b03861690811790915590518392907fddf252ad1be2c89b69c2b068fc378daa952ba7f163c4a11628f55a4df523b3ef908290a45050565b828054612b66906133b9565b90600052602060002090601f016020900481019282612b885760008555612bce565b82601f10612ba15782800160ff19823516178555612bce565b82800160010185558215612bce579182015b82811115612bce578235825591602001919060010190612bb3565b50612bda929150612c52565b5090565b828054612bea906133b9565b90600052602060002090601f016020900481019282612c0c5760008555612bce565b82601f10612c2557805160ff1916838001178555612bce565b82800160010185558215612bce579182015b82811115612bce578251825591602001919060010190612c37565b5b80821115612bda5760008155600101612c53565b6001600160e01b0319811681146121da57600080fd5b600060208284031215612c8f57600080fd5b81356116f681612c67565b60005b83811015612cb5578181015183820152602001612c9d565b83811115610a2c5750506000910152565b60008151808452612cde816020860160208601612c9a565b601f01601f19169290920160200192915050565b6020815260006116f66020830184612cc6565b600060208284031215612d1757600080fd5b5035919050565b80356001600160a01b0381168114612d3557600080fd5b919050565b60008060408385031215612d4d57600080fd5b612d5683612d1e565b946020939093013593505050565b60008083601f840112612d7657600080fd5b5081356001600160401b03811115612d8d57600080fd5b6020830191508360208285010111156114b857600080fd5b600080600060408486031215612dba57600080fd5b83356001600160401b03811115612dd057600080fd5b612ddc86828701612d64565b9094509250612def905060208501612d1e565b90509250925092565b600080600060608486031215612e0d57600080fd5b612e1684612d1e565b9250612e2460208501612d1e565b9150604084013590509250925092565b600060208284031215612e4657600080fd5b6116f682612d1e565b6020808252825182820181905260009190848201906040850190845b81811015612e8757835183529284019291840191600101612e6b565b50909695505050505050565b634e487b7160e01b600052604160045260246000fd5b60006001600160401b0380841115612ec357612ec3612e93565b604051601f8501601f19908116603f01168101908282118183101715612eeb57612eeb612e93565b81604052809350858152868686011115612f0457600080fd5b858560208301376000602087830101525050509392505050565b600082601f830112612f2f57600080fd5b6116f683833560208501612ea9565b600060208284031215612f5057600080fd5b81356001600160401b03811115612f6657600080fd5b6122dc84828501612f1e565b60a081526000612f8560a0830188612cc6565b8281036020840152612f978188612cc6565b90508281036040840152612fab8187612cc6565b90508281036060840152612fbf8186612cc6565b90508281036080840152612fd38185612cc6565b98975050505050505050565b60008060208385031215612ff257600080fd5b82356001600160401b0381111561300857600080fd5b61301485828601612d64565b90969095509350505050565b600081518084526020808501808196508360051b8101915082860160005b85811015613068578284038952613056848351612cc6565b9885019893509084019060010161303e565b5091979650505050505050565b6040815260006130886040830185613020565b905060018060a01b03831660208301529392505050565b803560058110612d3557600080fd5b6000806000604084860312156130c357600080fd5b83356001600160401b038111156130d957600080fd5b6130e586828701612d64565b9094509250612def90506020850161309f565b6000806040838503121561310b57600080fd5b61311483612d1e565b91506020830135801515811461312957600080fd5b809150509250929050565b60008060006060848603121561314957600080fd5b505081359360208301359350604090920135919050565b6000806000806080858703121561317657600080fd5b61317f85612d1e565b935061318d60208601612d1e565b92506040850135915060608501356001600160401b038111156131af57600080fd5b8501601f810187136131c057600080fd5b6131cf87823560208401612ea9565b91505092959194509250565b600080604083850312156131ee57600080fd5b6131f783612d1e565b915061320560208401612d1e565b90509250929050565b600080600080600080600080600080600060c08c8e03121561322f57600080fd5b6001600160401b03808d35111561324557600080fd5b6132528e8e358f01612d64565b909c509a5060208d013581101561326857600080fd5b6132788e60208f01358f01612f1e565b99508060408e0135111561328b57600080fd5b61329b8e60408f01358f01612d64565b909950975060608d01358110156132b157600080fd5b6132c18e60608f01358f01612d64565b909750955060808d01358110156132d757600080fd5b6132e78e60808f01358f01612d64565b909550935060a08d01358110156132fd57600080fd5b5061330e8d60a08e01358e01612d64565b81935080925050509295989b509295989b9093969950565b60008060008060006060868803121561333e57600080fd5b85356001600160401b038082111561335557600080fd5b61336189838a01612d64565b9097509550602088013591508082111561337a57600080fd5b5061338788828901612d64565b909450925061339a90506040870161309f565b90509295509295909350565b6020815260006116f66020830184613020565b600181811c908216806133cd57607f821691505b602082108114156120ec57634e487b7160e01b600052602260045260246000fd5b8183823760009101908152919050565b60208152816020820152818360408301376000818301604090810191909152601f909201601f19160101919050565b6020808252602e908201527f4552433732313a2063616c6c6572206973206e6f7420746f6b656e206f776e6560408201526d1c881b9bdc88185c1c1c9bdd995960921b606082015260800190565b634e487b7160e01b600052603260045260246000fd5b634e487b7160e01b600052601160045260246000fd5b60006000198214156134bb576134bb613491565b5060010190565b634e487b7160e01b600052602160045260246000fd5b8054600090600181811c90808316806134f257607f831692505b602080841082141561351457634e487b7160e01b600052602260045260246000fd5b818015613528576001811461353957613566565b60ff19861689528489019650613566565b60008881526020902060005b8681101561355e5781548b820152908501908301613545565b505084890196505b50505050505092915050565b600061357e82856134d8565b601760f91b815261359260018201856134d8565b95945050505050565b60006116f682846134d8565b60006135b382866134d8565b84516135c3818360208901612c9a565b6135cf818301866134d8565b979650505050505050565b7f646174613a696d6167652f7376672b786d6c3b6261736536342c00000000000081526000825161361281601a850160208701612c9a565b91909101601a0192915050565b693d913730b6b2911d101160b11b8152835160009061364581600a850160208901612c9a565b7f222c20226465736372697074696f6e223a20224120646f6d61696e206f6e2074600a918401918201527f686520584443206e616d652073657276696365222c2022696d616765223a2022602a82015284516136a881604a840160208901612c9a565b6b1116113632b733ba34111d1160a11b604a929091019182015283516136d5816056840160208801612c9a565b61227d60f01b6056929091019182015260580195945050505050565b7f646174613a6170706c69636174696f6e2f6a736f6e3b6261736536342c00000081526000825161372981601d850160208701612c9a565b91909101601d0192915050565b60006020828403121561374857600080fd5b5051919050565b60008282101561376157613761613491565b500390565b6000821982111561377957613779613491565b500190565b60208082526032908201527f4552433732313a207472616e7366657220746f206e6f6e20455243373231526560408201527131b2b4bb32b91034b6b83632b6b2b73a32b960711b606082015260800190565b634e487b7160e01b600052601260045260246000fd5b6000826137f5576137f56137d0565b500490565b600082613809576138096137d0565b500690565b600081600019048311821515161561382857613828613491565b500290565b6001600160a01b038581168252841660208201526040810183905260806060820181905260009061386090830184612cc6565b9695505050505050565b60006020828403121561387c57600080fd5b81516116f681612c6756fe4142434445464748494a4b4c4d4e4f505152535455565758595a6162636465666768696a6b6c6d6e6f707172737475767778797a303132333435363738392b2fa2646970667358221220e5a30b005ee93758db3293d7feca9abf2fddb5746381d31ece27219a50f6e10d64736f6c634300080a00333c73766720786d6c6e733d22687474703a2f2f7777772e77332e6f72672f323030302f737667222077696474683d2232373022206865696768743d22323730222066696c6c3d226e6f6e65223e203c706174682066696c6c3d2275726c282342292220643d224d302030683237307632373048307a222f3e3c646566733e3c66696c7465722069643d22412220636f6c6f722d696e746572706f6c6174696f6e2d66696c746572733d2273524742222066696c746572556e6974733d227573657253706163654f6e55736522206865696768743d22323730222077696474683d22323730223e3c666544726f70536861646f772064783d2230222064793d22312220737464446576696174696f6e3d22322220666c6f6f642d6f7061636974793d222e323235222077696474683d223230302522206865696768743d2232303025222f3e3c2f66696c7465723e3c2f646566733e3c7061746820636c6173734e616d653d227374302220643d224d3237302e332c3237302e3348305631382e3743302c382e342c382e342c302c31382e372c30683233336331302e332c302c31382e372c382e342c31382e372c31382e37763235312e36483237302e337a222f3e3c673e20203c7061746820636c6173734e616d653d22737431222066696c6c3d22236666662220643d224d36332e342c3131322e32632d332d302e362d362e312d312d382e392d312e394333382c3130342e372c32382c39332e352c32342e362c37362e34632d302e322d312e312d302e332d322e322d302e352d332e3420202063322e352d312e352c342e382d322e392c372e332d342e35632d322e342d312e352d342e372d322e392d372e322d342e3463302e382d382e322c332e392d31352e362c392d323263372e332d392e312c31362e382d31342e352c32382e332d31366332362e392d332e332c34362e352c31372e322c34382e332c33372e38202020632d322e342c312e342d342e382c322e392d372e352c342e3563322e362c312e362c352c332e312c372e352c342e36632d302e312c332e332d302e382c362e352d312e392c392e36433130322e382c39372e362c39322e342c3130372c37372e322c313131632d322e322c302e362d342e342c302e382d362e362c312e322020204336382e322c3131322e322c36352e382c3131322e322c36332e342c3131322e327a204d32372e352c36322e3963332e322c312e392c362e342c332e382c392e382c352e38632d332e342c322d362e362c332e392d392e392c352e3963302e392c372e352c332e392c31342e312c382e362c31392e3920202063372e362c392e322c31372e352c31342e332c32392e352c31342e386332312e382c312c33392e332d31352e362c34312e352d33342e35632d332e332d322d362e372d342d31302e322d362e3163332e352d322e312c362e382d342c31302e312d352e39632d322d31362e382d31382d33342e382d34312d33342020204334322e392c32392e352c32392c34382c32372e352c36322e397a222f3e20203c7061746820636c6173734e616d653d22737431222066696c6c3d22236666662220643d224d35332e322c35322e3563322e322c302c342e312c302c362e312c3063322e352c342c352c372e392c372e362c31322e3163322e352d342e322c342e392d382e312c372e332d313263312e382c302c332e362c302c352e362c30202020632d332e352c352e352d362e392c31302e382d31302e332c31362e3263332e342c352e342c362e382c31302e392c31302e342c31362e35632d322e312c302d342c302d362e312c30632d322e342d332e392d342e392d372e392d372e362d31322e31632d322e352c342e322d342e392c382e312d372e332c31322e31202020632d312e382c302d332e352c302d352e362c3063332e352d352e352c362e392d31302e382c31302e342d31362e324336302e322c36332e352c35362e382c35382e312c35332e322c35322e357a222f3e20203c2f673e3c646566733e3c6c696e6561724772616469656e742069643d2242222078313d2230222079313d2230222078323d22323730222079323d2232373022206772616469656e74556e6974733d227573657253706163654f6e557365223e3c73746f702073746f702d636f6c6f723d2223354642324433222f3e3c73746f70206f66667365743d2231222073746f702d636f6c6f723d2223453142413641222073746f702d6f7061636974793d222e3939222f3e3c2f6c696e6561724772616469656e743e3c2f646566733e3c7465787420783d2233322e352220793d223233312220666f6e742d73697a653d223237222066696c6c3d2223666666222066696c7465723d2275726c282341292220666f6e742d66616d696c793d22506c7573204a616b617274612053616e732c44656a6156752053616e732c4e6f746f20436f6c6f7220456d6f6a692c4170706c6520436f6c6f7220456d6f6a692c73616e732d73657269662220666f6e742d7765696768743d22626f6c64223e",
			"opcodes": "PUSH2 0x7E0 PUSH1 0x40 MSTORE PUSH2 0x72B PUSH1 0x80 DUP2 DUP2 MSTORE SWAP1 PUSH3 0x3C51 PUSH1 0xA0 CODECOPY DUP1 MLOAD PUSH3 0x2B SWAP2 PUSH1 0xF SWAP2 PUSH1 0x20 SWAP1 SWAP2 ADD SWAP1 PUSH3 0x153 JUMP JUMPDEST POP PUSH1 0x40 DUP1 MLOAD DUP1 DUP3 ADD SWAP1 SWAP2 MSTORE PUSH1 0xD DUP1 DUP3 MSTORE PUSH13 0x1E17BA32BC3A1F1E17B9BB339F PUSH1 0x99 SHL PUSH1 0x20 SWAP1 SWAP3 ADD SWAP2 DUP3 MSTORE PUSH3 0x62 SWAP2 PUSH1 0x10 SWAP2 PUSH3 0x153 JUMP JUMPDEST POP PUSH1 0x40 MLOAD PUSH3 0x437C CODESIZE SUB DUP1 PUSH3 0x437C DUP4 CODECOPY DUP2 ADD PUSH1 0x40 DUP2 SWAP1 MSTORE PUSH3 0x85 SWAP2 PUSH3 0x20F JUMP JUMPDEST PUSH1 0x40 DUP1 MLOAD DUP1 DUP3 ADD DUP3 MSTORE PUSH1 0x10 DUP2 MSTORE PUSH16 0x584443204E616D652053657276696365 PUSH1 0x80 SHL PUSH1 0x20 DUP1 DUP4 ADD SWAP2 DUP3 MSTORE DUP4 MLOAD DUP1 DUP6 ADD SWAP1 SWAP5 MSTORE PUSH1 0x3 DUP5 MSTORE PUSH3 0x584E53 PUSH1 0xE8 SHL SWAP1 DUP5 ADD MSTORE DUP2 MLOAD SWAP2 SWAP3 SWAP2 PUSH3 0xD8 SWAP2 PUSH1 0x0 SWAP2 PUSH3 0x153 JUMP JUMPDEST POP DUP1 MLOAD PUSH3 0xEE SWAP1 PUSH1 0x1 SWAP1 PUSH1 0x20 DUP5 ADD SWAP1 PUSH3 0x153 JUMP JUMPDEST POP POP PUSH1 0xA DUP1 SLOAD PUSH1 0x1 PUSH1 0x1 PUSH1 0xA0 SHL SUB NOT AND CALLER OR SWAP1 SSTORE POP DUP4 MLOAD PUSH3 0x118 SWAP1 PUSH1 0x9 SWAP1 PUSH1 0x20 DUP8 ADD SWAP1 PUSH3 0x153 JUMP JUMPDEST POP PUSH1 0xC DUP4 SWAP1 SSTORE PUSH1 0xD DUP3 SWAP1 SSTORE PUSH1 0xE DUP2 SWAP1 SSTORE PUSH3 0x140 PUSH1 0xB PUSH3 0x14A PUSH1 0x20 SWAP1 DUP2 SHL PUSH3 0x2172 OR SWAP1 SHR JUMP JUMPDEST POP POP POP POP PUSH3 0x344 JUMP JUMPDEST DUP1 SLOAD PUSH1 0x1 ADD SWAP1 SSTORE JUMP JUMPDEST DUP3 DUP1 SLOAD PUSH3 0x161 SWAP1 PUSH3 0x307 JUMP JUMPDEST SWAP1 PUSH1 0x0 MSTORE PUSH1 0x20 PUSH1 0x0 KECCAK256 SWAP1 PUSH1 0x1F ADD PUSH1 0x20 SWAP1 DIV DUP2 ADD SWAP3 DUP3 PUSH3 0x185 JUMPI PUSH1 0x0 DUP6 SSTORE PUSH3 0x1D0 JUMP JUMPDEST DUP3 PUSH1 0x1F LT PUSH3 0x1A0 JUMPI DUP1 MLOAD PUSH1 0xFF NOT AND DUP4 DUP1 ADD OR DUP6 SSTORE PUSH3 0x1D0 JUMP JUMPDEST DUP3 DUP1 ADD PUSH1 0x1 ADD DUP6 SSTORE DUP3 ISZERO PUSH3 0x1D0 JUMPI SWAP2 DUP3 ADD JUMPDEST DUP3 DUP2 GT ISZERO PUSH3 0x1D0 JUMPI DUP3 MLOAD DUP3 SSTORE SWAP2 PUSH1 0x20 ADD SWAP2 SWAP1 PUSH1 0x1 ADD SWAP1 PUSH3 0x1B3 JUMP JUMPDEST POP PUSH3 0x1DE SWAP3 SWAP2 POP PUSH3 0x1E2 JUMP JUMPDEST POP SWAP1 JUMP JUMPDEST JUMPDEST DUP1 DUP3 GT ISZERO PUSH3 0x1DE JUMPI PUSH1 0x0 DUP2 SSTORE PUSH1 0x1 ADD PUSH3 0x1E3 JUMP JUMPDEST PUSH4 0x4E487B71 PUSH1 0xE0 SHL PUSH1 0x0 MSTORE PUSH1 0x41 PUSH1 0x4 MSTORE PUSH1 0x24 PUSH1 0x0 REVERT JUMPDEST PUSH1 0x0 DUP1 PUSH1 0x0 DUP1 PUSH1 0x80 DUP6 DUP8 SUB SLT ISZERO PUSH3 0x226 JUMPI PUSH1 0x0 DUP1 REVERT JUMPDEST DUP5 MLOAD PUSH1 0x1 PUSH1 0x1 PUSH1 0x40 SHL SUB DUP1 DUP3 GT ISZERO PUSH3 0x23E JUMPI PUSH1 0x0 DUP1 REVERT JUMPDEST DUP2 DUP8 ADD SWAP2 POP DUP8 PUSH1 0x1F DUP4 ADD SLT PUSH3 0x253 JUMPI PUSH1 0x0 DUP1 REVERT JUMPDEST DUP2 MLOAD DUP2 DUP2 GT ISZERO PUSH3 0x268 JUMPI PUSH3 0x268 PUSH3 0x1F9 JUMP JUMPDEST PUSH1 0x40 MLOAD PUSH1 0x1F DUP3 ADD PUSH1 0x1F NOT SWAP1 DUP2 AND PUSH1 0x3F ADD AND DUP2 ADD SWAP1 DUP4 DUP3 GT DUP2 DUP4 LT OR ISZERO PUSH3 0x293 JUMPI PUSH3 0x293 PUSH3 0x1F9 JUMP JUMPDEST DUP2 PUSH1 0x40 MSTORE DUP3 DUP2 MSTORE PUSH1 0x20 SWAP4 POP DUP11 DUP5 DUP5 DUP8 ADD ADD GT ISZERO PUSH3 0x2B0 JUMPI PUSH1 0x0 DUP1 REVERT JUMPDEST PUSH1 0x0 SWAP2 POP JUMPDEST DUP3 DUP3 LT ISZERO PUSH3 0x2D4 JUMPI DUP5 DUP3 ADD DUP5 ADD MLOAD DUP2 DUP4 ADD DUP6 ADD MSTORE SWAP1 DUP4 ADD SWAP1 PUSH3 0x2B5 JUMP JUMPDEST DUP3 DUP3 GT ISZERO PUSH3 0x2E6 JUMPI PUSH1 0x0 DUP5 DUP5 DUP4 ADD ADD MSTORE JUMPDEST SWAP3 DUP10 ADD MLOAD PUSH1 0x40 DUP11 ADD MLOAD PUSH1 0x60 SWAP1 SWAP11 ADD MLOAD SWAP4 SWAP12 SWAP1 SWAP11 POP SWAP3 SWAP8 POP SWAP2 SWAP6 POP POP POP POP POP POP JUMP JUMPDEST PUSH1 0x1 DUP2 DUP2 SHR SWAP1 DUP3 AND DUP1 PUSH3 0x31C JUMPI PUSH1 0x7F DUP3 AND SWAP2 POP JUMPDEST PUSH1 0x20 DUP3 LT DUP2 EQ ISZERO PUSH3 0x33E JUMPI PUSH4 0x4E487B71 PUSH1 0xE0 SHL PUSH1 0x0 MSTORE PUSH1 0x22 PUSH1 0x4 MSTORE PUSH1 0x24 PUSH1 0x0 REVERT JUMPDEST POP SWAP2 SWAP1 POP JUMP JUMPDEST PUSH2 0x38FD DUP1 PUSH3 0x354 PUSH1 0x0 CODECOPY PUSH1 0x0 RETURN INVALID PUSH1 0x80 PUSH1 0x40 MSTORE PUSH1 0x4 CALLDATASIZE LT PUSH2 0x21A JUMPI PUSH1 0x0 CALLDATALOAD PUSH1 0xE0 SHR DUP1 PUSH4 0x8DA5CB5B GT PUSH2 0x123 JUMPI DUP1 PUSH4 0xBF40FAC1 GT PUSH2 0xAB JUMPI DUP1 PUSH4 0xF0F19346 GT PUSH2 0x6F JUMPI DUP1 PUSH4 0xF0F19346 EQ PUSH2 0x68C JUMPI DUP1 PUSH4 0xF2C298BE EQ PUSH2 0x6AC JUMPI DUP1 PUSH4 0xF5064FD0 EQ PUSH2 0x6BF JUMPI DUP1 PUSH4 0xFB825E5F EQ PUSH2 0x6DF JUMPI DUP1 PUSH4 0xFE2C6198 EQ PUSH2 0x701 JUMPI PUSH1 0x0 DUP1 REVERT JUMPDEST DUP1 PUSH4 0xBF40FAC1 EQ PUSH2 0x5CD JUMPI DUP1 PUSH4 0xC87B56DD EQ PUSH2 0x5ED JUMPI DUP1 PUSH4 0xD7E915D5 EQ PUSH2 0x60D JUMPI DUP1 PUSH4 0xE327AD61 EQ PUSH2 0x623 JUMPI DUP1 PUSH4 0xE985E9C5 EQ PUSH2 0x643 JUMPI PUSH1 0x0 DUP1 REVERT JUMPDEST DUP1 PUSH4 0x9791C097 GT PUSH2 0xF2 JUMPI DUP1 PUSH4 0x9791C097 EQ PUSH2 0x52D JUMPI DUP1 PUSH4 0xA22CB465 EQ PUSH2 0x54D JUMPI DUP1 PUSH4 0xAA585D56 EQ PUSH2 0x56D JUMPI DUP1 PUSH4 0xB88D4FDE EQ PUSH2 0x58D JUMPI DUP1 PUSH4 0xBEE51F3B EQ PUSH2 0x5AD JUMPI PUSH1 0x0 DUP1 REVERT JUMPDEST DUP1 PUSH4 0x8DA5CB5B EQ PUSH2 0x4B8 JUMPI DUP1 PUSH4 0x8F32D59B EQ PUSH2 0x4D8 JUMPI DUP1 PUSH4 0x95D89B41 EQ PUSH2 0x4F8 JUMPI DUP1 PUSH4 0x9751E9F1 EQ PUSH2 0x50D JUMPI PUSH1 0x0 DUP1 REVERT JUMPDEST DUP1 PUSH4 0x438B6300 GT PUSH2 0x1A6 JUMPI DUP1 PUSH4 0x6352211E GT PUSH2 0x175 JUMPI DUP1 PUSH4 0x6352211E EQ PUSH2 0x3FC JUMPI DUP1 PUSH4 0x70A08231 EQ PUSH2 0x41C JUMPI DUP1 PUSH4 0x8600C8B2 EQ PUSH2 0x43C JUMPI DUP1 PUSH4 0x86E80B71 EQ PUSH2 0x452 JUMPI DUP1 PUSH4 0x8A08677D EQ PUSH2 0x480 JUMPI PUSH1 0x0 DUP1 REVERT JUMPDEST DUP1 PUSH4 0x438B6300 EQ PUSH2 0x35A JUMPI DUP1 PUSH4 0x4622AB03 EQ PUSH2 0x387 JUMPI DUP1 PUSH4 0x4E82DC89 EQ PUSH2 0x3A7 JUMPI DUP1 PUSH4 0x541E771D EQ PUSH2 0x3CB JUMPI PUSH1 0x0 DUP1 REVERT JUMPDEST DUP1 PUSH4 0x15BF7227 GT PUSH2 0x1ED JUMPI DUP1 PUSH4 0x15BF7227 EQ PUSH2 0x2D0 JUMPI DUP1 PUSH4 0x23B872DD EQ PUSH2 0x2F0 JUMPI DUP1 PUSH4 0x2D551432 EQ PUSH2 0x310 JUMPI DUP1 PUSH4 0x3CCFD60B EQ PUSH2 0x325 JUMPI DUP1 PUSH4 0x42842E0E EQ PUSH2 0x33A JUMPI PUSH1 0x0 DUP1 REVERT JUMPDEST DUP1 PUSH4 0x1FFC9A7 EQ PUSH2 0x21F JUMPI DUP1 PUSH4 0x6FDDE03 EQ PUSH2 0x254 JUMPI DUP1 PUSH4 0x81812FC EQ PUSH2 0x276 JUMPI DUP1 PUSH4 0x95EA7B3 EQ PUSH2 0x2AE JUMPI JUMPDEST PUSH1 0x0 DUP1 REVERT JUMPDEST CALLVALUE DUP1 ISZERO PUSH2 0x22B JUMPI PUSH1 0x0 DUP1 REVERT JUMPDEST POP PUSH2 0x23F PUSH2 0x23A CALLDATASIZE PUSH1 0x4 PUSH2 0x2C7D JUMP JUMPDEST PUSH2 0x721 JUMP JUMPDEST PUSH1 0x40 MLOAD SWAP1 ISZERO ISZERO DUP2 MSTORE PUSH1 0x20 ADD JUMPDEST PUSH1 0x40 MLOAD DUP1 SWAP2 SUB SWAP1 RETURN JUMPDEST CALLVALUE DUP1 ISZERO PUSH2 0x260 JUMPI PUSH1 0x0 DUP1 REVERT JUMPDEST POP PUSH2 0x269 PUSH2 0x773 JUMP JUMPDEST PUSH1 0x40 MLOAD PUSH2 0x24B SWAP2 SWAP1 PUSH2 0x2CF2 JUMP JUMPDEST CALLVALUE DUP1 ISZERO PUSH2 0x282 JUMPI PUSH1 0x0 DUP1 REVERT JUMPDEST POP PUSH2 0x296 PUSH2 0x291 CALLDATASIZE PUSH1 0x4 PUSH2 0x2D05 JUMP JUMPDEST PUSH2 0x805 JUMP JUMPDEST PUSH1 0x40 MLOAD PUSH1 0x1 PUSH1 0x1 PUSH1 0xA0 SHL SUB SWAP1 SWAP2 AND DUP2 MSTORE PUSH1 0x20 ADD PUSH2 0x24B JUMP JUMPDEST CALLVALUE DUP1 ISZERO PUSH2 0x2BA JUMPI PUSH1 0x0 DUP1 REVERT JUMPDEST POP PUSH2 0x2CE PUSH2 0x2C9 CALLDATASIZE PUSH1 0x4 PUSH2 0x2D3A JUMP JUMPDEST PUSH2 0x82C JUMP JUMPDEST STOP JUMPDEST CALLVALUE DUP1 ISZERO PUSH2 0x2DC JUMPI PUSH1 0x0 DUP1 REVERT JUMPDEST POP PUSH2 0x2CE PUSH2 0x2EB CALLDATASIZE PUSH1 0x4 PUSH2 0x2DA5 JUMP JUMPDEST PUSH2 0x947 JUMP JUMPDEST CALLVALUE DUP1 ISZERO PUSH2 0x2FC JUMPI PUSH1 0x0 DUP1 REVERT JUMPDEST POP PUSH2 0x2CE PUSH2 0x30B CALLDATASIZE PUSH1 0x4 PUSH2 0x2DF8 JUMP JUMPDEST PUSH2 0xA32 JUMP JUMPDEST CALLVALUE DUP1 ISZERO PUSH2 0x31C JUMPI PUSH1 0x0 DUP1 REVERT JUMPDEST POP PUSH2 0x269 PUSH2 0xA63 JUMP JUMPDEST CALLVALUE DUP1 ISZERO PUSH2 0x331 JUMPI PUSH1 0x0 DUP1 REVERT JUMPDEST POP PUSH2 0x2CE PUSH2 0xAF1 JUMP JUMPDEST CALLVALUE DUP1 ISZERO PUSH2 0x346 JUMPI PUSH1 0x0 DUP1 REVERT JUMPDEST POP PUSH2 0x2CE PUSH2 0x355 CALLDATASIZE PUSH1 0x4 PUSH2 0x2DF8 JUMP JUMPDEST PUSH2 0xBA6 JUMP JUMPDEST CALLVALUE DUP1 ISZERO PUSH2 0x366 JUMPI PUSH1 0x0 DUP1 REVERT JUMPDEST POP PUSH2 0x37A PUSH2 0x375 CALLDATASIZE PUSH1 0x4 PUSH2 0x2E34 JUMP JUMPDEST PUSH2 0xBC1 JUMP JUMPDEST PUSH1 0x40 MLOAD PUSH2 0x24B SWAP2 SWAP1 PUSH2 0x2E4F JUMP JUMPDEST CALLVALUE DUP1 ISZERO PUSH2 0x393 JUMPI PUSH1 0x0 DUP1 REVERT JUMPDEST POP PUSH2 0x269 PUSH2 0x3A2 CALLDATASIZE PUSH1 0x4 PUSH2 0x2D05 JUMP JUMPDEST PUSH2 0xCA1 JUMP JUMPDEST CALLVALUE DUP1 ISZERO PUSH2 0x3B3 JUMPI PUSH1 0x0 DUP1 REVERT JUMPDEST POP PUSH2 0x3BD PUSH1 0xE SLOAD DUP2 JUMP JUMPDEST PUSH1 0x40 MLOAD SWAP1 DUP2 MSTORE PUSH1 0x20 ADD PUSH2 0x24B JUMP JUMPDEST CALLVALUE DUP1 ISZERO PUSH2 0x3D7 JUMPI PUSH1 0x0 DUP1 REVERT JUMPDEST POP PUSH2 0x3EB PUSH2 0x3E6 CALLDATASIZE PUSH1 0x4 PUSH2 0x2F3E JUMP JUMPDEST PUSH2 0xCBA JUMP JUMPDEST PUSH1 0x40 MLOAD PUSH2 0x24B SWAP6 SWAP5 SWAP4 SWAP3 SWAP2 SWAP1 PUSH2 0x2F72 JUMP JUMPDEST CALLVALUE DUP1 ISZERO PUSH2 0x408 JUMPI PUSH1 0x0 DUP1 REVERT JUMPDEST POP PUSH2 0x296 PUSH2 0x417 CALLDATASIZE PUSH1 0x4 PUSH2 0x2D05 JUMP JUMPDEST PUSH2 0xF9B JUMP JUMPDEST CALLVALUE DUP1 ISZERO PUSH2 0x428 JUMPI PUSH1 0x0 DUP1 REVERT JUMPDEST POP PUSH2 0x3BD PUSH2 0x437 CALLDATASIZE PUSH1 0x4 PUSH2 0x2E34 JUMP JUMPDEST PUSH2 0xFFB JUMP JUMPDEST CALLVALUE DUP1 ISZERO PUSH2 0x448 JUMPI PUSH1 0x0 DUP1 REVERT JUMPDEST POP PUSH2 0x3BD PUSH1 0xC SLOAD DUP2 JUMP JUMPDEST CALLVALUE DUP1 ISZERO PUSH2 0x45E JUMPI PUSH1 0x0 DUP1 REVERT JUMPDEST POP PUSH2 0x472 PUSH2 0x46D CALLDATASIZE PUSH1 0x4 PUSH2 0x2FDF JUMP JUMPDEST PUSH2 0x1081 JUMP JUMPDEST PUSH1 0x40 MLOAD PUSH2 0x24B SWAP3 SWAP2 SWAP1 PUSH2 0x3075 JUMP JUMPDEST CALLVALUE DUP1 ISZERO PUSH2 0x48C JUMPI PUSH1 0x0 DUP1 REVERT JUMPDEST POP PUSH2 0x3BD PUSH2 0x49B CALLDATASIZE PUSH1 0x4 PUSH2 0x2F3E JUMP JUMPDEST DUP1 MLOAD PUSH1 0x20 DUP2 DUP4 ADD DUP2 ADD DUP1 MLOAD PUSH1 0x8 DUP3 MSTORE SWAP3 DUP3 ADD SWAP2 SWAP1 SWAP4 ADD KECCAK256 SWAP2 MSTORE SLOAD DUP2 JUMP JUMPDEST CALLVALUE DUP1 ISZERO PUSH2 0x4C4 JUMPI PUSH1 0x0 DUP1 REVERT JUMPDEST POP PUSH1 0xA SLOAD PUSH2 0x296 SWAP1 PUSH1 0x1 PUSH1 0x1 PUSH1 0xA0 SHL SUB AND DUP2 JUMP JUMPDEST CALLVALUE DUP1 ISZERO PUSH2 0x4E4 JUMPI PUSH1 0x0 DUP1 REVERT JUMPDEST POP PUSH1 0xA SLOAD PUSH1 0x1 PUSH1 0x1 PUSH1 0xA0 SHL SUB AND CALLER EQ PUSH2 0x23F JUMP JUMPDEST CALLVALUE DUP1 ISZERO PUSH2 0x504 JUMPI PUSH1 0x0 DUP1 REVERT JUMPDEST POP PUSH2 0x269 PUSH2 0x14BF JUMP JUMPDEST CALLVALUE DUP1 ISZERO PUSH2 0x519 JUMPI PUSH1 0x0 DUP1 REVERT JUMPDEST POP PUSH2 0x269 PUSH2 0x528 CALLDATASIZE PUSH1 0x4 PUSH2 0x30AE JUMP JUMPDEST PUSH2 0x14CE JUMP JUMPDEST CALLVALUE DUP1 ISZERO PUSH2 0x539 JUMPI PUSH1 0x0 DUP1 REVERT JUMPDEST POP PUSH2 0x23F PUSH2 0x548 CALLDATASIZE PUSH1 0x4 PUSH2 0x2FDF JUMP JUMPDEST PUSH2 0x16FD JUMP JUMPDEST CALLVALUE DUP1 ISZERO PUSH2 0x559 JUMPI PUSH1 0x0 DUP1 REVERT JUMPDEST POP PUSH2 0x2CE PUSH2 0x568 CALLDATASIZE PUSH1 0x4 PUSH2 0x30F8 JUMP JUMPDEST PUSH2 0x1793 JUMP JUMPDEST CALLVALUE DUP1 ISZERO PUSH2 0x579 JUMPI PUSH1 0x0 DUP1 REVERT JUMPDEST POP PUSH2 0x2CE PUSH2 0x588 CALLDATASIZE PUSH1 0x4 PUSH2 0x3134 JUMP JUMPDEST PUSH2 0x179E JUMP JUMPDEST CALLVALUE DUP1 ISZERO PUSH2 0x599 JUMPI PUSH1 0x0 DUP1 REVERT JUMPDEST POP PUSH2 0x2CE PUSH2 0x5A8 CALLDATASIZE PUSH1 0x4 PUSH2 0x3160 JUMP JUMPDEST PUSH2 0x17C3 JUMP JUMPDEST CALLVALUE DUP1 ISZERO PUSH2 0x5B9 JUMPI PUSH1 0x0 DUP1 REVERT JUMPDEST POP PUSH2 0x3BD PUSH2 0x5C8 CALLDATASIZE PUSH1 0x4 PUSH2 0x2FDF JUMP JUMPDEST PUSH2 0x17F5 JUMP JUMPDEST CALLVALUE DUP1 ISZERO PUSH2 0x5D9 JUMPI PUSH1 0x0 DUP1 REVERT JUMPDEST POP PUSH2 0x296 PUSH2 0x5E8 CALLDATASIZE PUSH1 0x4 PUSH2 0x2FDF JUMP JUMPDEST PUSH2 0x184E JUMP JUMPDEST CALLVALUE DUP1 ISZERO PUSH2 0x5F9 JUMPI PUSH1 0x0 DUP1 REVERT JUMPDEST POP PUSH2 0x269 PUSH2 0x608 CALLDATASIZE PUSH1 0x4 PUSH2 0x2D05 JUMP JUMPDEST PUSH2 0x185D JUMP JUMPDEST CALLVALUE DUP1 ISZERO PUSH2 0x619 JUMPI PUSH1 0x0 DUP1 REVERT JUMPDEST POP PUSH2 0x3BD PUSH1 0xD SLOAD DUP2 JUMP JUMPDEST CALLVALUE DUP1 ISZERO PUSH2 0x62F JUMPI PUSH1 0x0 DUP1 REVERT JUMPDEST POP PUSH2 0x23F PUSH2 0x63E CALLDATASIZE PUSH1 0x4 PUSH2 0x2F3E JUMP JUMPDEST PUSH2 0x1B3E JUMP JUMPDEST CALLVALUE DUP1 ISZERO PUSH2 0x64F JUMPI PUSH1 0x0 DUP1 REVERT JUMPDEST POP PUSH2 0x23F PUSH2 0x65E CALLDATASIZE PUSH1 0x4 PUSH2 0x31DB JUMP JUMPDEST PUSH1 0x1 PUSH1 0x1 PUSH1 0xA0 SHL SUB SWAP2 DUP3 AND PUSH1 0x0 SWAP1 DUP2 MSTORE PUSH1 0x5 PUSH1 0x20 SWAP1 DUP2 MSTORE PUSH1 0x40 DUP1 DUP4 KECCAK256 SWAP4 SWAP1 SWAP5 AND DUP3 MSTORE SWAP2 SWAP1 SWAP2 MSTORE KECCAK256 SLOAD PUSH1 0xFF AND SWAP1 JUMP JUMPDEST CALLVALUE DUP1 ISZERO PUSH2 0x698 JUMPI PUSH1 0x0 DUP1 REVERT JUMPDEST POP PUSH2 0x2CE PUSH2 0x6A7 CALLDATASIZE PUSH1 0x4 PUSH2 0x320E JUMP JUMPDEST PUSH2 0x1B51 JUMP JUMPDEST PUSH2 0x2CE PUSH2 0x6BA CALLDATASIZE PUSH1 0x4 PUSH2 0x2FDF JUMP JUMPDEST PUSH2 0x1C9C JUMP JUMPDEST CALLVALUE DUP1 ISZERO PUSH2 0x6CB JUMPI PUSH1 0x0 DUP1 REVERT JUMPDEST POP PUSH2 0x2CE PUSH2 0x6DA CALLDATASIZE PUSH1 0x4 PUSH2 0x3326 JUMP JUMPDEST PUSH2 0x1DE5 JUMP JUMPDEST CALLVALUE DUP1 ISZERO PUSH2 0x6EB JUMPI PUSH1 0x0 DUP1 REVERT JUMPDEST POP PUSH2 0x6F4 PUSH2 0x1FA6 JUMP JUMPDEST PUSH1 0x40 MLOAD PUSH2 0x24B SWAP2 SWAP1 PUSH2 0x33A6 JUMP JUMPDEST CALLVALUE DUP1 ISZERO PUSH2 0x70D JUMPI PUSH1 0x0 DUP1 REVERT JUMPDEST POP PUSH2 0x3BD PUSH2 0x71C CALLDATASIZE PUSH1 0x4 PUSH2 0x2FDF JUMP JUMPDEST PUSH2 0x20F2 JUMP JUMPDEST PUSH1 0x0 PUSH1 0x1 PUSH1 0x1 PUSH1 0xE0 SHL SUB NOT DUP3 AND PUSH4 0x80AC58CD PUSH1 0xE0 SHL EQ DUP1 PUSH2 0x752 JUMPI POP PUSH1 0x1 PUSH1 0x1 PUSH1 0xE0 SHL SUB NOT DUP3 AND PUSH4 0x5B5E139F PUSH1 0xE0 SHL EQ JUMPDEST DUP1 PUSH2 0x76D JUMPI POP PUSH4 0x1FFC9A7 PUSH1 0xE0 SHL PUSH1 0x1 PUSH1 0x1 PUSH1 0xE0 SHL SUB NOT DUP4 AND EQ JUMPDEST SWAP3 SWAP2 POP POP JUMP JUMPDEST PUSH1 0x60 PUSH1 0x0 DUP1 SLOAD PUSH2 0x782 SWAP1 PUSH2 0x33B9 JUMP JUMPDEST DUP1 PUSH1 0x1F ADD PUSH1 0x20 DUP1 SWAP2 DIV MUL PUSH1 0x20 ADD PUSH1 0x40 MLOAD SWAP1 DUP2 ADD PUSH1 0x40 MSTORE DUP1 SWAP3 SWAP2 SWAP1 DUP2 DUP2 MSTORE PUSH1 0x20 ADD DUP3 DUP1 SLOAD PUSH2 0x7AE SWAP1 PUSH2 0x33B9 JUMP JUMPDEST DUP1 ISZERO PUSH2 0x7FB JUMPI DUP1 PUSH1 0x1F LT PUSH2 0x7D0 JUMPI PUSH2 0x100 DUP1 DUP4 SLOAD DIV MUL DUP4 MSTORE SWAP2 PUSH1 0x20 ADD SWAP2 PUSH2 0x7FB JUMP JUMPDEST DUP3 ADD SWAP2 SWAP1 PUSH1 0x0 MSTORE PUSH1 0x20 PUSH1 0x0 KECCAK256 SWAP1 JUMPDEST DUP2 SLOAD DUP2 MSTORE SWAP1 PUSH1 0x1 ADD SWAP1 PUSH1 0x20 ADD DUP1 DUP4 GT PUSH2 0x7DE JUMPI DUP3 SWAP1 SUB PUSH1 0x1F AND DUP3 ADD SWAP2 JUMPDEST POP POP POP POP POP SWAP1 POP SWAP1 JUMP JUMPDEST PUSH1 0x0 PUSH2 0x810 DUP3 PUSH2 0x217B JUMP JUMPDEST POP PUSH1 0x0 SWAP1 DUP2 MSTORE PUSH1 0x4 PUSH1 0x20 MSTORE PUSH1 0x40 SWAP1 KECCAK256 SLOAD PUSH1 0x1 PUSH1 0x1 PUSH1 0xA0 SHL SUB AND SWAP1 JUMP JUMPDEST PUSH1 0x0 PUSH2 0x837 DUP3 PUSH2 0xF9B JUMP JUMPDEST SWAP1 POP DUP1 PUSH1 0x1 PUSH1 0x1 PUSH1 0xA0 SHL SUB AND DUP4 PUSH1 0x1 PUSH1 0x1 PUSH1 0xA0 SHL SUB AND EQ ISZERO PUSH2 0x8AA JUMPI PUSH1 0x40 MLOAD PUSH3 0x461BCD PUSH1 0xE5 SHL DUP2 MSTORE PUSH1 0x20 PUSH1 0x4 DUP3 ADD MSTORE PUSH1 0x21 PUSH1 0x24 DUP3 ADD MSTORE PUSH32 0x4552433732313A20617070726F76616C20746F2063757272656E74206F776E65 PUSH1 0x44 DUP3 ADD MSTORE PUSH1 0x39 PUSH1 0xF9 SHL PUSH1 0x64 DUP3 ADD MSTORE PUSH1 0x84 ADD JUMPDEST PUSH1 0x40 MLOAD DUP1 SWAP2 SUB SWAP1 REVERT JUMPDEST CALLER PUSH1 0x1 PUSH1 0x1 PUSH1 0xA0 SHL SUB DUP3 AND EQ DUP1 PUSH2 0x8C6 JUMPI POP PUSH2 0x8C6 DUP2 CALLER PUSH2 0x65E JUMP JUMPDEST PUSH2 0x938 JUMPI PUSH1 0x40 MLOAD PUSH3 0x461BCD PUSH1 0xE5 SHL DUP2 MSTORE PUSH1 0x20 PUSH1 0x4 DUP3 ADD MSTORE PUSH1 0x3E PUSH1 0x24 DUP3 ADD MSTORE PUSH32 0x4552433732313A20617070726F76652063616C6C6572206973206E6F7420746F PUSH1 0x44 DUP3 ADD MSTORE PUSH32 0x6B656E206F776E6572206E6F7220617070726F76656420666F7220616C6C0000 PUSH1 0x64 DUP3 ADD MSTORE PUSH1 0x84 ADD PUSH2 0x8A1 JUMP JUMPDEST PUSH2 0x942 DUP4 DUP4 PUSH2 0x21DD JUMP JUMPDEST POP POP POP JUMP JUMPDEST PUSH1 0xA SLOAD PUSH1 0x1 PUSH1 0x1 PUSH1 0xA0 SHL SUB AND CALLER EQ PUSH2 0x95E JUMPI PUSH1 0x0 DUP1 REVERT JUMPDEST PUSH1 0x8 DUP4 DUP4 PUSH1 0x40 MLOAD PUSH2 0x970 SWAP3 SWAP2 SWAP1 PUSH2 0x33EE JUMP JUMPDEST SWAP1 DUP2 MSTORE PUSH1 0x20 ADD PUSH1 0x40 MLOAD DUP1 SWAP2 SUB SWAP1 KECCAK256 SLOAD PUSH1 0x0 EQ PUSH2 0x99F JUMPI PUSH1 0x40 MLOAD PUSH4 0xEA075BF PUSH1 0xE2 SHL DUP2 MSTORE PUSH1 0x4 ADD PUSH1 0x40 MLOAD DUP1 SWAP2 SUB SWAP1 REVERT JUMPDEST PUSH2 0x9A9 DUP4 DUP4 PUSH2 0x16FD JUMP JUMPDEST PUSH2 0x9CA JUMPI DUP3 DUP3 PUSH1 0x40 MLOAD PUSH4 0x7F19F48D PUSH1 0xE0 SHL DUP2 MSTORE PUSH1 0x4 ADD PUSH2 0x8A1 SWAP3 SWAP2 SWAP1 PUSH2 0x33FE JUMP JUMPDEST PUSH1 0x0 PUSH2 0x9D5 PUSH1 0xB SLOAD SWAP1 JUMP JUMPDEST SWAP1 POP PUSH2 0x9E1 DUP3 DUP3 PUSH2 0x224B JUMP JUMPDEST PUSH1 0x0 DUP2 DUP2 MSTORE PUSH1 0x7 PUSH1 0x20 MSTORE PUSH1 0x40 SWAP1 KECCAK256 PUSH2 0x9FA SWAP1 DUP6 DUP6 PUSH2 0x2B5A JUMP JUMPDEST POP DUP1 PUSH1 0x8 DUP6 DUP6 PUSH1 0x40 MLOAD PUSH2 0xA0E SWAP3 SWAP2 SWAP1 PUSH2 0x33EE JUMP JUMPDEST SWAP1 DUP2 MSTORE PUSH1 0x40 MLOAD SWAP1 DUP2 SWAP1 SUB PUSH1 0x20 ADD SWAP1 KECCAK256 SSTORE PUSH2 0xA2C PUSH1 0xB DUP1 SLOAD PUSH1 0x1 ADD SWAP1 SSTORE JUMP JUMPDEST POP POP POP POP JUMP JUMPDEST PUSH2 0xA3C CALLER DUP3 PUSH2 0x2265 JUMP JUMPDEST PUSH2 0xA58 JUMPI PUSH1 0x40 MLOAD PUSH3 0x461BCD PUSH1 0xE5 SHL DUP2 MSTORE PUSH1 0x4 ADD PUSH2 0x8A1 SWAP1 PUSH2 0x342D JUMP JUMPDEST PUSH2 0x942 DUP4 DUP4 DUP4 PUSH2 0x22E4 JUMP JUMPDEST PUSH1 0x9 DUP1 SLOAD PUSH2 0xA70 SWAP1 PUSH2 0x33B9 JUMP JUMPDEST DUP1 PUSH1 0x1F ADD PUSH1 0x20 DUP1 SWAP2 DIV MUL PUSH1 0x20 ADD PUSH1 0x40 MLOAD SWAP1 DUP2 ADD PUSH1 0x40 MSTORE DUP1 SWAP3 SWAP2 SWAP1 DUP2 DUP2 MSTORE PUSH1 0x20 ADD DUP3 DUP1 SLOAD PUSH2 0xA9C SWAP1 PUSH2 0x33B9 JUMP JUMPDEST DUP1 ISZERO PUSH2 0xAE9 JUMPI DUP1 PUSH1 0x1F LT PUSH2 0xABE JUMPI PUSH2 0x100 DUP1 DUP4 SLOAD DIV MUL DUP4 MSTORE SWAP2 PUSH1 0x20 ADD SWAP2 PUSH2 0xAE9 JUMP JUMPDEST DUP3 ADD SWAP2 SWAP1 PUSH1 0x0 MSTORE PUSH1 0x20 PUSH1 0x0 KECCAK256 SWAP1 JUMPDEST DUP2 SLOAD DUP2 MSTORE SWAP1 PUSH1 0x1 ADD SWAP1 PUSH1 0x20 ADD DUP1 DUP4 GT PUSH2 0xACC JUMPI DUP3 SWAP1 SUB PUSH1 0x1F AND DUP3 ADD SWAP2 JUMPDEST POP POP POP POP POP DUP2 JUMP JUMPDEST PUSH1 0xA SLOAD PUSH1 0x1 PUSH1 0x1 PUSH1 0xA0 SHL SUB AND CALLER EQ PUSH2 0xB08 JUMPI PUSH1 0x0 DUP1 REVERT JUMPDEST PUSH1 0x40 MLOAD SELFBALANCE SWAP1 PUSH1 0x0 SWAP1 CALLER SWAP1 DUP4 SWAP1 DUP4 DUP2 DUP2 DUP2 DUP6 DUP8 GAS CALL SWAP3 POP POP POP RETURNDATASIZE DUP1 PUSH1 0x0 DUP2 EQ PUSH2 0xB4C JUMPI PUSH1 0x40 MLOAD SWAP2 POP PUSH1 0x1F NOT PUSH1 0x3F RETURNDATASIZE ADD AND DUP3 ADD PUSH1 0x40 MSTORE RETURNDATASIZE DUP3 MSTORE RETURNDATASIZE PUSH1 0x0 PUSH1 0x20 DUP5 ADD RETURNDATACOPY PUSH2 0xB51 JUMP JUMPDEST PUSH1 0x60 SWAP2 POP JUMPDEST POP POP SWAP1 POP DUP1 PUSH2 0xBA2 JUMPI PUSH1 0x40 MLOAD PUSH3 0x461BCD PUSH1 0xE5 SHL DUP2 MSTORE PUSH1 0x20 PUSH1 0x4 DUP3 ADD MSTORE PUSH1 0x18 PUSH1 0x24 DUP3 ADD MSTORE PUSH32 0x4661696C656420746F2077697468647261772066756E64730000000000000000 PUSH1 0x44 DUP3 ADD MSTORE PUSH1 0x64 ADD PUSH2 0x8A1 JUMP JUMPDEST POP POP JUMP JUMPDEST PUSH2 0x942 DUP4 DUP4 DUP4 PUSH1 0x40 MLOAD DUP1 PUSH1 0x20 ADD PUSH1 0x40 MSTORE DUP1 PUSH1 0x0 DUP2 MSTORE POP PUSH2 0x17C3 JUMP JUMPDEST PUSH1 0x60 PUSH1 0x0 PUSH2 0xBCE DUP4 PUSH2 0xFFB JUMP JUMPDEST SWAP1 POP PUSH1 0x0 DUP2 PUSH1 0x1 PUSH1 0x1 PUSH1 0x40 SHL SUB DUP2 GT ISZERO PUSH2 0xBEA JUMPI PUSH2 0xBEA PUSH2 0x2E93 JUMP JUMPDEST PUSH1 0x40 MLOAD SWAP1 DUP1 DUP3 MSTORE DUP1 PUSH1 0x20 MUL PUSH1 0x20 ADD DUP3 ADD PUSH1 0x40 MSTORE DUP1 ISZERO PUSH2 0xC13 JUMPI DUP2 PUSH1 0x20 ADD PUSH1 0x20 DUP3 MUL DUP1 CALLDATASIZE DUP4 CALLDATACOPY ADD SWAP1 POP JUMPDEST POP SWAP1 POP PUSH1 0x1 PUSH1 0x0 JUMPDEST DUP4 DUP2 LT DUP1 ISZERO PUSH2 0xC2C JUMPI POP PUSH1 0xB SLOAD DUP3 GT ISZERO JUMPDEST ISZERO PUSH2 0xC97 JUMPI PUSH1 0x0 PUSH2 0xC3C DUP4 PUSH2 0xF9B JUMP JUMPDEST SWAP1 POP DUP7 PUSH1 0x1 PUSH1 0x1 PUSH1 0xA0 SHL SUB AND DUP2 PUSH1 0x1 PUSH1 0x1 PUSH1 0xA0 SHL SUB AND EQ ISZERO PUSH2 0xC84 JUMPI DUP3 DUP5 DUP4 DUP2 MLOAD DUP2 LT PUSH2 0xC6B JUMPI PUSH2 0xC6B PUSH2 0x347B JUMP JUMPDEST PUSH1 0x20 SWAP1 DUP2 MUL SWAP2 SWAP1 SWAP2 ADD ADD MSTORE DUP2 PUSH2 0xC80 DUP2 PUSH2 0x34A7 JUMP JUMPDEST SWAP3 POP POP JUMPDEST DUP3 PUSH2 0xC8E DUP2 PUSH2 0x34A7 JUMP JUMPDEST SWAP4 POP POP POP PUSH2 0xC1B JUMP JUMPDEST POP SWAP1 SWAP5 SWAP4 POP POP POP POP JUMP JUMPDEST PUSH1 0x7 PUSH1 0x20 MSTORE PUSH1 0x0 SWAP1 DUP2 MSTORE PUSH1 0x40 SWAP1 KECCAK256 DUP1 SLOAD PUSH2 0xA70 SWAP1 PUSH2 0x33B9 JUMP JUMPDEST DUP1 MLOAD PUSH1 0x20 DUP2 DUP4 ADD DUP2 ADD DUP1 MLOAD PUSH1 0x6 DUP3 MSTORE SWAP3 DUP3 ADD SWAP2 SWAP1 SWAP4 ADD KECCAK256 SWAP2 MSTORE DUP1 SLOAD DUP2 SWAP1 PUSH2 0xCE0 SWAP1 PUSH2 0x33B9 JUMP JUMPDEST DUP1 PUSH1 0x1F ADD PUSH1 0x20 DUP1 SWAP2 DIV MUL PUSH1 0x20 ADD PUSH1 0x40 MLOAD SWAP1 DUP2 ADD PUSH1 0x40 MSTORE DUP1 SWAP3 SWAP2 SWAP1 DUP2 DUP2 MSTORE PUSH1 0x20 ADD DUP3 DUP1 SLOAD PUSH2 0xD0C SWAP1 PUSH2 0x33B9 JUMP JUMPDEST DUP1 ISZERO PUSH2 0xD59 JUMPI DUP1 PUSH1 0x1F LT PUSH2 0xD2E JUMPI PUSH2 0x100 DUP1 DUP4 SLOAD DIV MUL DUP4 MSTORE SWAP2 PUSH1 0x20 ADD SWAP2 PUSH2 0xD59 JUMP JUMPDEST DUP3 ADD SWAP2 SWAP1 PUSH1 0x0 MSTORE PUSH1 0x20 PUSH1 0x0 KECCAK256 SWAP1 JUMPDEST DUP2 SLOAD DUP2 MSTORE SWAP1 PUSH1 0x1 ADD SWAP1 PUSH1 0x20 ADD DUP1 DUP4 GT PUSH2 0xD3C JUMPI DUP3 SWAP1 SUB PUSH1 0x1F AND DUP3 ADD SWAP2 JUMPDEST POP POP POP POP POP SWAP1 DUP1 PUSH1 0x1 ADD DUP1 SLOAD PUSH2 0xD6E SWAP1 PUSH2 0x33B9 JUMP JUMPDEST DUP1 PUSH1 0x1F ADD PUSH1 0x20 DUP1 SWAP2 DIV MUL PUSH1 0x20 ADD PUSH1 0x40 MLOAD SWAP1 DUP2 ADD PUSH1 0x40 MSTORE DUP1 SWAP3 SWAP2 SWAP1 DUP2 DUP2 MSTORE PUSH1 0x20 ADD DUP3 DUP1 SLOAD PUSH2 0xD9A SWAP1 PUSH2 0x33B9 JUMP JUMPDEST DUP1 ISZERO PUSH2 0xDE7 JUMPI DUP1 PUSH1 0x1F LT PUSH2 0xDBC JUMPI PUSH2 0x100 DUP1 DUP4 SLOAD DIV MUL DUP4 MSTORE SWAP2 PUSH1 0x20 ADD SWAP2 PUSH2 0xDE7 JUMP JUMPDEST DUP3 ADD SWAP2 SWAP1 PUSH1 0x0 MSTORE PUSH1 0x20 PUSH1 0x0 KECCAK256 SWAP1 JUMPDEST DUP2 SLOAD DUP2 MSTORE SWAP1 PUSH1 0x1 ADD SWAP1 PUSH1 0x20 ADD DUP1 DUP4 GT PUSH2 0xDCA JUMPI DUP3 SWAP1 SUB PUSH1 0x1F AND DUP3 ADD SWAP2 JUMPDEST POP POP POP POP POP SWAP1 DUP1 PUSH1 0x2 ADD DUP1 SLOAD PUSH2 0xDFC SWAP1 PUSH2 0x33B9 JUMP JUMPDEST DUP1 PUSH1 0x1F ADD PUSH1 0x20 DUP1 SWAP2 DIV MUL PUSH1 0x20 ADD PUSH1 0x40 MLOAD SWAP1 DUP2 ADD PUSH1 0x40 MSTORE DUP1 SWAP3 SWAP2 SWAP1 DUP2 DUP2 MSTORE PUSH1 0x20 ADD DUP3 DUP1 SLOAD PUSH2 0xE28 SWAP1 PUSH2 0x33B9 JUMP JUMPDEST DUP1 ISZERO PUSH2 0xE75 JUMPI DUP1 PUSH1 0x1F LT PUSH2 0xE4A JUMPI PUSH2 0x100 DUP1 DUP4 SLOAD DIV MUL DUP4 MSTORE SWAP2 PUSH1 0x20 ADD SWAP2 PUSH2 0xE75 JUMP JUMPDEST DUP3 ADD SWAP2 SWAP1 PUSH1 0x0 MSTORE PUSH1 0x20 PUSH1 0x0 KECCAK256 SWAP1 JUMPDEST DUP2 SLOAD DUP2 MSTORE SWAP1 PUSH1 0x1 ADD SWAP1 PUSH1 0x20 ADD DUP1 DUP4 GT PUSH2 0xE58 JUMPI DUP3 SWAP1 SUB PUSH1 0x1F AND DUP3 ADD SWAP2 JUMPDEST POP POP POP POP POP SWAP1 DUP1 PUSH1 0x3 ADD DUP1 SLOAD PUSH2 0xE8A SWAP1 PUSH2 0x33B9 JUMP JUMPDEST DUP1 PUSH1 0x1F ADD PUSH1 0x20 DUP1 SWAP2 DIV MUL PUSH1 0x20 ADD PUSH1 0x40 MLOAD SWAP1 DUP2 ADD PUSH1 0x40 MSTORE DUP1 SWAP3 SWAP2 SWAP1 DUP2 DUP2 MSTORE PUSH1 0x20 ADD DUP3 DUP1 SLOAD PUSH2 0xEB6 SWAP1 PUSH2 0x33B9 JUMP JUMPDEST DUP1 ISZERO PUSH2 0xF03 JUMPI DUP1 PUSH1 0x1F LT PUSH2 0xED8 JUMPI PUSH2 0x100 DUP1 DUP4 SLOAD DIV MUL DUP4 MSTORE SWAP2 PUSH1 0x20 ADD SWAP2 PUSH2 0xF03 JUMP JUMPDEST DUP3 ADD SWAP2 SWAP1 PUSH1 0x0 MSTORE PUSH1 0x20 PUSH1 0x0 KECCAK256 SWAP1 JUMPDEST DUP2 SLOAD DUP2 MSTORE SWAP1 PUSH1 0x1 ADD SWAP1 PUSH1 0x20 ADD DUP1 DUP4 GT PUSH2 0xEE6 JUMPI DUP3 SWAP1 SUB PUSH1 0x1F AND DUP3 ADD SWAP2 JUMPDEST POP POP POP POP POP SWAP1 DUP1 PUSH1 0x4 ADD DUP1 SLOAD PUSH2 0xF18 SWAP1 PUSH2 0x33B9 JUMP JUMPDEST DUP1 PUSH1 0x1F ADD PUSH1 0x20 DUP1 SWAP2 DIV MUL PUSH1 0x20 ADD PUSH1 0x40 MLOAD SWAP1 DUP2 ADD PUSH1 0x40 MSTORE DUP1 SWAP3 SWAP2 SWAP1 DUP2 DUP2 MSTORE PUSH1 0x20 ADD DUP3 DUP1 SLOAD PUSH2 0xF44 SWAP1 PUSH2 0x33B9 JUMP JUMPDEST DUP1 ISZERO PUSH2 0xF91 JUMPI DUP1 PUSH1 0x1F LT PUSH2 0xF66 JUMPI PUSH2 0x100 DUP1 DUP4 SLOAD DIV MUL DUP4 MSTORE SWAP2 PUSH1 0x20 ADD SWAP2 PUSH2 0xF91 JUMP JUMPDEST DUP3 ADD SWAP2 SWAP1 PUSH1 0x0 MSTORE PUSH1 0x20 PUSH1 0x0 KECCAK256 SWAP1 JUMPDEST DUP2 SLOAD DUP2 MSTORE SWAP1 PUSH1 0x1 ADD SWAP1 PUSH1 0x20 ADD DUP1 DUP4 GT PUSH2 0xF74 JUMPI DUP3 SWAP1 SUB PUSH1 0x1F AND DUP3 ADD SWAP2 JUMPDEST POP POP POP POP POP SWAP1 POP DUP6 JUMP JUMPDEST PUSH1 0x0 DUP2 DUP2 MSTORE PUSH1 0x2 PUSH1 0x20 MSTORE PUSH1 0x40 DUP2 KECCAK256 SLOAD PUSH1 0x1 PUSH1 0x1 PUSH1 0xA0 SHL SUB AND DUP1 PUSH2 0x76D JUMPI PUSH1 0x40 MLOAD PUSH3 0x461BCD PUSH1 0xE5 SHL DUP2 MSTORE PUSH1 0x20 PUSH1 0x4 DUP3 ADD MSTORE PUSH1 0x18 PUSH1 0x24 DUP3 ADD MSTORE PUSH24 0x115490CDCC8C4E881A5B9D985B1A59081D1BDAD95B881251 PUSH1 0x42 SHL PUSH1 0x44 DUP3 ADD MSTORE PUSH1 0x64 ADD PUSH2 0x8A1 JUMP JUMPDEST PUSH1 0x0 PUSH1 0x1 PUSH1 0x1 PUSH1 0xA0 SHL SUB DUP3 AND PUSH2 0x1065 JUMPI PUSH1 0x40 MLOAD PUSH3 0x461BCD PUSH1 0xE5 SHL DUP2 MSTORE PUSH1 0x20 PUSH1 0x4 DUP3 ADD MSTORE PUSH1 0x29 PUSH1 0x24 DUP3 ADD MSTORE PUSH32 0x4552433732313A2061646472657373207A65726F206973206E6F742061207661 PUSH1 0x44 DUP3 ADD MSTORE PUSH9 0x3634B21037BBB732B9 PUSH1 0xB9 SHL PUSH1 0x64 DUP3 ADD MSTORE PUSH1 0x84 ADD PUSH2 0x8A1 JUMP JUMPDEST POP PUSH1 0x1 PUSH1 0x1 PUSH1 0xA0 SHL SUB AND PUSH1 0x0 SWAP1 DUP2 MSTORE PUSH1 0x3 PUSH1 0x20 MSTORE PUSH1 0x40 SWAP1 KECCAK256 SLOAD SWAP1 JUMP JUMPDEST PUSH1 0x60 PUSH1 0x0 DUP1 PUSH2 0x1090 DUP6 DUP6 PUSH2 0x184E JUMP JUMPDEST PUSH1 0x40 DUP1 MLOAD PUSH1 0x5 DUP1 DUP3 MSTORE PUSH1 0xC0 DUP3 ADD SWAP1 SWAP3 MSTORE SWAP2 SWAP3 POP PUSH1 0x0 SWAP2 SWAP1 DUP2 PUSH1 0x20 ADD JUMPDEST PUSH1 0x60 DUP2 MSTORE PUSH1 0x20 ADD SWAP1 PUSH1 0x1 SWAP1 SUB SWAP1 DUP2 PUSH2 0x10AC JUMPI SWAP1 POP POP SWAP1 POP PUSH1 0x6 DUP7 DUP7 PUSH1 0x40 MLOAD PUSH2 0x10D5 SWAP3 SWAP2 SWAP1 PUSH2 0x33EE JUMP JUMPDEST SWAP1 DUP2 MSTORE PUSH1 0x40 MLOAD SWAP1 DUP2 SWAP1 SUB PUSH1 0x20 ADD SWAP1 KECCAK256 DUP1 SLOAD PUSH2 0x10EF SWAP1 PUSH2 0x33B9 JUMP JUMPDEST DUP1 PUSH1 0x1F ADD PUSH1 0x20 DUP1 SWAP2 DIV MUL PUSH1 0x20 ADD PUSH1 0x40 MLOAD SWAP1 DUP2 ADD PUSH1 0x40 MSTORE DUP1 SWAP3 SWAP2 SWAP1 DUP2 DUP2 MSTORE PUSH1 0x20 ADD DUP3 DUP1 SLOAD PUSH2 0x111B SWAP1 PUSH2 0x33B9 JUMP JUMPDEST DUP1 ISZERO PUSH2 0x1168 JUMPI DUP1 PUSH1 0x1F LT PUSH2 0x113D JUMPI PUSH2 0x100 DUP1 DUP4 SLOAD DIV MUL DUP4 MSTORE SWAP2 PUSH1 0x20 ADD SWAP2 PUSH2 0x1168 JUMP JUMPDEST DUP3 ADD SWAP2 SWAP1 PUSH1 0x0 MSTORE PUSH1 0x20 PUSH1 0x0 KECCAK256 SWAP1 JUMPDEST DUP2 SLOAD DUP2 MSTORE SWAP1 PUSH1 0x1 ADD SWAP1 PUSH1 0x20 ADD DUP1 DUP4 GT PUSH2 0x114B JUMPI DUP3 SWAP1 SUB PUSH1 0x1F AND DUP3 ADD SWAP2 JUMPDEST POP POP POP POP POP DUP2 PUSH1 0x0 DUP2 MLOAD DUP2 LT PUSH2 0x1180 JUMPI PUSH2 0x1180 PUSH2 0x347B JUMP JUMPDEST PUSH1 0x20 MUL PUSH1 0x20 ADD ADD DUP2 SWAP1 MSTORE POP PUSH1 0x6 DUP7 DUP7 PUSH1 0x40 MLOAD PUSH2 0x119D SWAP3 SWAP2 SWAP1 PUSH2 0x33EE JUMP JUMPDEST SWAP1 DUP2 MSTORE PUSH1 0x20 ADD PUSH1 0x40 MLOAD DUP1 SWAP2 SUB SWAP1 KECCAK256 PUSH1 0x1 ADD DUP1 SLOAD PUSH2 0x11B9 SWAP1 PUSH2 0x33B9 JUMP JUMPDEST DUP1 PUSH1 0x1F ADD PUSH1 0x20 DUP1 SWAP2 DIV MUL PUSH1 0x20 ADD PUSH1 0x40 MLOAD SWAP1 DUP2 ADD PUSH1 0x40 MSTORE DUP1 SWAP3 SWAP2 SWAP1 DUP2 DUP2 MSTORE PUSH1 0x20 ADD DUP3 DUP1 SLOAD PUSH2 0x11E5 SWAP1 PUSH2 0x33B9 JUMP JUMPDEST DUP1 ISZERO PUSH2 0x1232 JUMPI DUP1 PUSH1 0x1F LT PUSH2 0x1207 JUMPI PUSH2 0x100 DUP1 DUP4 SLOAD DIV MUL DUP4 MSTORE SWAP2 PUSH1 0x20 ADD SWAP2 PUSH2 0x1232 JUMP JUMPDEST DUP3 ADD SWAP2 SWAP1 PUSH1 0x0 MSTORE PUSH1 0x20 PUSH1 0x0 KECCAK256 SWAP1 JUMPDEST DUP2 SLOAD DUP2 MSTORE SWAP1 PUSH1 0x1 ADD SWAP1 PUSH1 0x20 ADD DUP1 DUP4 GT PUSH2 0x1215 JUMPI DUP3 SWAP1 SUB PUSH1 0x1F AND DUP3 ADD SWAP2 JUMPDEST POP POP POP POP POP DUP2 PUSH1 0x1 DUP2 MLOAD DUP2 LT PUSH2 0x124A JUMPI PUSH2 0x124A PUSH2 0x347B JUMP JUMPDEST PUSH1 0x20 MUL PUSH1 0x20 ADD ADD DUP2 SWAP1 MSTORE POP PUSH1 0x6 DUP7 DUP7 PUSH1 0x40 MLOAD PUSH2 0x1267 SWAP3 SWAP2 SWAP1 PUSH2 0x33EE JUMP JUMPDEST SWAP1 DUP2 MSTORE PUSH1 0x20 ADD PUSH1 0x40 MLOAD DUP1 SWAP2 SUB SWAP1 KECCAK256 PUSH1 0x2 ADD DUP1 SLOAD PUSH2 0x1283 SWAP1 PUSH2 0x33B9 JUMP JUMPDEST DUP1 PUSH1 0x1F ADD PUSH1 0x20 DUP1 SWAP2 DIV MUL PUSH1 0x20 ADD PUSH1 0x40 MLOAD SWAP1 DUP2 ADD PUSH1 0x40 MSTORE DUP1 SWAP3 SWAP2 SWAP1 DUP2 DUP2 MSTORE PUSH1 0x20 ADD DUP3 DUP1 SLOAD PUSH2 0x12AF SWAP1 PUSH2 0x33B9 JUMP JUMPDEST DUP1 ISZERO PUSH2 0x12FC JUMPI DUP1 PUSH1 0x1F LT PUSH2 0x12D1 JUMPI PUSH2 0x100 DUP1 DUP4 SLOAD DIV MUL DUP4 MSTORE SWAP2 PUSH1 0x20 ADD SWAP2 PUSH2 0x12FC JUMP JUMPDEST DUP3 ADD SWAP2 SWAP1 PUSH1 0x0 MSTORE PUSH1 0x20 PUSH1 0x0 KECCAK256 SWAP1 JUMPDEST DUP2 SLOAD DUP2 MSTORE SWAP1 PUSH1 0x1 ADD SWAP1 PUSH1 0x20 ADD DUP1 DUP4 GT PUSH2 0x12DF JUMPI DUP3 SWAP1 SUB PUSH1 0x1F AND DUP3 ADD SWAP2 JUMPDEST POP POP POP POP POP DUP2 PUSH1 0x2 DUP2 MLOAD DUP2 LT PUSH2 0x1314 JUMPI PUSH2 0x1314 PUSH2 0x347B JUMP JUMPDEST PUSH1 0x20 MUL PUSH1 0x20 ADD ADD DUP2 SWAP1 MSTORE POP PUSH1 0x6 DUP7 DUP7 PUSH1 0x40 MLOAD PUSH2 0x1331 SWAP3 SWAP2 SWAP1 PUSH2 0x33EE JUMP JUMPDEST SWAP1 DUP2 MSTORE PUSH1 0x20 ADD PUSH1 0x40 MLOAD DUP1 SWAP2 SUB SWAP1 KECCAK256 PUSH1 0x3 ADD DUP1 SLOAD PUSH2 0x134D SWAP1 PUSH2 0x33B9 JUMP JUMPDEST DUP1 PUSH1 0x1F ADD PUSH1 0x20 DUP1 SWAP2 DIV MUL PUSH1 0x20 ADD PUSH1 0x40 MLOAD SWAP1 DUP2 ADD PUSH1 0x40 MSTORE DUP1 SWAP3 SWAP2 SWAP1 DUP2 DUP2 MSTORE PUSH1 0x20 ADD DUP3 DUP1 SLOAD PUSH2 0x1379 SWAP1 PUSH2 0x33B9 JUMP JUMPDEST DUP1 ISZERO PUSH2 0x13C6 JUMPI DUP1 PUSH1 0x1F LT PUSH2 0x139B JUMPI PUSH2 0x100 DUP1 DUP4 SLOAD DIV MUL DUP4 MSTORE SWAP2 PUSH1 0x20 ADD SWAP2 PUSH2 0x13C6 JUMP JUMPDEST DUP3 ADD SWAP2 SWAP1 PUSH1 0x0 MSTORE PUSH1 0x20 PUSH1 0x0 KECCAK256 SWAP1 JUMPDEST DUP2 SLOAD DUP2 MSTORE SWAP1 PUSH1 0x1 ADD SWAP1 PUSH1 0x20 ADD DUP1 DUP4 GT PUSH2 0x13A9 JUMPI DUP3 SWAP1 SUB PUSH1 0x1F AND DUP3 ADD SWAP2 JUMPDEST POP POP POP POP POP DUP2 PUSH1 0x3 DUP2 MLOAD DUP2 LT PUSH2 0x13DE JUMPI PUSH2 0x13DE PUSH2 0x347B JUMP JUMPDEST PUSH1 0x20 MUL PUSH1 0x20 ADD ADD DUP2 SWAP1 MSTORE POP PUSH1 0x6 DUP7 DUP7 PUSH1 0x40 MLOAD PUSH2 0x13FB SWAP3 SWAP2 SWAP1 PUSH2 0x33EE JUMP JUMPDEST SWAP1 DUP2 MSTORE PUSH1 0x20 ADD PUSH1 0x40 MLOAD DUP1 SWAP2 SUB SWAP1 KECCAK256 PUSH1 0x4 ADD DUP1 SLOAD PUSH2 0x1417 SWAP1 PUSH2 0x33B9 JUMP JUMPDEST DUP1 PUSH1 0x1F ADD PUSH1 0x20 DUP1 SWAP2 DIV MUL PUSH1 0x20 ADD PUSH1 0x40 MLOAD SWAP1 DUP2 ADD PUSH1 0x40 MSTORE DUP1 SWAP3 SWAP2 SWAP1 DUP2 DUP2 MSTORE PUSH1 0x20 ADD DUP3 DUP1 SLOAD PUSH2 0x1443 SWAP1 PUSH2 0x33B9 JUMP JUMPDEST DUP1 ISZERO PUSH2 0x1490 JUMPI DUP1 PUSH1 0x1F LT PUSH2 0x1465 JUMPI PUSH2 0x100 DUP1 DUP4 SLOAD DIV MUL DUP4 MSTORE SWAP2 PUSH1 0x20 ADD SWAP2 PUSH2 0x1490 JUMP JUMPDEST DUP3 ADD SWAP2 SWAP1 PUSH1 0x0 MSTORE PUSH1 0x20 PUSH1 0x0 KECCAK256 SWAP1 JUMPDEST DUP2 SLOAD DUP2 MSTORE SWAP1 PUSH1 0x1 ADD SWAP1 PUSH1 0x20 ADD DUP1 DUP4 GT PUSH2 0x1473 JUMPI DUP3 SWAP1 SUB PUSH1 0x1F AND DUP3 ADD SWAP2 JUMPDEST POP POP POP POP POP DUP2 PUSH1 0x4 DUP2 MLOAD DUP2 LT PUSH2 0x14A8 JUMPI PUSH2 0x14A8 PUSH2 0x347B JUMP JUMPDEST PUSH1 0x20 SWAP1 DUP2 MUL SWAP2 SWAP1 SWAP2 ADD ADD MSTORE SWAP3 POP SWAP1 POP JUMPDEST SWAP3 POP SWAP3 SWAP1 POP JUMP JUMPDEST PUSH1 0x60 PUSH1 0x1 DUP1 SLOAD PUSH2 0x782 SWAP1 PUSH2 0x33B9 JUMP JUMPDEST PUSH1 0x60 PUSH1 0x0 DUP3 PUSH1 0x4 DUP2 GT ISZERO PUSH2 0x14E4 JUMPI PUSH2 0x14E4 PUSH2 0x34C2 JUMP JUMPDEST EQ ISZERO PUSH2 0x159B JUMPI PUSH1 0x6 DUP5 DUP5 PUSH1 0x40 MLOAD PUSH2 0x14FC SWAP3 SWAP2 SWAP1 PUSH2 0x33EE JUMP JUMPDEST SWAP1 DUP2 MSTORE PUSH1 0x40 MLOAD SWAP1 DUP2 SWAP1 SUB PUSH1 0x20 ADD SWAP1 KECCAK256 DUP1 SLOAD PUSH2 0x1516 SWAP1 PUSH2 0x33B9 JUMP JUMPDEST DUP1 PUSH1 0x1F ADD PUSH1 0x20 DUP1 SWAP2 DIV MUL PUSH1 0x20 ADD PUSH1 0x40 MLOAD SWAP1 DUP2 ADD PUSH1 0x40 MSTORE DUP1 SWAP3 SWAP2 SWAP1 DUP2 DUP2 MSTORE PUSH1 0x20 ADD DUP3 DUP1 SLOAD PUSH2 0x1542 SWAP1 PUSH2 0x33B9 JUMP JUMPDEST DUP1 ISZERO PUSH2 0x158F JUMPI DUP1 PUSH1 0x1F LT PUSH2 0x1564 JUMPI PUSH2 0x100 DUP1 DUP4 SLOAD DIV MUL DUP4 MSTORE SWAP2 PUSH1 0x20 ADD SWAP2 PUSH2 0x158F JUMP JUMPDEST DUP3 ADD SWAP2 SWAP1 PUSH1 0x0 MSTORE PUSH1 0x20 PUSH1 0x0 KECCAK256 SWAP1 JUMPDEST DUP2 SLOAD DUP2 MSTORE SWAP1 PUSH1 0x1 ADD SWAP1 PUSH1 0x20 ADD DUP1 DUP4 GT PUSH2 0x1572 JUMPI DUP3 SWAP1 SUB PUSH1 0x1F AND DUP3 ADD SWAP2 JUMPDEST POP POP POP POP POP SWAP1 POP PUSH2 0x16F6 JUMP JUMPDEST PUSH1 0x1 DUP3 PUSH1 0x4 DUP2 GT ISZERO PUSH2 0x15AF JUMPI PUSH2 0x15AF PUSH2 0x34C2 JUMP JUMPDEST EQ ISZERO PUSH2 0x15E3 JUMPI PUSH1 0x6 DUP5 DUP5 PUSH1 0x40 MLOAD PUSH2 0x15C7 SWAP3 SWAP2 SWAP1 PUSH2 0x33EE JUMP JUMPDEST SWAP1 DUP2 MSTORE PUSH1 0x20 ADD PUSH1 0x40 MLOAD DUP1 SWAP2 SUB SWAP1 KECCAK256 PUSH1 0x1 ADD DUP1 SLOAD PUSH2 0x1516 SWAP1 PUSH2 0x33B9 JUMP JUMPDEST PUSH1 0x2 DUP3 PUSH1 0x4 DUP2 GT ISZERO PUSH2 0x15F7 JUMPI PUSH2 0x15F7 PUSH2 0x34C2 JUMP JUMPDEST EQ ISZERO PUSH2 0x162B JUMPI PUSH1 0x6 DUP5 DUP5 PUSH1 0x40 MLOAD PUSH2 0x160F SWAP3 SWAP2 SWAP1 PUSH2 0x33EE JUMP JUMPDEST SWAP1 DUP2 MSTORE PUSH1 0x20 ADD PUSH1 0x40 MLOAD DUP1 SWAP2 SUB SWAP1 KECCAK256 PUSH1 0x2 ADD DUP1 SLOAD PUSH2 0x1516 SWAP1 PUSH2 0x33B9 JUMP JUMPDEST PUSH1 0x3 DUP3 PUSH1 0x4 DUP2 GT ISZERO PUSH2 0x163F JUMPI PUSH2 0x163F PUSH2 0x34C2 JUMP JUMPDEST EQ ISZERO PUSH2 0x1673 JUMPI PUSH1 0x6 DUP5 DUP5 PUSH1 0x40 MLOAD PUSH2 0x1657 SWAP3 SWAP2 SWAP1 PUSH2 0x33EE JUMP JUMPDEST SWAP1 DUP2 MSTORE PUSH1 0x20 ADD PUSH1 0x40 MLOAD DUP1 SWAP2 SUB SWAP1 KECCAK256 PUSH1 0x3 ADD DUP1 SLOAD PUSH2 0x1516 SWAP1 PUSH2 0x33B9 JUMP JUMPDEST PUSH1 0x4 DUP3 PUSH1 0x4 DUP2 GT ISZERO PUSH2 0x1687 JUMPI PUSH2 0x1687 PUSH2 0x34C2 JUMP JUMPDEST EQ ISZERO PUSH2 0x16BB JUMPI PUSH1 0x6 DUP5 DUP5 PUSH1 0x40 MLOAD PUSH2 0x169F SWAP3 SWAP2 SWAP1 PUSH2 0x33EE JUMP JUMPDEST SWAP1 DUP2 MSTORE PUSH1 0x20 ADD PUSH1 0x40 MLOAD DUP1 SWAP2 SUB SWAP1 KECCAK256 PUSH1 0x4 ADD DUP1 SLOAD PUSH2 0x1516 SWAP1 PUSH2 0x33B9 JUMP JUMPDEST PUSH1 0x40 MLOAD PUSH3 0x461BCD PUSH1 0xE5 SHL DUP2 MSTORE PUSH1 0x20 PUSH1 0x4 DUP3 ADD MSTORE PUSH1 0x10 PUSH1 0x24 DUP3 ADD MSTORE PUSH16 0x149958DBDC99081B9BDD08199BDD5B99 PUSH1 0x82 SHL PUSH1 0x44 DUP3 ADD MSTORE PUSH1 0x64 ADD PUSH2 0x8A1 JUMP JUMPDEST SWAP4 SWAP3 POP POP POP JUMP JUMPDEST PUSH1 0x0 PUSH1 0x3 PUSH2 0x1740 DUP5 DUP5 DUP1 DUP1 PUSH1 0x1F ADD PUSH1 0x20 DUP1 SWAP2 DIV MUL PUSH1 0x20 ADD PUSH1 0x40 MLOAD SWAP1 DUP2 ADD PUSH1 0x40 MSTORE DUP1 SWAP4 SWAP3 SWAP2 SWAP1 DUP2 DUP2 MSTORE PUSH1 0x20 ADD DUP4 DUP4 DUP1 DUP3 DUP5 CALLDATACOPY PUSH1 0x0 SWAP3 ADD SWAP2 SWAP1 SWAP2 MSTORE POP PUSH2 0x2480 SWAP3 POP POP POP JUMP JUMPDEST LT ISZERO DUP1 ISZERO PUSH2 0x16F6 JUMPI POP PUSH1 0x1E PUSH2 0x178A DUP5 DUP5 DUP1 DUP1 PUSH1 0x1F ADD PUSH1 0x20 DUP1 SWAP2 DIV MUL PUSH1 0x20 ADD PUSH1 0x40 MLOAD SWAP1 DUP2 ADD PUSH1 0x40 MSTORE DUP1 SWAP4 SWAP3 SWAP2 SWAP1 DUP2 DUP2 MSTORE PUSH1 0x20 ADD DUP4 DUP4 DUP1 DUP3 DUP5 CALLDATACOPY PUSH1 0x0 SWAP3 ADD SWAP2 SWAP1 SWAP2 MSTORE POP PUSH2 0x2480 SWAP3 POP POP POP JUMP JUMPDEST GT ISZERO SWAP4 SWAP3 POP POP POP JUMP JUMPDEST PUSH2 0xBA2 CALLER DUP4 DUP4 PUSH2 0x2583 JUMP JUMPDEST PUSH1 0xA SLOAD PUSH1 0x1 PUSH1 0x1 PUSH1 0xA0 SHL SUB AND CALLER EQ PUSH2 0x17B5 JUMPI PUSH1 0x0 DUP1 REVERT JUMPDEST PUSH1 0xC SWAP3 SWAP1 SWAP3 SSTORE PUSH1 0xD SSTORE PUSH1 0xE SSTORE JUMP JUMPDEST PUSH2 0x17CD CALLER DUP4 PUSH2 0x2265 JUMP JUMPDEST PUSH2 0x17E9 JUMPI PUSH1 0x40 MLOAD PUSH3 0x461BCD PUSH1 0xE5 SHL DUP2 MSTORE PUSH1 0x4 ADD PUSH2 0x8A1 SWAP1 PUSH2 0x342D JUMP JUMPDEST PUSH2 0xA2C DUP5 DUP5 DUP5 DUP5 PUSH2 0x2652 JUMP JUMPDEST PUSH1 0x0 PUSH1 0x8 DUP4 DUP4 PUSH1 0x40 MLOAD PUSH2 0x1809 SWAP3 SWAP2 SWAP1 PUSH2 0x33EE JUMP JUMPDEST SWAP1 DUP2 MSTORE PUSH1 0x20 ADD PUSH1 0x40 MLOAD DUP1 SWAP2 SUB SWAP1 KECCAK256 SLOAD PUSH1 0x0 EQ ISZERO PUSH2 0x1825 JUMPI PUSH1 0x0 DUP1 REVERT JUMPDEST PUSH1 0x8 DUP4 DUP4 PUSH1 0x40 MLOAD PUSH2 0x1837 SWAP3 SWAP2 SWAP1 PUSH2 0x33EE JUMP JUMPDEST SWAP1 DUP2 MSTORE PUSH1 0x20 ADD PUSH1 0x40 MLOAD DUP1 SWAP2 SUB SWAP1 KECCAK256 SLOAD SWAP1 POP SWAP3 SWAP2 POP POP JUMP JUMPDEST PUSH1 0x0 PUSH2 0x16F6 PUSH2 0x417 DUP5 DUP5 PUSH2 0x17F5 JUMP JUMPDEST PUSH1 0x0 DUP2 DUP2 MSTORE PUSH1 0x7 PUSH1 0x20 MSTORE PUSH1 0x40 SWAP1 KECCAK256 DUP1 SLOAD PUSH1 0x60 SWAP2 PUSH2 0x1900 SWAP2 PUSH2 0x187D SWAP1 PUSH2 0x33B9 JUMP JUMPDEST DUP1 PUSH1 0x1F ADD PUSH1 0x20 DUP1 SWAP2 DIV MUL PUSH1 0x20 ADD PUSH1 0x40 MLOAD SWAP1 DUP2 ADD PUSH1 0x40 MSTORE DUP1 SWAP3 SWAP2 SWAP1 DUP2 DUP2 MSTORE PUSH1 0x20 ADD DUP3 DUP1 SLOAD PUSH2 0x18A9 SWAP1 PUSH2 0x33B9 JUMP JUMPDEST DUP1 ISZERO PUSH2 0x18F6 JUMPI DUP1 PUSH1 0x1F LT PUSH2 0x18CB JUMPI PUSH2 0x100 DUP1 DUP4 SLOAD DIV MUL DUP4 MSTORE SWAP2 PUSH1 0x20 ADD SWAP2 PUSH2 0x18F6 JUMP JUMPDEST DUP3 ADD SWAP2 SWAP1 PUSH1 0x0 MSTORE PUSH1 0x20 PUSH1 0x0 KECCAK256 SWAP1 JUMPDEST DUP2 SLOAD DUP2 MSTORE SWAP1 PUSH1 0x1 ADD SWAP1 PUSH1 0x20 ADD DUP1 DUP4 GT PUSH2 0x18D9 JUMPI DUP3 SWAP1 SUB PUSH1 0x1F AND DUP3 ADD SWAP2 JUMPDEST POP POP POP POP POP PUSH2 0x1B3E JUMP JUMPDEST PUSH2 0x193E JUMPI PUSH1 0x40 MLOAD PUSH3 0x461BCD PUSH1 0xE5 SHL DUP2 MSTORE PUSH1 0x20 PUSH1 0x4 DUP3 ADD MSTORE PUSH1 0xF PUSH1 0x24 DUP3 ADD MSTORE PUSH15 0x20B2323932B9B9903AB735B737BBB7 PUSH1 0x89 SHL PUSH1 0x44 DUP3 ADD MSTORE PUSH1 0x64 ADD PUSH2 0x8A1 JUMP JUMPDEST PUSH1 0x0 DUP3 DUP2 MSTORE PUSH1 0x7 PUSH1 0x20 SWAP1 DUP2 MSTORE PUSH1 0x40 DUP1 DUP4 KECCAK256 SWAP1 MLOAD PUSH2 0x195E SWAP3 PUSH1 0x9 SWAP2 ADD PUSH2 0x3572 JUMP JUMPDEST PUSH1 0x40 MLOAD PUSH1 0x20 DUP2 DUP4 SUB SUB DUP2 MSTORE SWAP1 PUSH1 0x40 MSTORE SWAP1 POP PUSH1 0x0 PUSH2 0x197A DUP3 PUSH2 0x2480 JUMP JUMPDEST SWAP1 POP PUSH1 0x0 PUSH2 0x1987 DUP3 PUSH2 0x2685 JUMP JUMPDEST SWAP1 POP PUSH1 0x60 PUSH2 0x19CA PUSH1 0x6 PUSH1 0x7 PUSH1 0x0 DUP10 DUP2 MSTORE PUSH1 0x20 ADD SWAP1 DUP2 MSTORE PUSH1 0x20 ADD PUSH1 0x0 KECCAK256 PUSH1 0x40 MLOAD PUSH2 0x19B0 SWAP2 SWAP1 PUSH2 0x359B JUMP JUMPDEST SWAP1 DUP2 MSTORE PUSH1 0x40 MLOAD SWAP1 DUP2 SWAP1 SUB PUSH1 0x20 ADD SWAP1 KECCAK256 DUP1 SLOAD PUSH2 0x187D SWAP1 PUSH2 0x33B9 JUMP JUMPDEST ISZERO PUSH2 0x1A8C JUMPI PUSH1 0x0 DUP7 DUP2 MSTORE PUSH1 0x7 PUSH1 0x20 MSTORE PUSH1 0x40 SWAP1 DUP2 SWAP1 KECCAK256 SWAP1 MLOAD PUSH1 0x6 SWAP2 PUSH2 0x19ED SWAP2 PUSH2 0x359B JUMP JUMPDEST SWAP1 DUP2 MSTORE PUSH1 0x40 MLOAD SWAP1 DUP2 SWAP1 SUB PUSH1 0x20 ADD SWAP1 KECCAK256 DUP1 SLOAD PUSH2 0x1A07 SWAP1 PUSH2 0x33B9 JUMP JUMPDEST DUP1 PUSH1 0x1F ADD PUSH1 0x20 DUP1 SWAP2 DIV MUL PUSH1 0x20 ADD PUSH1 0x40 MLOAD SWAP1 DUP2 ADD PUSH1 0x40 MSTORE DUP1 SWAP3 SWAP2 SWAP1 DUP2 DUP2 MSTORE PUSH1 0x20 ADD DUP3 DUP1 SLOAD PUSH2 0x1A33 SWAP1 PUSH2 0x33B9 JUMP JUMPDEST DUP1 ISZERO PUSH2 0x1A80 JUMPI DUP1 PUSH1 0x1F LT PUSH2 0x1A55 JUMPI PUSH2 0x100 DUP1 DUP4 SLOAD DIV MUL DUP4 MSTORE SWAP2 PUSH1 0x20 ADD SWAP2 PUSH2 0x1A80 JUMP JUMPDEST DUP3 ADD SWAP2 SWAP1 PUSH1 0x0 MSTORE PUSH1 0x20 PUSH1 0x0 KECCAK256 SWAP1 JUMPDEST DUP2 SLOAD DUP2 MSTORE SWAP1 PUSH1 0x1 ADD SWAP1 PUSH1 0x20 ADD DUP1 DUP4 GT PUSH2 0x1A63 JUMPI DUP3 SWAP1 SUB PUSH1 0x1F AND DUP3 ADD SWAP2 JUMPDEST POP POP POP POP POP SWAP1 POP PUSH2 0x1AE2 JUMP JUMPDEST PUSH1 0x0 PUSH1 0xF DUP6 PUSH1 0x10 PUSH1 0x40 MLOAD PUSH1 0x20 ADD PUSH2 0x1AA5 SWAP4 SWAP3 SWAP2 SWAP1 PUSH2 0x35A7 JUMP JUMPDEST PUSH1 0x40 MLOAD PUSH1 0x20 DUP2 DUP4 SUB SUB DUP2 MSTORE SWAP1 PUSH1 0x40 MSTORE SWAP1 POP PUSH2 0x1ABF DUP2 PUSH2 0x2782 JUMP JUMPDEST PUSH1 0x40 MLOAD PUSH1 0x20 ADD PUSH2 0x1ACF SWAP2 SWAP1 PUSH2 0x35DA JUMP JUMPDEST PUSH1 0x40 MLOAD PUSH1 0x20 DUP2 DUP4 SUB SUB DUP2 MSTORE SWAP1 PUSH1 0x40 MSTORE SWAP2 POP POP JUMPDEST PUSH1 0x0 PUSH2 0x1B10 DUP6 DUP4 DUP6 PUSH1 0x40 MLOAD PUSH1 0x20 ADD PUSH2 0x1AFC SWAP4 SWAP3 SWAP2 SWAP1 PUSH2 0x361F JUMP JUMPDEST PUSH1 0x40 MLOAD PUSH1 0x20 DUP2 DUP4 SUB SUB DUP2 MSTORE SWAP1 PUSH1 0x40 MSTORE PUSH2 0x2782 JUMP JUMPDEST SWAP1 POP DUP1 PUSH1 0x40 MLOAD PUSH1 0x20 ADD PUSH2 0x1B23 SWAP2 SWAP1 PUSH2 0x36F1 JUMP JUMPDEST PUSH1 0x40 MLOAD PUSH1 0x20 DUP2 DUP4 SUB SUB DUP2 MSTORE SWAP1 PUSH1 0x40 MSTORE SWAP6 POP POP POP POP POP POP SWAP2 SWAP1 POP JUMP JUMPDEST PUSH1 0x0 PUSH2 0x1B49 DUP3 PUSH2 0x2480 JUMP JUMPDEST ISZERO ISZERO SWAP3 SWAP2 POP POP JUMP JUMPDEST PUSH2 0x1B5B DUP12 DUP12 PUSH2 0x184E JUMP JUMPDEST PUSH1 0x1 PUSH1 0x1 PUSH1 0xA0 SHL SUB AND CALLER PUSH1 0x1 PUSH1 0x1 PUSH1 0xA0 SHL SUB AND EQ PUSH2 0x1B8B JUMPI PUSH1 0x40 MLOAD PUSH3 0x82B429 PUSH1 0xE8 SHL DUP2 MSTORE PUSH1 0x4 ADD PUSH1 0x40 MLOAD DUP1 SWAP2 SUB SWAP1 REVERT JUMPDEST DUP9 PUSH1 0x6 DUP13 DUP13 PUSH1 0x40 MLOAD PUSH2 0x1B9E SWAP3 SWAP2 SWAP1 PUSH2 0x33EE JUMP JUMPDEST SWAP1 DUP2 MSTORE PUSH1 0x20 ADD PUSH1 0x40 MLOAD DUP1 SWAP2 SUB SWAP1 KECCAK256 PUSH1 0x0 ADD SWAP1 DUP1 MLOAD SWAP1 PUSH1 0x20 ADD SWAP1 PUSH2 0x1BC2 SWAP3 SWAP2 SWAP1 PUSH2 0x2BDE JUMP JUMPDEST POP DUP8 DUP8 PUSH1 0x6 DUP14 DUP14 PUSH1 0x40 MLOAD PUSH2 0x1BD7 SWAP3 SWAP2 SWAP1 PUSH2 0x33EE JUMP JUMPDEST SWAP1 DUP2 MSTORE PUSH1 0x20 ADD PUSH1 0x40 MLOAD DUP1 SWAP2 SUB SWAP1 KECCAK256 PUSH1 0x1 ADD SWAP2 SWAP1 PUSH2 0x1BF5 SWAP3 SWAP2 SWAP1 PUSH2 0x2B5A JUMP JUMPDEST POP DUP6 DUP6 PUSH1 0x6 DUP14 DUP14 PUSH1 0x40 MLOAD PUSH2 0x1C0A SWAP3 SWAP2 SWAP1 PUSH2 0x33EE JUMP JUMPDEST SWAP1 DUP2 MSTORE PUSH1 0x20 ADD PUSH1 0x40 MLOAD DUP1 SWAP2 SUB SWAP1 KECCAK256 PUSH1 0x2 ADD SWAP2 SWAP1 PUSH2 0x1C28 SWAP3 SWAP2 SWAP1 PUSH2 0x2B5A JUMP JUMPDEST POP DUP4 DUP4 PUSH1 0x6 DUP14 DUP14 PUSH1 0x40 MLOAD PUSH2 0x1C3D SWAP3 SWAP2 SWAP1 PUSH2 0x33EE JUMP JUMPDEST SWAP1 DUP2 MSTORE PUSH1 0x20 ADD PUSH1 0x40 MLOAD DUP1 SWAP2 SUB SWAP1 KECCAK256 PUSH1 0x3 ADD SWAP2 SWAP1 PUSH2 0x1C5B SWAP3 SWAP2 SWAP1 PUSH2 0x2B5A JUMP JUMPDEST POP DUP2 DUP2 PUSH1 0x6 DUP14 DUP14 PUSH1 0x40 MLOAD PUSH2 0x1C70 SWAP3 SWAP2 SWAP1 PUSH2 0x33EE JUMP JUMPDEST SWAP1 DUP2 MSTORE PUSH1 0x20 ADD PUSH1 0x40 MLOAD DUP1 SWAP2 SUB SWAP1 KECCAK256 PUSH1 0x4 ADD SWAP2 SWAP1 PUSH2 0x1C8E SWAP3 SWAP2 SWAP1 PUSH2 0x2B5A JUMP JUMPDEST POP POP POP POP POP POP POP POP POP POP POP POP JUMP JUMPDEST PUSH1 0x8 DUP3 DUP3 PUSH1 0x40 MLOAD PUSH2 0x1CAE SWAP3 SWAP2 SWAP1 PUSH2 0x33EE JUMP JUMPDEST SWAP1 DUP2 MSTORE PUSH1 0x20 ADD PUSH1 0x40 MLOAD DUP1 SWAP2 SUB SWAP1 KECCAK256 SLOAD PUSH1 0x0 EQ PUSH2 0x1CDD JUMPI PUSH1 0x40 MLOAD PUSH4 0xEA075BF PUSH1 0xE2 SHL DUP2 MSTORE PUSH1 0x4 ADD PUSH1 0x40 MLOAD DUP1 SWAP2 SUB SWAP1 REVERT JUMPDEST PUSH2 0x1CE7 DUP3 DUP3 PUSH2 0x16FD JUMP JUMPDEST PUSH2 0x1D08 JUMPI DUP2 DUP2 PUSH1 0x40 MLOAD PUSH4 0x7F19F48D PUSH1 0xE0 SHL DUP2 MSTORE PUSH1 0x4 ADD PUSH2 0x8A1 SWAP3 SWAP2 SWAP1 PUSH2 0x33FE JUMP JUMPDEST PUSH1 0x40 MLOAD PUSH4 0x1FC58C33 PUSH1 0xE3 SHL DUP2 MSTORE PUSH1 0x0 SWAP1 ADDRESS SWAP1 PUSH4 0xFE2C6198 SWAP1 PUSH2 0x1D30 SWAP1 DUP7 SWAP1 DUP7 SWAP1 PUSH1 0x4 ADD PUSH2 0x33FE JUMP JUMPDEST PUSH1 0x20 PUSH1 0x40 MLOAD DUP1 DUP4 SUB DUP2 DUP7 GAS STATICCALL ISZERO DUP1 ISZERO PUSH2 0x1D4D JUMPI RETURNDATASIZE PUSH1 0x0 DUP1 RETURNDATACOPY RETURNDATASIZE PUSH1 0x0 REVERT JUMPDEST POP POP POP POP PUSH1 0x40 MLOAD RETURNDATASIZE PUSH1 0x1F NOT PUSH1 0x1F DUP3 ADD AND DUP3 ADD DUP1 PUSH1 0x40 MSTORE POP DUP2 ADD SWAP1 PUSH2 0x1D71 SWAP2 SWAP1 PUSH2 0x3736 JUMP JUMPDEST PUSH1 0xA SLOAD SWAP1 SWAP2 POP PUSH1 0x1 PUSH1 0x1 PUSH1 0xA0 SHL SUB AND CALLER EQ PUSH2 0x1DCE JUMPI DUP1 CALLVALUE LT ISZERO PUSH2 0x1DCE JUMPI PUSH1 0x40 MLOAD PUSH3 0x461BCD PUSH1 0xE5 SHL DUP2 MSTORE PUSH1 0x20 PUSH1 0x4 DUP3 ADD MSTORE PUSH1 0x15 PUSH1 0x24 DUP3 ADD MSTORE PUSH21 0x139BDD08195B9BDD59DA08199D5B991CC81C185A59 PUSH1 0x5A SHL PUSH1 0x44 DUP3 ADD MSTORE PUSH1 0x64 ADD PUSH2 0x8A1 JUMP JUMPDEST PUSH1 0x0 PUSH2 0x1DD9 PUSH1 0xB SLOAD SWAP1 JUMP JUMPDEST SWAP1 POP PUSH2 0x9E1 CALLER DUP3 PUSH2 0x224B JUMP JUMPDEST PUSH2 0x1DEF DUP6 DUP6 PUSH2 0x184E JUMP JUMPDEST PUSH1 0x1 PUSH1 0x1 PUSH1 0xA0 SHL SUB AND CALLER PUSH1 0x1 PUSH1 0x1 PUSH1 0xA0 SHL SUB AND EQ PUSH2 0x1E1F JUMPI PUSH1 0x40 MLOAD PUSH3 0x82B429 PUSH1 0xE8 SHL DUP2 MSTORE PUSH1 0x4 ADD PUSH1 0x40 MLOAD DUP1 SWAP2 SUB SWAP1 REVERT JUMPDEST PUSH1 0x0 DUP2 PUSH1 0x4 DUP2 GT ISZERO PUSH2 0x1E33 JUMPI PUSH2 0x1E33 PUSH2 0x34C2 JUMP JUMPDEST EQ ISZERO PUSH2 0x1E6D JUMPI DUP3 DUP3 PUSH1 0x6 DUP8 DUP8 PUSH1 0x40 MLOAD PUSH2 0x1E4D SWAP3 SWAP2 SWAP1 PUSH2 0x33EE JUMP JUMPDEST SWAP1 DUP2 MSTORE PUSH1 0x40 MLOAD SWAP1 DUP2 SWAP1 SUB PUSH1 0x20 ADD SWAP1 KECCAK256 PUSH2 0x1E67 SWAP3 SWAP1 SWAP2 PUSH2 0x2B5A JUMP JUMPDEST POP PUSH2 0x1F9F JUMP JUMPDEST PUSH1 0x1 DUP2 PUSH1 0x4 DUP2 GT ISZERO PUSH2 0x1E81 JUMPI PUSH2 0x1E81 PUSH2 0x34C2 JUMP JUMPDEST EQ ISZERO PUSH2 0x1EB9 JUMPI DUP3 DUP3 PUSH1 0x6 DUP8 DUP8 PUSH1 0x40 MLOAD PUSH2 0x1E9B SWAP3 SWAP2 SWAP1 PUSH2 0x33EE JUMP JUMPDEST SWAP1 DUP2 MSTORE PUSH1 0x20 ADD PUSH1 0x40 MLOAD DUP1 SWAP2 SUB SWAP1 KECCAK256 PUSH1 0x1 ADD SWAP2 SWAP1 PUSH2 0x1E67 SWAP3 SWAP2 SWAP1 PUSH2 0x2B5A JUMP JUMPDEST PUSH1 0x2 DUP2 PUSH1 0x4 DUP2 GT ISZERO PUSH2 0x1ECD JUMPI PUSH2 0x1ECD PUSH2 0x34C2 JUMP JUMPDEST EQ ISZERO PUSH2 0x1F05 JUMPI DUP3 DUP3 PUSH1 0x6 DUP8 DUP8 PUSH1 0x40 MLOAD PUSH2 0x1EE7 SWAP3 SWAP2 SWAP1 PUSH2 0x33EE JUMP JUMPDEST SWAP1 DUP2 MSTORE PUSH1 0x20 ADD PUSH1 0x40 MLOAD DUP1 SWAP2 SUB SWAP1 KECCAK256 PUSH1 0x2 ADD SWAP2 SWAP1 PUSH2 0x1E67 SWAP3 SWAP2 SWAP1 PUSH2 0x2B5A JUMP JUMPDEST PUSH1 0x3 DUP2 PUSH1 0x4 DUP2 GT ISZERO PUSH2 0x1F19 JUMPI PUSH2 0x1F19 PUSH2 0x34C2 JUMP JUMPDEST EQ ISZERO PUSH2 0x1F51 JUMPI DUP3 DUP3 PUSH1 0x6 DUP8 DUP8 PUSH1 0x40 MLOAD PUSH2 0x1F33 SWAP3 SWAP2 SWAP1 PUSH2 0x33EE JUMP JUMPDEST SWAP1 DUP2 MSTORE PUSH1 0x20 ADD PUSH1 0x40 MLOAD DUP1 SWAP2 SUB SWAP1 KECCAK256 PUSH1 0x3 ADD SWAP2 SWAP1 PUSH2 0x1E67 SWAP3 SWAP2 SWAP1 PUSH2 0x2B5A JUMP JUMPDEST PUSH1 0x4 DUP2 PUSH1 0x4 DUP2 GT ISZERO PUSH2 0x1F65 JUMPI PUSH2 0x1F65 PUSH2 0x34C2 JUMP JUMPDEST EQ ISZERO PUSH2 0x1F9F JUMPI DUP3 DUP3 PUSH1 0x6 DUP8 DUP8 PUSH1 0x40 MLOAD PUSH2 0x1F7F SWAP3 SWAP2 SWAP1 PUSH2 0x33EE JUMP JUMPDEST SWAP1 DUP2 MSTORE PUSH1 0x20 ADD PUSH1 0x40 MLOAD DUP1 SWAP2 SUB SWAP1 KECCAK256 PUSH1 0x4 ADD SWAP2 SWAP1 PUSH2 0x1F9D SWAP3 SWAP2 SWAP1 PUSH2 0x2B5A JUMP JUMPDEST POP JUMPDEST POP POP POP POP POP JUMP JUMPDEST PUSH1 0x60 PUSH1 0x0 PUSH1 0x1 PUSH2 0x1FB5 PUSH1 0xB SLOAD SWAP1 JUMP JUMPDEST PUSH2 0x1FBF SWAP2 SWAP1 PUSH2 0x374F JUMP JUMPDEST PUSH1 0x1 PUSH1 0x1 PUSH1 0x40 SHL SUB DUP2 GT ISZERO PUSH2 0x1FD6 JUMPI PUSH2 0x1FD6 PUSH2 0x2E93 JUMP JUMPDEST PUSH1 0x40 MLOAD SWAP1 DUP1 DUP3 MSTORE DUP1 PUSH1 0x20 MUL PUSH1 0x20 ADD DUP3 ADD PUSH1 0x40 MSTORE DUP1 ISZERO PUSH2 0x2009 JUMPI DUP2 PUSH1 0x20 ADD JUMPDEST PUSH1 0x60 DUP2 MSTORE PUSH1 0x20 ADD SWAP1 PUSH1 0x1 SWAP1 SUB SWAP1 DUP2 PUSH2 0x1FF4 JUMPI SWAP1 POP JUMPDEST POP SWAP1 POP PUSH1 0x1 JUMPDEST PUSH1 0xB SLOAD DUP2 LT ISZERO PUSH2 0x20EC JUMPI PUSH1 0x0 DUP2 DUP2 MSTORE PUSH1 0x7 PUSH1 0x20 MSTORE PUSH1 0x40 SWAP1 KECCAK256 DUP1 SLOAD PUSH2 0x2032 SWAP1 PUSH2 0x33B9 JUMP JUMPDEST DUP1 PUSH1 0x1F ADD PUSH1 0x20 DUP1 SWAP2 DIV MUL PUSH1 0x20 ADD PUSH1 0x40 MLOAD SWAP1 DUP2 ADD PUSH1 0x40 MSTORE DUP1 SWAP3 SWAP2 SWAP1 DUP2 DUP2 MSTORE PUSH1 0x20 ADD DUP3 DUP1 SLOAD PUSH2 0x205E SWAP1 PUSH2 0x33B9 JUMP JUMPDEST DUP1 ISZERO PUSH2 0x20AB JUMPI DUP1 PUSH1 0x1F LT PUSH2 0x2080 JUMPI PUSH2 0x100 DUP1 DUP4 SLOAD DIV MUL DUP4 MSTORE SWAP2 PUSH1 0x20 ADD SWAP2 PUSH2 0x20AB JUMP JUMPDEST DUP3 ADD SWAP2 SWAP1 PUSH1 0x0 MSTORE PUSH1 0x20 PUSH1 0x0 KECCAK256 SWAP1 JUMPDEST DUP2 SLOAD DUP2 MSTORE SWAP1 PUSH1 0x1 ADD SWAP1 PUSH1 0x20 ADD DUP1 DUP4 GT PUSH2 0x208E JUMPI DUP3 SWAP1 SUB PUSH1 0x1F AND DUP3 ADD SWAP2 JUMPDEST POP POP POP POP POP DUP3 PUSH1 0x1 DUP4 PUSH2 0x20BE SWAP2 SWAP1 PUSH2 0x374F JUMP JUMPDEST DUP2 MLOAD DUP2 LT PUSH2 0x20CE JUMPI PUSH2 0x20CE PUSH2 0x347B JUMP JUMPDEST PUSH1 0x20 MUL PUSH1 0x20 ADD ADD DUP2 SWAP1 MSTORE POP DUP1 DUP1 PUSH2 0x20E4 SWAP1 PUSH2 0x34A7 JUMP JUMPDEST SWAP2 POP POP PUSH2 0x200F JUMP JUMPDEST POP SWAP2 SWAP1 POP JUMP JUMPDEST PUSH1 0x0 DUP1 PUSH2 0x2134 DUP5 DUP5 DUP1 DUP1 PUSH1 0x1F ADD PUSH1 0x20 DUP1 SWAP2 DIV MUL PUSH1 0x20 ADD PUSH1 0x40 MLOAD SWAP1 DUP2 ADD PUSH1 0x40 MSTORE DUP1 SWAP4 SWAP3 SWAP2 SWAP1 DUP2 DUP2 MSTORE PUSH1 0x20 ADD DUP4 DUP4 DUP1 DUP3 DUP5 CALLDATACOPY PUSH1 0x0 SWAP3 ADD SWAP2 SWAP1 SWAP2 MSTORE POP PUSH2 0x2480 SWAP3 POP POP POP JUMP JUMPDEST SWAP1 POP PUSH1 0x0 DUP2 GT PUSH2 0x2143 JUMPI PUSH1 0x0 DUP1 REVERT JUMPDEST DUP1 PUSH1 0x3 EQ ISZERO PUSH2 0x2156 JUMPI POP POP PUSH1 0xC SLOAD PUSH2 0x76D JUMP JUMPDEST PUSH1 0x6 DUP2 GT PUSH2 0x2168 JUMPI POP POP PUSH1 0xD SLOAD PUSH2 0x76D JUMP JUMPDEST POP POP PUSH1 0xE SLOAD PUSH2 0x76D JUMP JUMPDEST DUP1 SLOAD PUSH1 0x1 ADD SWAP1 SSTORE JUMP JUMPDEST PUSH1 0x0 DUP2 DUP2 MSTORE PUSH1 0x2 PUSH1 0x20 MSTORE PUSH1 0x40 SWAP1 KECCAK256 SLOAD PUSH1 0x1 PUSH1 0x1 PUSH1 0xA0 SHL SUB AND PUSH2 0x21DA JUMPI PUSH1 0x40 MLOAD PUSH3 0x461BCD PUSH1 0xE5 SHL DUP2 MSTORE PUSH1 0x20 PUSH1 0x4 DUP3 ADD MSTORE PUSH1 0x18 PUSH1 0x24 DUP3 ADD MSTORE PUSH24 0x115490CDCC8C4E881A5B9D985B1A59081D1BDAD95B881251 PUSH1 0x42 SHL PUSH1 0x44 DUP3 ADD MSTORE PUSH1 0x64 ADD PUSH2 0x8A1 JUMP JUMPDEST POP JUMP JUMPDEST PUSH1 0x0 DUP2 DUP2 MSTORE PUSH1 0x4 PUSH1 0x20 MSTORE PUSH1 0x40 SWAP1 KECCAK256 DUP1 SLOAD PUSH1 0x1 PUSH1 0x1 PUSH1 0xA0 SHL SUB NOT AND PUSH1 0x1 PUSH1 0x1 PUSH1 0xA0 SHL SUB DUP5 AND SWAP1 DUP2 OR SWAP1 SWAP2 SSTORE DUP2 SWAP1 PUSH2 0x2212 DUP3 PUSH2 0xF9B JUMP JUMPDEST PUSH1 0x1 PUSH1 0x1 PUSH1 0xA0 SHL SUB AND PUSH32 0x8C5BE1E5EBEC7D5BD14F71427D1E84F3DD0314C0F7B2291E5B200AC8C7C3B925 PUSH1 0x40 MLOAD PUSH1 0x40 MLOAD DUP1 SWAP2 SUB SWAP1 LOG4 POP POP JUMP JUMPDEST PUSH2 0xBA2 DUP3 DUP3 PUSH1 0x40 MLOAD DUP1 PUSH1 0x20 ADD PUSH1 0x40 MSTORE DUP1 PUSH1 0x0 DUP2 MSTORE POP PUSH2 0x28E7 JUMP JUMPDEST PUSH1 0x0 DUP1 PUSH2 0x2271 DUP4 PUSH2 0xF9B JUMP JUMPDEST SWAP1 POP DUP1 PUSH1 0x1 PUSH1 0x1 PUSH1 0xA0 SHL SUB AND DUP5 PUSH1 0x1 PUSH1 0x1 PUSH1 0xA0 SHL SUB AND EQ DUP1 PUSH2 0x22B8 JUMPI POP PUSH1 0x1 PUSH1 0x1 PUSH1 0xA0 SHL SUB DUP1 DUP3 AND PUSH1 0x0 SWAP1 DUP2 MSTORE PUSH1 0x5 PUSH1 0x20 SWAP1 DUP2 MSTORE PUSH1 0x40 DUP1 DUP4 KECCAK256 SWAP4 DUP9 AND DUP4 MSTORE SWAP3 SWAP1 MSTORE KECCAK256 SLOAD PUSH1 0xFF AND JUMPDEST DUP1 PUSH2 0x22DC JUMPI POP DUP4 PUSH1 0x1 PUSH1 0x1 PUSH1 0xA0 SHL SUB AND PUSH2 0x22D1 DUP5 PUSH2 0x805 JUMP JUMPDEST PUSH1 0x1 PUSH1 0x1 PUSH1 0xA0 SHL SUB AND EQ JUMPDEST SWAP5 SWAP4 POP POP POP POP JUMP JUMPDEST DUP3 PUSH1 0x1 PUSH1 0x1 PUSH1 0xA0 SHL SUB AND PUSH2 0x22F7 DUP3 PUSH2 0xF9B JUMP JUMPDEST PUSH1 0x1 PUSH1 0x1 PUSH1 0xA0 SHL SUB AND EQ PUSH2 0x235B JUMPI PUSH1 0x40 MLOAD PUSH3 0x461BCD PUSH1 0xE5 SHL DUP2 MSTORE PUSH1 0x20 PUSH1 0x4 DUP3 ADD MSTORE PUSH1 0x25 PUSH1 0x24 DUP3 ADD MSTORE PUSH32 0x4552433732313A207472616E736665722066726F6D20696E636F727265637420 PUSH1 0x44 DUP3 ADD MSTORE PUSH5 0x37BBB732B9 PUSH1 0xD9 SHL PUSH1 0x64 DUP3 ADD MSTORE PUSH1 0x84 ADD PUSH2 0x8A1 JUMP JUMPDEST PUSH1 0x1 PUSH1 0x1 PUSH1 0xA0 SHL SUB DUP3 AND PUSH2 0x23BD JUMPI PUSH1 0x40 MLOAD PUSH3 0x461BCD PUSH1 0xE5 SHL DUP2 MSTORE PUSH1 0x20 PUSH1 0x4 DUP3 ADD MSTORE PUSH1 0x24 DUP1 DUP3 ADD MSTORE PUSH32 0x4552433732313A207472616E7366657220746F20746865207A65726F20616464 PUSH1 0x44 DUP3 ADD MSTORE PUSH4 0x72657373 PUSH1 0xE0 SHL PUSH1 0x64 DUP3 ADD MSTORE PUSH1 0x84 ADD PUSH2 0x8A1 JUMP JUMPDEST PUSH2 0x23C8 PUSH1 0x0 DUP3 PUSH2 0x21DD JUMP JUMPDEST PUSH1 0x1 PUSH1 0x1 PUSH1 0xA0 SHL SUB DUP4 AND PUSH1 0x0 SWAP1 DUP2 MSTORE PUSH1 0x3 PUSH1 0x20 MSTORE PUSH1 0x40 DUP2 KECCAK256 DUP1 SLOAD PUSH1 0x1 SWAP3 SWAP1 PUSH2 0x23F1 SWAP1 DUP5 SWAP1 PUSH2 0x374F JUMP JUMPDEST SWAP1 SWAP2 SSTORE POP POP PUSH1 0x1 PUSH1 0x1 PUSH1 0xA0 SHL SUB DUP3 AND PUSH1 0x0 SWAP1 DUP2 MSTORE PUSH1 0x3 PUSH1 0x20 MSTORE PUSH1 0x40 DUP2 KECCAK256 DUP1 SLOAD PUSH1 0x1 SWAP3 SWAP1 PUSH2 0x241F SWAP1 DUP5 SWAP1 PUSH2 0x3766 JUMP JUMPDEST SWAP1 SWAP2 SSTORE POP POP PUSH1 0x0 DUP2 DUP2 MSTORE PUSH1 0x2 PUSH1 0x20 MSTORE PUSH1 0x40 DUP1 DUP3 KECCAK256 DUP1 SLOAD PUSH1 0x1 PUSH1 0x1 PUSH1 0xA0 SHL SUB NOT AND PUSH1 0x1 PUSH1 0x1 PUSH1 0xA0 SHL SUB DUP7 DUP2 AND SWAP2 DUP3 OR SWAP1 SWAP3 SSTORE SWAP2 MLOAD DUP5 SWAP4 SWAP2 DUP8 AND SWAP2 PUSH32 0xDDF252AD1BE2C89B69C2B068FC378DAA952BA7F163C4A11628F55A4DF523B3EF SWAP2 LOG4 POP POP POP JUMP JUMPDEST DUP1 MLOAD PUSH1 0x0 SWAP1 DUP2 SWAP1 DUP2 SWAP1 JUMPDEST DUP1 DUP3 LT ISZERO PUSH2 0x257A JUMPI PUSH1 0x0 DUP6 DUP4 DUP2 MLOAD DUP2 LT PUSH2 0x24A6 JUMPI PUSH2 0x24A6 PUSH2 0x347B JUMP JUMPDEST ADD PUSH1 0x20 ADD MLOAD PUSH1 0x1 PUSH1 0x1 PUSH1 0xF8 SHL SUB NOT AND SWAP1 POP PUSH1 0x1 PUSH1 0xFF SHL DUP2 LT ISZERO PUSH2 0x24D5 JUMPI PUSH2 0x24CE PUSH1 0x1 DUP5 PUSH2 0x3766 JUMP JUMPDEST SWAP3 POP PUSH2 0x2567 JUMP JUMPDEST PUSH1 0x7 PUSH1 0xFD SHL PUSH1 0x1 PUSH1 0x1 PUSH1 0xF8 SHL SUB NOT DUP3 AND LT ISZERO PUSH2 0x24F6 JUMPI PUSH2 0x24CE PUSH1 0x2 DUP5 PUSH2 0x3766 JUMP JUMPDEST PUSH1 0xF PUSH1 0xFC SHL PUSH1 0x1 PUSH1 0x1 PUSH1 0xF8 SHL SUB NOT DUP3 AND LT ISZERO PUSH2 0x2517 JUMPI PUSH2 0x24CE PUSH1 0x3 DUP5 PUSH2 0x3766 JUMP JUMPDEST PUSH1 0x1F PUSH1 0xFB SHL PUSH1 0x1 PUSH1 0x1 PUSH1 0xF8 SHL SUB NOT DUP3 AND LT ISZERO PUSH2 0x2538 JUMPI PUSH2 0x24CE PUSH1 0x4 DUP5 PUSH2 0x3766 JUMP JUMPDEST PUSH1 0x3F PUSH1 0xFA SHL PUSH1 0x1 PUSH1 0x1 PUSH1 0xF8 SHL SUB NOT DUP3 AND LT ISZERO PUSH2 0x2559 JUMPI PUSH2 0x24CE PUSH1 0x5 DUP5 PUSH2 0x3766 JUMP JUMPDEST PUSH2 0x2564 PUSH1 0x6 DUP5 PUSH2 0x3766 JUMP JUMPDEST SWAP3 POP JUMPDEST POP DUP3 PUSH2 0x2572 DUP2 PUSH2 0x34A7 JUMP JUMPDEST SWAP4 POP POP PUSH2 0x248A JUMP JUMPDEST POP SWAP1 SWAP4 SWAP3 POP POP POP JUMP JUMPDEST DUP2 PUSH1 0x1 PUSH1 0x1 PUSH1 0xA0 SHL SUB AND DUP4 PUSH1 0x1 PUSH1 0x1 PUSH1 0xA0 SHL SUB AND EQ ISZERO PUSH2 0x25E5 JUMPI PUSH1 0x40 MLOAD PUSH3 0x461BCD PUSH1 0xE5 SHL DUP2 MSTORE PUSH1 0x20 PUSH1 0x4 DUP3 ADD MSTORE PUSH1 0x19 PUSH1 0x24 DUP3 ADD MSTORE PUSH32 0x4552433732313A20617070726F766520746F2063616C6C657200000000000000 PUSH1 0x44 DUP3 ADD MSTORE PUSH1 0x64 ADD PUSH2 0x8A1 JUMP JUMPDEST PUSH1 0x1 PUSH1 0x1 PUSH1 0xA0 SHL SUB DUP4 DUP2 AND PUSH1 0x0 DUP2 DUP2 MSTORE PUSH1 0x5 PUSH1 0x20 SWAP1 DUP2 MSTORE PUSH1 0x40 DUP1 DUP4 KECCAK256 SWAP5 DUP8 AND DUP1 DUP5 MSTORE SWAP5 DUP3 MSTORE SWAP2 DUP3 SWAP1 KECCAK256 DUP1 SLOAD PUSH1 0xFF NOT AND DUP7 ISZERO ISZERO SWAP1 DUP2 OR SWAP1 SWAP2 SSTORE SWAP2 MLOAD SWAP2 DUP3 MSTORE PUSH32 0x17307EAB39AB6107E8899845AD3D59BD9653F200F220920489CA2B5937696C31 SWAP2 ADD PUSH1 0x40 MLOAD DUP1 SWAP2 SUB SWAP1 LOG3 POP POP POP JUMP JUMPDEST PUSH2 0x265D DUP5 DUP5 DUP5 PUSH2 0x22E4 JUMP JUMPDEST PUSH2 0x2669 DUP5 DUP5 DUP5 DUP5 PUSH2 0x291A JUMP JUMPDEST PUSH2 0xA2C JUMPI PUSH1 0x40 MLOAD PUSH3 0x461BCD PUSH1 0xE5 SHL DUP2 MSTORE PUSH1 0x4 ADD PUSH2 0x8A1 SWAP1 PUSH2 0x377E JUMP JUMPDEST PUSH1 0x60 DUP2 PUSH2 0x26A9 JUMPI POP POP PUSH1 0x40 DUP1 MLOAD DUP1 DUP3 ADD SWAP1 SWAP2 MSTORE PUSH1 0x1 DUP2 MSTORE PUSH1 0x3 PUSH1 0xFC SHL PUSH1 0x20 DUP3 ADD MSTORE SWAP1 JUMP JUMPDEST DUP2 PUSH1 0x0 JUMPDEST DUP2 ISZERO PUSH2 0x26D3 JUMPI DUP1 PUSH2 0x26BD DUP2 PUSH2 0x34A7 JUMP JUMPDEST SWAP2 POP PUSH2 0x26CC SWAP1 POP PUSH1 0xA DUP4 PUSH2 0x37E6 JUMP JUMPDEST SWAP2 POP PUSH2 0x26AD JUMP JUMPDEST PUSH1 0x0 DUP2 PUSH1 0x1 PUSH1 0x1 PUSH1 0x40 SHL SUB DUP2 GT ISZERO PUSH2 0x26ED JUMPI PUSH2 0x26ED PUSH2 0x2E93 JUMP JUMPDEST PUSH1 0x40 MLOAD SWAP1 DUP1 DUP3 MSTORE DUP1 PUSH1 0x1F ADD PUSH1 0x1F NOT AND PUSH1 0x20 ADD DUP3 ADD PUSH1 0x40 MSTORE DUP1 ISZERO PUSH2 0x2717 JUMPI PUSH1 0x20 DUP3 ADD DUP2 DUP1 CALLDATASIZE DUP4 CALLDATACOPY ADD SWAP1 POP JUMPDEST POP SWAP1 POP JUMPDEST DUP5 ISZERO PUSH2 0x22DC JUMPI PUSH2 0x272C PUSH1 0x1 DUP4 PUSH2 0x374F JUMP JUMPDEST SWAP2 POP PUSH2 0x2739 PUSH1 0xA DUP7 PUSH2 0x37FA JUMP JUMPDEST PUSH2 0x2744 SWAP1 PUSH1 0x30 PUSH2 0x3766 JUMP JUMPDEST PUSH1 0xF8 SHL DUP2 DUP4 DUP2 MLOAD DUP2 LT PUSH2 0x2759 JUMPI PUSH2 0x2759 PUSH2 0x347B JUMP JUMPDEST PUSH1 0x20 ADD ADD SWAP1 PUSH1 0x1 PUSH1 0x1 PUSH1 0xF8 SHL SUB NOT AND SWAP1 DUP2 PUSH1 0x0 BYTE SWAP1 MSTORE8 POP PUSH2 0x277B PUSH1 0xA DUP7 PUSH2 0x37E6 JUMP JUMPDEST SWAP5 POP PUSH2 0x271B JUMP JUMPDEST DUP1 MLOAD PUSH1 0x60 SWAP1 DUP1 PUSH2 0x27A2 JUMPI POP POP PUSH1 0x40 DUP1 MLOAD PUSH1 0x20 DUP2 ADD SWAP1 SWAP2 MSTORE PUSH1 0x0 DUP2 MSTORE SWAP2 SWAP1 POP JUMP JUMPDEST PUSH1 0x0 PUSH1 0x3 PUSH2 0x27B1 DUP4 PUSH1 0x2 PUSH2 0x3766 JUMP JUMPDEST PUSH2 0x27BB SWAP2 SWAP1 PUSH2 0x37E6 JUMP JUMPDEST PUSH2 0x27C6 SWAP1 PUSH1 0x4 PUSH2 0x380E JUMP JUMPDEST SWAP1 POP PUSH1 0x0 PUSH2 0x27D5 DUP3 PUSH1 0x20 PUSH2 0x3766 JUMP JUMPDEST PUSH1 0x1 PUSH1 0x1 PUSH1 0x40 SHL SUB DUP2 GT ISZERO PUSH2 0x27EC JUMPI PUSH2 0x27EC PUSH2 0x2E93 JUMP JUMPDEST PUSH1 0x40 MLOAD SWAP1 DUP1 DUP3 MSTORE DUP1 PUSH1 0x1F ADD PUSH1 0x1F NOT AND PUSH1 0x20 ADD DUP3 ADD PUSH1 0x40 MSTORE DUP1 ISZERO PUSH2 0x2816 JUMPI PUSH1 0x20 DUP3 ADD DUP2 DUP1 CALLDATASIZE DUP4 CALLDATACOPY ADD SWAP1 POP JUMPDEST POP SWAP1 POP PUSH1 0x0 PUSH1 0x40 MLOAD DUP1 PUSH1 0x60 ADD PUSH1 0x40 MSTORE DUP1 PUSH1 0x40 DUP2 MSTORE PUSH1 0x20 ADD PUSH2 0x3888 PUSH1 0x40 SWAP2 CODECOPY SWAP1 POP PUSH1 0x1 DUP2 ADD PUSH1 0x20 DUP4 ADD PUSH1 0x0 JUMPDEST DUP7 DUP2 LT ISZERO PUSH2 0x28A2 JUMPI PUSH1 0x3 DUP2 DUP11 ADD DUP2 ADD MLOAD PUSH1 0x3F PUSH1 0x12 DUP3 SWAP1 SHR DUP2 AND DUP7 ADD MLOAD PUSH1 0xC DUP4 SWAP1 SHR DUP3 AND DUP8 ADD MLOAD PUSH1 0x6 DUP5 SWAP1 SHR DUP4 AND DUP9 ADD MLOAD SWAP3 SWAP1 SWAP4 AND DUP8 ADD MLOAD PUSH1 0x8 SWAP2 DUP3 SHL PUSH1 0xFF SWAP5 DUP6 AND ADD DUP3 SHL SWAP3 DUP5 AND SWAP3 SWAP1 SWAP3 ADD SWAP1 SHL SWAP2 AND ADD PUSH1 0xE0 SHL DUP4 MSTORE PUSH1 0x4 SWAP1 SWAP3 ADD SWAP2 ADD PUSH2 0x2841 JUMP JUMPDEST POP PUSH1 0x3 DUP7 MOD PUSH1 0x1 DUP2 EQ PUSH2 0x28BC JUMPI PUSH1 0x2 DUP2 EQ PUSH2 0x28CD JUMPI PUSH2 0x28D9 JUMP JUMPDEST PUSH2 0x3D3D PUSH1 0xF0 SHL PUSH1 0x1 NOT DUP4 ADD MSTORE PUSH2 0x28D9 JUMP JUMPDEST PUSH1 0x3D PUSH1 0xF8 SHL PUSH1 0x0 NOT DUP4 ADD MSTORE JUMPDEST POP POP POP SWAP2 DUP2 MSTORE SWAP5 SWAP4 POP POP POP POP JUMP JUMPDEST PUSH2 0x28F1 DUP4 DUP4 PUSH2 0x2A18 JUMP JUMPDEST PUSH2 0x28FE PUSH1 0x0 DUP5 DUP5 DUP5 PUSH2 0x291A JUMP JUMPDEST PUSH2 0x942 JUMPI PUSH1 0x40 MLOAD PUSH3 0x461BCD PUSH1 0xE5 SHL DUP2 MSTORE PUSH1 0x4 ADD PUSH2 0x8A1 SWAP1 PUSH2 0x377E JUMP JUMPDEST PUSH1 0x0 PUSH1 0x1 PUSH1 0x1 PUSH1 0xA0 SHL SUB DUP5 AND EXTCODESIZE ISZERO PUSH2 0x2A0D JUMPI PUSH1 0x40 MLOAD PUSH4 0xA85BD01 PUSH1 0xE1 SHL DUP2 MSTORE PUSH1 0x1 PUSH1 0x1 PUSH1 0xA0 SHL SUB DUP6 AND SWAP1 PUSH4 0x150B7A02 SWAP1 PUSH2 0x295E SWAP1 CALLER SWAP1 DUP10 SWAP1 DUP9 SWAP1 DUP9 SWAP1 PUSH1 0x4 ADD PUSH2 0x382D JUMP JUMPDEST PUSH1 0x20 PUSH1 0x40 MLOAD DUP1 DUP4 SUB DUP2 PUSH1 0x0 DUP8 GAS CALL SWAP3 POP POP POP DUP1 ISZERO PUSH2 0x2999 JUMPI POP PUSH1 0x40 DUP1 MLOAD PUSH1 0x1F RETURNDATASIZE SWAP1 DUP2 ADD PUSH1 0x1F NOT AND DUP3 ADD SWAP1 SWAP3 MSTORE PUSH2 0x2996 SWAP2 DUP2 ADD SWAP1 PUSH2 0x386A JUMP JUMPDEST PUSH1 0x1 JUMPDEST PUSH2 0x29F3 JUMPI RETURNDATASIZE DUP1 DUP1 ISZERO PUSH2 0x29C7 JUMPI PUSH1 0x40 MLOAD SWAP2 POP PUSH1 0x1F NOT PUSH1 0x3F RETURNDATASIZE ADD AND DUP3 ADD PUSH1 0x40 MSTORE RETURNDATASIZE DUP3 MSTORE RETURNDATASIZE PUSH1 0x0 PUSH1 0x20 DUP5 ADD RETURNDATACOPY PUSH2 0x29CC JUMP JUMPDEST PUSH1 0x60 SWAP2 POP JUMPDEST POP DUP1 MLOAD PUSH2 0x29EB JUMPI PUSH1 0x40 MLOAD PUSH3 0x461BCD PUSH1 0xE5 SHL DUP2 MSTORE PUSH1 0x4 ADD PUSH2 0x8A1 SWAP1 PUSH2 0x377E JUMP JUMPDEST DUP1 MLOAD DUP2 PUSH1 0x20 ADD REVERT JUMPDEST PUSH1 0x1 PUSH1 0x1 PUSH1 0xE0 SHL SUB NOT AND PUSH4 0xA85BD01 PUSH1 0xE1 SHL EQ SWAP1 POP PUSH2 0x22DC JUMP JUMPDEST POP PUSH1 0x1 SWAP5 SWAP4 POP POP POP POP JUMP JUMPDEST PUSH1 0x1 PUSH1 0x1 PUSH1 0xA0 SHL SUB DUP3 AND PUSH2 0x2A6E JUMPI PUSH1 0x40 MLOAD PUSH3 0x461BCD PUSH1 0xE5 SHL DUP2 MSTORE PUSH1 0x20 PUSH1 0x4 DUP3 ADD DUP2 SWAP1 MSTORE PUSH1 0x24 DUP3 ADD MSTORE PUSH32 0x4552433732313A206D696E7420746F20746865207A65726F2061646472657373 PUSH1 0x44 DUP3 ADD MSTORE PUSH1 0x64 ADD PUSH2 0x8A1 JUMP JUMPDEST PUSH1 0x0 DUP2 DUP2 MSTORE PUSH1 0x2 PUSH1 0x20 MSTORE PUSH1 0x40 SWAP1 KECCAK256 SLOAD PUSH1 0x1 PUSH1 0x1 PUSH1 0xA0 SHL SUB AND ISZERO PUSH2 0x2AD3 JUMPI PUSH1 0x40 MLOAD PUSH3 0x461BCD PUSH1 0xE5 SHL DUP2 MSTORE PUSH1 0x20 PUSH1 0x4 DUP3 ADD MSTORE PUSH1 0x1C PUSH1 0x24 DUP3 ADD MSTORE PUSH32 0x4552433732313A20746F6B656E20616C7265616479206D696E74656400000000 PUSH1 0x44 DUP3 ADD MSTORE PUSH1 0x64 ADD PUSH2 0x8A1 JUMP JUMPDEST PUSH1 0x1 PUSH1 0x1 PUSH1 0xA0 SHL SUB DUP3 AND PUSH1 0x0 SWAP1 DUP2 MSTORE PUSH1 0x3 PUSH1 0x20 MSTORE PUSH1 0x40 DUP2 KECCAK256 DUP1 SLOAD PUSH1 0x1 SWAP3 SWAP1 PUSH2 0x2AFC SWAP1 DUP5 SWAP1 PUSH2 0x3766 JUMP JUMPDEST SWAP1 SWAP2 SSTORE POP POP PUSH1 0x0 DUP2 DUP2 MSTORE PUSH1 0x2 PUSH1 0x20 MSTORE PUSH1 0x40 DUP1 DUP3 KECCAK256 DUP1 SLOAD PUSH1 0x1 PUSH1 0x1 PUSH1 0xA0 SHL SUB NOT AND PUSH1 0x1 PUSH1 0x1 PUSH1 0xA0 SHL SUB DUP7 AND SWAP1 DUP2 OR SWAP1 SWAP2 SSTORE SWAP1 MLOAD DUP4 SWAP3 SWAP1 PUSH32 0xDDF252AD1BE2C89B69C2B068FC378DAA952BA7F163C4A11628F55A4DF523B3EF SWAP1 DUP3 SWAP1 LOG4 POP POP JUMP JUMPDEST DUP3 DUP1 SLOAD PUSH2 0x2B66 SWAP1 PUSH2 0x33B9 JUMP JUMPDEST SWAP1 PUSH1 0x0 MSTORE PUSH1 0x20 PUSH1 0x0 KECCAK256 SWAP1 PUSH1 0x1F ADD PUSH1 0x20 SWAP1 DIV DUP2 ADD SWAP3 DUP3 PUSH2 0x2B88 JUMPI PUSH1 0x0 DUP6 SSTORE PUSH2 0x2BCE JUMP JUMPDEST DUP3 PUSH1 0x1F LT PUSH2 0x2BA1 JUMPI DUP3 DUP1 ADD PUSH1 0xFF NOT DUP3 CALLDATALOAD AND OR DUP6 SSTORE PUSH2 0x2BCE JUMP JUMPDEST DUP3 DUP1 ADD PUSH1 0x1 ADD DUP6 SSTORE DUP3 ISZERO PUSH2 0x2BCE JUMPI SWAP2 DUP3 ADD JUMPDEST DUP3 DUP2 GT ISZERO PUSH2 0x2BCE JUMPI DUP3 CALLDATALOAD DUP3 SSTORE SWAP2 PUSH1 0x20 ADD SWAP2 SWAP1 PUSH1 0x1 ADD SWAP1 PUSH2 0x2BB3 JUMP JUMPDEST POP PUSH2 0x2BDA SWAP3 SWAP2 POP PUSH2 0x2C52 JUMP JUMPDEST POP SWAP1 JUMP JUMPDEST DUP3 DUP1 SLOAD PUSH2 0x2BEA SWAP1 PUSH2 0x33B9 JUMP JUMPDEST SWAP1 PUSH1 0x0 MSTORE PUSH1 0x20 PUSH1 0x0 KECCAK256 SWAP1 PUSH1 0x1F ADD PUSH1 0x20 SWAP1 DIV DUP2 ADD SWAP3 DUP3 PUSH2 0x2C0C JUMPI PUSH1 0x0 DUP6 SSTORE PUSH2 0x2BCE JUMP JUMPDEST DUP3 PUSH1 0x1F LT PUSH2 0x2C25 JUMPI DUP1 MLOAD PUSH1 0xFF NOT AND DUP4 DUP1 ADD OR DUP6 SSTORE PUSH2 0x2BCE JUMP JUMPDEST DUP3 DUP1 ADD PUSH1 0x1 ADD DUP6 SSTORE DUP3 ISZERO PUSH2 0x2BCE JUMPI SWAP2 DUP3 ADD JUMPDEST DUP3 DUP2 GT ISZERO PUSH2 0x2BCE JUMPI DUP3 MLOAD DUP3 SSTORE SWAP2 PUSH1 0x20 ADD SWAP2 SWAP1 PUSH1 0x1 ADD SWAP1 PUSH2 0x2C37 JUMP JUMPDEST JUMPDEST DUP1 DUP3 GT ISZERO PUSH2 0x2BDA JUMPI PUSH1 0x0 DUP2 SSTORE PUSH1 0x1 ADD PUSH2 0x2C53 JUMP JUMPDEST PUSH1 0x1 PUSH1 0x1 PUSH1 0xE0 SHL SUB NOT DUP2 AND DUP2 EQ PUSH2 0x21DA JUMPI PUSH1 0x0 DUP1 REVERT JUMPDEST PUSH1 0x0 PUSH1 0x20 DUP3 DUP5 SUB SLT ISZERO PUSH2 0x2C8F JUMPI PUSH1 0x0 DUP1 REVERT JUMPDEST DUP2 CALLDATALOAD PUSH2 0x16F6 DUP2 PUSH2 0x2C67 JUMP JUMPDEST PUSH1 0x0 JUMPDEST DUP4 DUP2 LT ISZERO PUSH2 0x2CB5 JUMPI DUP2 DUP2 ADD MLOAD DUP4 DUP3 ADD MSTORE PUSH1 0x20 ADD PUSH2 0x2C9D JUMP JUMPDEST DUP4 DUP2 GT ISZERO PUSH2 0xA2C JUMPI POP POP PUSH1 0x0 SWAP2 ADD MSTORE JUMP JUMPDEST PUSH1 0x0 DUP2 MLOAD DUP1 DUP5 MSTORE PUSH2 0x2CDE DUP2 PUSH1 0x20 DUP7 ADD PUSH1 0x20 DUP7 ADD PUSH2 0x2C9A JUMP JUMPDEST PUSH1 0x1F ADD PUSH1 0x1F NOT AND SWAP3 SWAP1 SWAP3 ADD PUSH1 0x20 ADD SWAP3 SWAP2 POP POP JUMP JUMPDEST PUSH1 0x20 DUP2 MSTORE PUSH1 0x0 PUSH2 0x16F6 PUSH1 0x20 DUP4 ADD DUP5 PUSH2 0x2CC6 JUMP JUMPDEST PUSH1 0x0 PUSH1 0x20 DUP3 DUP5 SUB SLT ISZERO PUSH2 0x2D17 JUMPI PUSH1 0x0 DUP1 REVERT JUMPDEST POP CALLDATALOAD SWAP2 SWAP1 POP JUMP JUMPDEST DUP1 CALLDATALOAD PUSH1 0x1 PUSH1 0x1 PUSH1 0xA0 SHL SUB DUP2 AND DUP2 EQ PUSH2 0x2D35 JUMPI PUSH1 0x0 DUP1 REVERT JUMPDEST SWAP2 SWAP1 POP JUMP JUMPDEST PUSH1 0x0 DUP1 PUSH1 0x40 DUP4 DUP6 SUB SLT ISZERO PUSH2 0x2D4D JUMPI PUSH1 0x0 DUP1 REVERT JUMPDEST PUSH2 0x2D56 DUP4 PUSH2 0x2D1E JUMP JUMPDEST SWAP5 PUSH1 0x20 SWAP4 SWAP1 SWAP4 ADD CALLDATALOAD SWAP4 POP POP POP JUMP JUMPDEST PUSH1 0x0 DUP1 DUP4 PUSH1 0x1F DUP5 ADD SLT PUSH2 0x2D76 JUMPI PUSH1 0x0 DUP1 REVERT JUMPDEST POP DUP2 CALLDATALOAD PUSH1 0x1 PUSH1 0x1 PUSH1 0x40 SHL SUB DUP2 GT ISZERO PUSH2 0x2D8D JUMPI PUSH1 0x0 DUP1 REVERT JUMPDEST PUSH1 0x20 DUP4 ADD SWAP2 POP DUP4 PUSH1 0x20 DUP3 DUP6 ADD ADD GT ISZERO PUSH2 0x14B8 JUMPI PUSH1 0x0 DUP1 REVERT JUMPDEST PUSH1 0x0 DUP1 PUSH1 0x0 PUSH1 0x40 DUP5 DUP7 SUB SLT ISZERO PUSH2 0x2DBA JUMPI PUSH1 0x0 DUP1 REVERT JUMPDEST DUP4 CALLDATALOAD PUSH1 0x1 PUSH1 0x1 PUSH1 0x40 SHL SUB DUP2 GT ISZERO PUSH2 0x2DD0 JUMPI PUSH1 0x0 DUP1 REVERT JUMPDEST PUSH2 0x2DDC DUP7 DUP3 DUP8 ADD PUSH2 0x2D64 JUMP JUMPDEST SWAP1 SWAP5 POP SWAP3 POP PUSH2 0x2DEF SWAP1 POP PUSH1 0x20 DUP6 ADD PUSH2 0x2D1E JUMP JUMPDEST SWAP1 POP SWAP3 POP SWAP3 POP SWAP3 JUMP JUMPDEST PUSH1 0x0 DUP1 PUSH1 0x0 PUSH1 0x60 DUP5 DUP7 SUB SLT ISZERO PUSH2 0x2E0D JUMPI PUSH1 0x0 DUP1 REVERT JUMPDEST PUSH2 0x2E16 DUP5 PUSH2 0x2D1E JUMP JUMPDEST SWAP3 POP PUSH2 0x2E24 PUSH1 0x20 DUP6 ADD PUSH2 0x2D1E JUMP JUMPDEST SWAP2 POP PUSH1 0x40 DUP5 ADD CALLDATALOAD SWAP1 POP SWAP3 POP SWAP3 POP SWAP3 JUMP JUMPDEST PUSH1 0x0 PUSH1 0x20 DUP3 DUP5 SUB SLT ISZERO PUSH2 0x2E46 JUMPI PUSH1 0x0 DUP1 REVERT JUMPDEST PUSH2 0x16F6 DUP3 PUSH2 0x2D1E JUMP JUMPDEST PUSH1 0x20 DUP1 DUP3 MSTORE DUP3 MLOAD DUP3 DUP3 ADD DUP2 SWAP1 MSTORE PUSH1 0x0 SWAP2 SWAP1 DUP5 DUP3 ADD SWAP1 PUSH1 0x40 DUP6 ADD SWAP1 DUP5 JUMPDEST DUP2 DUP2 LT ISZERO PUSH2 0x2E87 JUMPI DUP4 MLOAD DUP4 MSTORE SWAP3 DUP5 ADD SWAP3 SWAP2 DUP5 ADD SWAP2 PUSH1 0x1 ADD PUSH2 0x2E6B JUMP JUMPDEST POP SWAP1 SWAP7 SWAP6 POP POP POP POP POP POP JUMP JUMPDEST PUSH4 0x4E487B71 PUSH1 0xE0 SHL PUSH1 0x0 MSTORE PUSH1 0x41 PUSH1 0x4 MSTORE PUSH1 0x24 PUSH1 0x0 REVERT JUMPDEST PUSH1 0x0 PUSH1 0x1 PUSH1 0x1 PUSH1 0x40 SHL SUB DUP1 DUP5 GT ISZERO PUSH2 0x2EC3 JUMPI PUSH2 0x2EC3 PUSH2 0x2E93 JUMP JUMPDEST PUSH1 0x40 MLOAD PUSH1 0x1F DUP6 ADD PUSH1 0x1F NOT SWAP1 DUP2 AND PUSH1 0x3F ADD AND DUP2 ADD SWAP1 DUP3 DUP3 GT DUP2 DUP4 LT OR ISZERO PUSH2 0x2EEB JUMPI PUSH2 0x2EEB PUSH2 0x2E93 JUMP JUMPDEST DUP2 PUSH1 0x40 MSTORE DUP1 SWAP4 POP DUP6 DUP2 MSTORE DUP7 DUP7 DUP7 ADD GT ISZERO PUSH2 0x2F04 JUMPI PUSH1 0x0 DUP1 REVERT JUMPDEST DUP6 DUP6 PUSH1 0x20 DUP4 ADD CALLDATACOPY PUSH1 0x0 PUSH1 0x20 DUP8 DUP4 ADD ADD MSTORE POP POP POP SWAP4 SWAP3 POP POP POP JUMP JUMPDEST PUSH1 0x0 DUP3 PUSH1 0x1F DUP4 ADD SLT PUSH2 0x2F2F JUMPI PUSH1 0x0 DUP1 REVERT JUMPDEST PUSH2 0x16F6 DUP4 DUP4 CALLDATALOAD PUSH1 0x20 DUP6 ADD PUSH2 0x2EA9 JUMP JUMPDEST PUSH1 0x0 PUSH1 0x20 DUP3 DUP5 SUB SLT ISZERO PUSH2 0x2F50 JUMPI PUSH1 0x0 DUP1 REVERT JUMPDEST DUP2 CALLDATALOAD PUSH1 0x1 PUSH1 0x1 PUSH1 0x40 SHL SUB DUP2 GT ISZERO PUSH2 0x2F66 JUMPI PUSH1 0x0 DUP1 REVERT JUMPDEST PUSH2 0x22DC DUP5 DUP3 DUP6 ADD PUSH2 0x2F1E JUMP JUMPDEST PUSH1 0xA0 DUP2 MSTORE PUSH1 0x0 PUSH2 0x2F85 PUSH1 0xA0 DUP4 ADD DUP9 PUSH2 0x2CC6 JUMP JUMPDEST DUP3 DUP2 SUB PUSH1 0x20 DUP5 ADD MSTORE PUSH2 0x2F97 DUP2 DUP9 PUSH2 0x2CC6 JUMP JUMPDEST SWAP1 POP DUP3 DUP2 SUB PUSH1 0x40 DUP5 ADD MSTORE PUSH2 0x2FAB DUP2 DUP8 PUSH2 0x2CC6 JUMP JUMPDEST SWAP1 POP DUP3 DUP2 SUB PUSH1 0x60 DUP5 ADD MSTORE PUSH2 0x2FBF DUP2 DUP7 PUSH2 0x2CC6 JUMP JUMPDEST SWAP1 POP DUP3 DUP2 SUB PUSH1 0x80 DUP5 ADD MSTORE PUSH2 0x2FD3 DUP2 DUP6 PUSH2 0x2CC6 JUMP JUMPDEST SWAP9 SWAP8 POP POP POP POP POP POP POP POP JUMP JUMPDEST PUSH1 0x0 DUP1 PUSH1 0x20 DUP4 DUP6 SUB SLT ISZERO PUSH2 0x2FF2 JUMPI PUSH1 0x0 DUP1 REVERT JUMPDEST DUP3 CALLDATALOAD PUSH1 0x1 PUSH1 0x1 PUSH1 0x40 SHL SUB DUP2 GT ISZERO PUSH2 0x3008 JUMPI PUSH1 0x0 DUP1 REVERT JUMPDEST PUSH2 0x3014 DUP6 DUP3 DUP7 ADD PUSH2 0x2D64 JUMP JUMPDEST SWAP1 SWAP7 SWAP1 SWAP6 POP SWAP4 POP POP POP POP JUMP JUMPDEST PUSH1 0x0 DUP2 MLOAD DUP1 DUP5 MSTORE PUSH1 0x20 DUP1 DUP6 ADD DUP1 DUP2 SWAP7 POP DUP4 PUSH1 0x5 SHL DUP2 ADD SWAP2 POP DUP3 DUP7 ADD PUSH1 0x0 JUMPDEST DUP6 DUP2 LT ISZERO PUSH2 0x3068 JUMPI DUP3 DUP5 SUB DUP10 MSTORE PUSH2 0x3056 DUP5 DUP4 MLOAD PUSH2 0x2CC6 JUMP JUMPDEST SWAP9 DUP6 ADD SWAP9 SWAP4 POP SWAP1 DUP5 ADD SWAP1 PUSH1 0x1 ADD PUSH2 0x303E JUMP JUMPDEST POP SWAP2 SWAP8 SWAP7 POP POP POP POP POP POP POP JUMP JUMPDEST PUSH1 0x40 DUP2 MSTORE PUSH1 0x0 PUSH2 0x3088 PUSH1 0x40 DUP4 ADD DUP6 PUSH2 0x3020 JUMP JUMPDEST SWAP1 POP PUSH1 0x1 DUP1 PUSH1 0xA0 SHL SUB DUP4 AND PUSH1 0x20 DUP4 ADD MSTORE SWAP4 SWAP3 POP POP POP JUMP JUMPDEST DUP1 CALLDATALOAD PUSH1 0x5 DUP2 LT PUSH2 0x2D35 JUMPI PUSH1 0x0 DUP1 REVERT JUMPDEST PUSH1 0x0 DUP1 PUSH1 0x0 PUSH1 0x40 DUP5 DUP7 SUB SLT ISZERO PUSH2 0x30C3 JUMPI PUSH1 0x0 DUP1 REVERT JUMPDEST DUP4 CALLDATALOAD PUSH1 0x1 PUSH1 0x1 PUSH1 0x40 SHL SUB DUP2 GT ISZERO PUSH2 0x30D9 JUMPI PUSH1 0x0 DUP1 REVERT JUMPDEST PUSH2 0x30E5 DUP7 DUP3 DUP8 ADD PUSH2 0x2D64 JUMP JUMPDEST SWAP1 SWAP5 POP SWAP3 POP PUSH2 0x2DEF SWAP1 POP PUSH1 0x20 DUP6 ADD PUSH2 0x309F JUMP JUMPDEST PUSH1 0x0 DUP1 PUSH1 0x40 DUP4 DUP6 SUB SLT ISZERO PUSH2 0x310B JUMPI PUSH1 0x0 DUP1 REVERT JUMPDEST PUSH2 0x3114 DUP4 PUSH2 0x2D1E JUMP JUMPDEST SWAP2 POP PUSH1 0x20 DUP4 ADD CALLDATALOAD DUP1 ISZERO ISZERO DUP2 EQ PUSH2 0x3129 JUMPI PUSH1 0x0 DUP1 REVERT JUMPDEST DUP1 SWAP2 POP POP SWAP3 POP SWAP3 SWAP1 POP JUMP JUMPDEST PUSH1 0x0 DUP1 PUSH1 0x0 PUSH1 0x60 DUP5 DUP7 SUB SLT ISZERO PUSH2 0x3149 JUMPI PUSH1 0x0 DUP1 REVERT JUMPDEST POP POP DUP2 CALLDATALOAD SWAP4 PUSH1 0x20 DUP4 ADD CALLDATALOAD SWAP4 POP PUSH1 0x40 SWAP1 SWAP3 ADD CALLDATALOAD SWAP2 SWAP1 POP JUMP JUMPDEST PUSH1 0x0 DUP1 PUSH1 0x0 DUP1 PUSH1 0x80 DUP6 DUP8 SUB SLT ISZERO PUSH2 0x3176 JUMPI PUSH1 0x0 DUP1 REVERT JUMPDEST PUSH2 0x317F DUP6 PUSH2 0x2D1E JUMP JUMPDEST SWAP4 POP PUSH2 0x318D PUSH1 0x20 DUP7 ADD PUSH2 0x2D1E JUMP JUMPDEST SWAP3 POP PUSH1 0x40 DUP6 ADD CALLDATALOAD SWAP2 POP PUSH1 0x60 DUP6 ADD CALLDATALOAD PUSH1 0x1 PUSH1 0x1 PUSH1 0x40 SHL SUB DUP2 GT ISZERO PUSH2 0x31AF JUMPI PUSH1 0x0 DUP1 REVERT JUMPDEST DUP6 ADD PUSH1 0x1F DUP2 ADD DUP8 SGT PUSH2 0x31C0 JUMPI PUSH1 0x0 DUP1 REVERT JUMPDEST PUSH2 0x31CF DUP8 DUP3 CALLDATALOAD PUSH1 0x20 DUP5 ADD PUSH2 0x2EA9 JUMP JUMPDEST SWAP2 POP POP SWAP3 SWAP6 SWAP2 SWAP5 POP SWAP3 POP JUMP JUMPDEST PUSH1 0x0 DUP1 PUSH1 0x40 DUP4 DUP6 SUB SLT ISZERO PUSH2 0x31EE JUMPI PUSH1 0x0 DUP1 REVERT JUMPDEST PUSH2 0x31F7 DUP4 PUSH2 0x2D1E JUMP JUMPDEST SWAP2 POP PUSH2 0x3205 PUSH1 0x20 DUP5 ADD PUSH2 0x2D1E JUMP JUMPDEST SWAP1 POP SWAP3 POP SWAP3 SWAP1 POP JUMP JUMPDEST PUSH1 0x0 DUP1 PUSH1 0x0 DUP1 PUSH1 0x0 DUP1 PUSH1 0x0 DUP1 PUSH1 0x0 DUP1 PUSH1 0x0 PUSH1 0xC0 DUP13 DUP15 SUB SLT ISZERO PUSH2 0x322F JUMPI PUSH1 0x0 DUP1 REVERT JUMPDEST PUSH1 0x1 PUSH1 0x1 PUSH1 0x40 SHL SUB DUP1 DUP14 CALLDATALOAD GT ISZERO PUSH2 0x3245 JUMPI PUSH1 0x0 DUP1 REVERT JUMPDEST PUSH2 0x3252 DUP15 DUP15 CALLDATALOAD DUP16 ADD PUSH2 0x2D64 JUMP JUMPDEST SWAP1 SWAP13 POP SWAP11 POP PUSH1 0x20 DUP14 ADD CALLDATALOAD DUP2 LT ISZERO PUSH2 0x3268 JUMPI PUSH1 0x0 DUP1 REVERT JUMPDEST PUSH2 0x3278 DUP15 PUSH1 0x20 DUP16 ADD CALLDATALOAD DUP16 ADD PUSH2 0x2F1E JUMP JUMPDEST SWAP10 POP DUP1 PUSH1 0x40 DUP15 ADD CALLDATALOAD GT ISZERO PUSH2 0x328B JUMPI PUSH1 0x0 DUP1 REVERT JUMPDEST PUSH2 0x329B DUP15 PUSH1 0x40 DUP16 ADD CALLDATALOAD DUP16 ADD PUSH2 0x2D64 JUMP JUMPDEST SWAP1 SWAP10 POP SWAP8 POP PUSH1 0x60 DUP14 ADD CALLDATALOAD DUP2 LT ISZERO PUSH2 0x32B1 JUMPI PUSH1 0x0 DUP1 REVERT JUMPDEST PUSH2 0x32C1 DUP15 PUSH1 0x60 DUP16 ADD CALLDATALOAD DUP16 ADD PUSH2 0x2D64 JUMP JUMPDEST SWAP1 SWAP8 POP SWAP6 POP PUSH1 0x80 DUP14 ADD CALLDATALOAD DUP2 LT ISZERO PUSH2 0x32D7 JUMPI PUSH1 0x0 DUP1 REVERT JUMPDEST PUSH2 0x32E7 DUP15 PUSH1 0x80 DUP16 ADD CALLDATALOAD DUP16 ADD PUSH2 0x2D64 JUMP JUMPDEST SWAP1 SWAP6 POP SWAP4 POP PUSH1 0xA0 DUP14 ADD CALLDATALOAD DUP2 LT ISZERO PUSH2 0x32FD JUMPI PUSH1 0x0 DUP1 REVERT JUMPDEST POP PUSH2 0x330E DUP14 PUSH1 0xA0 DUP15 ADD CALLDATALOAD DUP15 ADD PUSH2 0x2D64 JUMP JUMPDEST DUP2 SWAP4 POP DUP1 SWAP3 POP POP POP SWAP3 SWAP6 SWAP9 SWAP12 POP SWAP3 SWAP6 SWAP9 SWAP12 SWAP1 SWAP4 SWAP7 SWAP10 POP JUMP JUMPDEST PUSH1 0x0 DUP1 PUSH1 0x0 DUP1 PUSH1 0x0 PUSH1 0x60 DUP7 DUP9 SUB SLT ISZERO PUSH2 0x333E JUMPI PUSH1 0x0 DUP1 REVERT JUMPDEST DUP6 CALLDATALOAD PUSH1 0x1 PUSH1 0x1 PUSH1 0x40 SHL SUB DUP1 DUP3 GT ISZERO PUSH2 0x3355 JUMPI PUSH1 0x0 DUP1 REVERT JUMPDEST PUSH2 0x3361 DUP10 DUP4 DUP11 ADD PUSH2 0x2D64 JUMP JUMPDEST SWAP1 SWAP8 POP SWAP6 POP PUSH1 0x20 DUP9 ADD CALLDATALOAD SWAP2 POP DUP1 DUP3 GT ISZERO PUSH2 0x337A JUMPI PUSH1 0x0 DUP1 REVERT JUMPDEST POP PUSH2 0x3387 DUP9 DUP3 DUP10 ADD PUSH2 0x2D64 JUMP JUMPDEST SWAP1 SWAP5 POP SWAP3 POP PUSH2 0x339A SWAP1 POP PUSH1 0x40 DUP8 ADD PUSH2 0x309F JUMP JUMPDEST SWAP1 POP SWAP3 SWAP6 POP SWAP3 SWAP6 SWAP1 SWAP4 POP JUMP JUMPDEST PUSH1 0x20 DUP2 MSTORE PUSH1 0x0 PUSH2 0x16F6 PUSH1 0x20 DUP4 ADD DUP5 PUSH2 0x3020 JUMP JUMPDEST PUSH1 0x1 DUP2 DUP2 SHR SWAP1 DUP3 AND DUP1 PUSH2 0x33CD JUMPI PUSH1 0x7F DUP3 AND SWAP2 POP JUMPDEST PUSH1 0x20 DUP3 LT DUP2 EQ ISZERO PUSH2 0x20EC JUMPI PUSH4 0x4E487B71 PUSH1 0xE0 SHL PUSH1 0x0 MSTORE PUSH1 0x22 PUSH1 0x4 MSTORE PUSH1 0x24 PUSH1 0x0 REVERT JUMPDEST DUP2 DUP4 DUP3 CALLDATACOPY PUSH1 0x0 SWAP2 ADD SWAP1 DUP2 MSTORE SWAP2 SWAP1 POP JUMP JUMPDEST PUSH1 0x20 DUP2 MSTORE DUP2 PUSH1 0x20 DUP3 ADD MSTORE DUP2 DUP4 PUSH1 0x40 DUP4 ADD CALLDATACOPY PUSH1 0x0 DUP2 DUP4 ADD PUSH1 0x40 SWAP1 DUP2 ADD SWAP2 SWAP1 SWAP2 MSTORE PUSH1 0x1F SWAP1 SWAP3 ADD PUSH1 0x1F NOT AND ADD ADD SWAP2 SWAP1 POP JUMP JUMPDEST PUSH1 0x20 DUP1 DUP3 MSTORE PUSH1 0x2E SWAP1 DUP3 ADD MSTORE PUSH32 0x4552433732313A2063616C6C6572206973206E6F7420746F6B656E206F776E65 PUSH1 0x40 DUP3 ADD MSTORE PUSH14 0x1C881B9BDC88185C1C1C9BDD9959 PUSH1 0x92 SHL PUSH1 0x60 DUP3 ADD MSTORE PUSH1 0x80 ADD SWAP1 JUMP JUMPDEST PUSH4 0x4E487B71 PUSH1 0xE0 SHL PUSH1 0x0 MSTORE PUSH1 0x32 PUSH1 0x4 MSTORE PUSH1 0x24 PUSH1 0x0 REVERT JUMPDEST PUSH4 0x4E487B71 PUSH1 0xE0 SHL PUSH1 0x0 MSTORE PUSH1 0x11 PUSH1 0x4 MSTORE PUSH1 0x24 PUSH1 0x0 REVERT JUMPDEST PUSH1 0x0 PUSH1 0x0 NOT DUP3 EQ ISZERO PUSH2 0x34BB JUMPI PUSH2 0x34BB PUSH2 0x3491 JUMP JUMPDEST POP PUSH1 0x1 ADD SWAP1 JUMP JUMPDEST PUSH4 0x4E487B71 PUSH1 0xE0 SHL PUSH1 0x0 MSTORE PUSH1 0x21 PUSH1 0x4 MSTORE PUSH1 0x24 PUSH1 0x0 REVERT JUMPDEST DUP1 SLOAD PUSH1 0x0 SWAP1 PUSH1 0x1 DUP2 DUP2 SHR SWAP1 DUP1 DUP4 AND DUP1 PUSH2 0x34F2 JUMPI PUSH1 0x7F DUP4 AND SWAP3 POP JUMPDEST PUSH1 0x20 DUP1 DUP5 LT DUP3 EQ ISZERO PUSH2 0x3514 JUMPI PUSH4 0x4E487B71 PUSH1 0xE0 SHL PUSH1 0x0 MSTORE PUSH1 0x22 PUSH1 0x4 MSTORE PUSH1 0x24 PUSH1 0x0 REVERT JUMPDEST DUP2 DUP1 ISZERO PUSH2 0x3528 JUMPI PUSH1 0x1 DUP2 EQ PUSH2 0x3539 JUMPI PUSH2 0x3566 JUMP JUMPDEST PUSH1 0xFF NOT DUP7 AND DUP10 MSTORE DUP5 DUP10 ADD SWAP7 POP PUSH2 0x3566 JUMP JUMPDEST PUSH1 0x0 DUP9 DUP2 MSTORE PUSH1 0x20 SWAP1 KECCAK256 PUSH1 0x0 JUMPDEST DUP7 DUP2 LT ISZERO PUSH2 0x355E JUMPI DUP2 SLOAD DUP12 DUP3 ADD MSTORE SWAP1 DUP6 ADD SWAP1 DUP4 ADD PUSH2 0x3545 JUMP JUMPDEST POP POP DUP5 DUP10 ADD SWAP7 POP JUMPDEST POP POP POP POP POP POP SWAP3 SWAP2 POP POP JUMP JUMPDEST PUSH1 0x0 PUSH2 0x357E DUP3 DUP6 PUSH2 0x34D8 JUMP JUMPDEST PUSH1 0x17 PUSH1 0xF9 SHL DUP2 MSTORE PUSH2 0x3592 PUSH1 0x1 DUP3 ADD DUP6 PUSH2 0x34D8 JUMP JUMPDEST SWAP6 SWAP5 POP POP POP POP POP JUMP JUMPDEST PUSH1 0x0 PUSH2 0x16F6 DUP3 DUP5 PUSH2 0x34D8 JUMP JUMPDEST PUSH1 0x0 PUSH2 0x35B3 DUP3 DUP7 PUSH2 0x34D8 JUMP JUMPDEST DUP5 MLOAD PUSH2 0x35C3 DUP2 DUP4 PUSH1 0x20 DUP10 ADD PUSH2 0x2C9A JUMP JUMPDEST PUSH2 0x35CF DUP2 DUP4 ADD DUP7 PUSH2 0x34D8 JUMP JUMPDEST SWAP8 SWAP7 POP POP POP POP POP POP POP JUMP JUMPDEST PUSH32 0x646174613A696D6167652F7376672B786D6C3B6261736536342C000000000000 DUP2 MSTORE PUSH1 0x0 DUP3 MLOAD PUSH2 0x3612 DUP2 PUSH1 0x1A DUP6 ADD PUSH1 0x20 DUP8 ADD PUSH2 0x2C9A JUMP JUMPDEST SWAP2 SWAP1 SWAP2 ADD PUSH1 0x1A ADD SWAP3 SWAP2 POP POP JUMP JUMPDEST PUSH10 0x3D913730B6B2911D1011 PUSH1 0xB1 SHL DUP2 MSTORE DUP4 MLOAD PUSH1 0x0 SWAP1 PUSH2 0x3645 DUP2 PUSH1 0xA DUP6 ADD PUSH1 0x20 DUP10 ADD PUSH2 0x2C9A JUMP JUMPDEST PUSH32 0x222C20226465736372697074696F6E223A20224120646F6D61696E206F6E2074 PUSH1 0xA SWAP2 DUP5 ADD SWAP2 DUP3 ADD MSTORE PUSH32 0x686520584443206E616D652073657276696365222C2022696D616765223A2022 PUSH1 0x2A DUP3 ADD MSTORE DUP5 MLOAD PUSH2 0x36A8 DUP2 PUSH1 0x4A DUP5 ADD PUSH1 0x20 DUP10 ADD PUSH2 0x2C9A JUMP JUMPDEST PUSH12 0x1116113632B733BA34111D11 PUSH1 0xA1 SHL PUSH1 0x4A SWAP3 SWAP1 SWAP2 ADD SWAP2 DUP3 ADD MSTORE DUP4 MLOAD PUSH2 0x36D5 DUP2 PUSH1 0x56 DUP5 ADD PUSH1 0x20 DUP9 ADD PUSH2 0x2C9A JUMP JUMPDEST PUSH2 0x227D PUSH1 0xF0 SHL PUSH1 0x56 SWAP3 SWAP1 SWAP2 ADD SWAP2 DUP3 ADD MSTORE PUSH1 0x58 ADD SWAP6 SWAP5 POP POP POP POP POP JUMP JUMPDEST PUSH32 0x646174613A6170706C69636174696F6E2F6A736F6E3B6261736536342C000000 DUP2 MSTORE PUSH1 0x0 DUP3 MLOAD PUSH2 0x3729 DUP2 PUSH1 0x1D DUP6 ADD PUSH1 0x20 DUP8 ADD PUSH2 0x2C9A JUMP JUMPDEST SWAP2 SWAP1 SWAP2 ADD PUSH1 0x1D ADD SWAP3 SWAP2 POP POP JUMP JUMPDEST PUSH1 0x0 PUSH1 0x20 DUP3 DUP5 SUB SLT ISZERO PUSH2 0x3748 JUMPI PUSH1 0x0 DUP1 REVERT JUMPDEST POP MLOAD SWAP2 SWAP1 POP JUMP JUMPDEST PUSH1 0x0 DUP3 DUP3 LT ISZERO PUSH2 0x3761 JUMPI PUSH2 0x3761 PUSH2 0x3491 JUMP JUMPDEST POP SUB SWAP1 JUMP JUMPDEST PUSH1 0x0 DUP3 NOT DUP3 GT ISZERO PUSH2 0x3779 JUMPI PUSH2 0x3779 PUSH2 0x3491 JUMP JUMPDEST POP ADD SWAP1 JUMP JUMPDEST PUSH1 0x20 DUP1 DUP3 MSTORE PUSH1 0x32 SWAP1 DUP3 ADD MSTORE PUSH32 0x4552433732313A207472616E7366657220746F206E6F6E204552433732315265 PUSH1 0x40 DUP3 ADD MSTORE PUSH18 0x31B2B4BB32B91034B6B83632B6B2B73A32B9 PUSH1 0x71 SHL PUSH1 0x60 DUP3 ADD MSTORE PUSH1 0x80 ADD SWAP1 JUMP JUMPDEST PUSH4 0x4E487B71 PUSH1 0xE0 SHL PUSH1 0x0 MSTORE PUSH1 0x12 PUSH1 0x4 MSTORE PUSH1 0x24 PUSH1 0x0 REVERT JUMPDEST PUSH1 0x0 DUP3 PUSH2 0x37F5 JUMPI PUSH2 0x37F5 PUSH2 0x37D0 JUMP JUMPDEST POP DIV SWAP1 JUMP JUMPDEST PUSH1 0x0 DUP3 PUSH2 0x3809 JUMPI PUSH2 0x3809 PUSH2 0x37D0 JUMP JUMPDEST POP MOD SWAP1 JUMP JUMPDEST PUSH1 0x0 DUP2 PUSH1 0x0 NOT DIV DUP4 GT DUP3 ISZERO ISZERO AND ISZERO PUSH2 0x3828 JUMPI PUSH2 0x3828 PUSH2 0x3491 JUMP JUMPDEST POP MUL SWAP1 JUMP JUMPDEST PUSH1 0x1 PUSH1 0x1 PUSH1 0xA0 SHL SUB DUP6 DUP2 AND DUP3 MSTORE DUP5 AND PUSH1 0x20 DUP3 ADD MSTORE PUSH1 0x40 DUP2 ADD DUP4 SWAP1 MSTORE PUSH1 0x80 PUSH1 0x60 DUP3 ADD DUP2 SWAP1 MSTORE PUSH1 0x0 SWAP1 PUSH2 0x3860 SWAP1 DUP4 ADD DUP5 PUSH2 0x2CC6 JUMP JUMPDEST SWAP7 SWAP6 POP POP POP POP POP POP JUMP JUMPDEST PUSH1 0x0 PUSH1 0x20 DUP3 DUP5 SUB SLT ISZERO PUSH2 0x387C JUMPI PUSH1 0x0 DUP1 REVERT JUMPDEST DUP2 MLOAD PUSH2 0x16F6 DUP2 PUSH2 0x2C67 JUMP INVALID COINBASE TIMESTAMP NUMBER DIFFICULTY GASLIMIT CHAINID SELFBALANCE BASEFEE 0x49 0x4A 0x4B 0x4C 0x4D 0x4E 0x4F POP MLOAD MSTORE MSTORE8 SLOAD SSTORE JUMP JUMPI PC MSIZE GAS PUSH2 0x6263 PUSH5 0x6566676869 PUSH11 0x6B6C6D6E6F707172737475 PUSH23 0x7778797A303132333435363738392B2FA2646970667358 0x22 SLT KECCAK256 0xE5 LOG3 SIGNEXTEND STOP 0x5E 0xE9 CALLDATACOPY PC 0xDB ORIGIN SWAP4 0xD7 INVALID 0xCA SWAP11 0xBF 0x2F 0xDD 0xB5 PUSH21 0x6381D31ECE27219A50F6E10D64736F6C634300080A STOP CALLER EXTCODECOPY PUSH20 0x766720786D6C6E733D22687474703A2F2F777777 0x2E PUSH24 0x332E6F72672F323030302F737667222077696474683D2232 CALLDATACOPY ADDRESS 0x22 KECCAK256 PUSH9 0x65696768743D223237 ADDRESS 0x22 KECCAK256 PUSH7 0x696C6C3D226E6F PUSH15 0x65223E203C706174682066696C6C3D 0x22 PUSH22 0x726C282342292220643D224D30203068323730763237 ADDRESS BASEFEE ADDRESS PUSH27 0x222F3E3C646566733E3C66696C7465722069643D22412220636F6C PUSH16 0x722D696E746572706F6C6174696F6E2D PUSH7 0x696C746572733D 0x22 PUSH20 0x524742222066696C746572556E6974733D227573 PUSH6 0x725370616365 0x4F PUSH15 0x55736522206865696768743D223237 ADDRESS 0x22 KECCAK256 PUSH24 0x696474683D22323730223E3C666544726F70536861646F77 KECCAK256 PUSH5 0x783D223022 KECCAK256 PUSH5 0x793D223122 KECCAK256 PUSH20 0x7464446576696174696F6E3D22322220666C6F6F PUSH5 0x2D6F706163 PUSH10 0x74793D222E3232352220 PUSH24 0x696474683D223230302522206865696768743D2232303025 0x22 0x2F RETURNDATACOPY EXTCODECOPY 0x2F PUSH7 0x696C7465723E3C 0x2F PUSH5 0x6566733E3C PUSH17 0x61746820636C6173734E616D653D227374 ADDRESS 0x22 KECCAK256 PUSH5 0x3D224D3237 ADDRESS 0x2E CALLER 0x2C ORIGIN CALLDATACOPY ADDRESS 0x2E CALLER BASEFEE ADDRESS JUMP BALANCE CODESIZE 0x2E CALLDATACOPY NUMBER ADDRESS 0x2C CODESIZE 0x2E CALLVALUE 0x2C CODESIZE 0x2E CALLVALUE 0x2C ADDRESS 0x2C BALANCE CODESIZE 0x2E CALLDATACOPY 0x2C ADDRESS PUSH9 0x3233336331302E332C ADDRESS 0x2C BALANCE CODESIZE 0x2E CALLDATACOPY 0x2C CODESIZE 0x2E CALLVALUE 0x2C BALANCE CODESIZE 0x2E CALLDATACOPY 0x2C BALANCE CODESIZE 0x2E CALLDATACOPY PUSH23 0x3235312E36483237302E337A222F3E3C673E20203C7061 PUSH21 0x6820636C6173734E616D653D22737431222066696C PUSH13 0x3D22236666662220643D224D36 CALLER 0x2E CALLVALUE 0x2C BALANCE BALANCE ORIGIN 0x2E ORIGIN PUSH4 0x2D332D30 0x2E CALLDATASIZE 0x2D CALLDATASIZE 0x2E BALANCE 0x2D BALANCE 0x2D CODESIZE 0x2E CODECOPY 0x2D BALANCE 0x2E CODECOPY NUMBER CALLER CODESIZE 0x2C BALANCE ADDRESS CALLVALUE 0x2E CALLDATACOPY 0x2C ORIGIN CODESIZE 0x2C CODECOPY CALLER 0x2E CALLDATALOAD 0x2C ORIGIN CALLVALUE 0x2E CALLDATASIZE 0x2C CALLDATACOPY CALLDATASIZE 0x2E CALLVALUE PUSH4 0x2D302E32 0x2D BALANCE 0x2E BALANCE 0x2D ADDRESS 0x2E CALLER 0x2D ORIGIN 0x2E ORIGIN 0x2D ADDRESS 0x2E CALLDATALOAD 0x2D CALLER 0x2E CALLVALUE KECCAK256 KECCAK256 KECCAK256 PUSH4 0x322E352D BALANCE 0x2E CALLDATALOAD 0x2C CALLVALUE 0x2E CODESIZE 0x2D ORIGIN 0x2E CODECOPY 0x2C CALLDATACOPY 0x2E CALLER 0x2D CALLVALUE 0x2E CALLDATALOAD PUSH4 0x2D322E34 0x2D BALANCE 0x2E CALLDATALOAD 0x2D CALLVALUE 0x2E CALLDATACOPY 0x2D ORIGIN 0x2E CODECOPY 0x2D CALLDATACOPY 0x2E ORIGIN 0x2D CALLVALUE 0x2E CALLVALUE PUSH4 0x302E382D CODESIZE 0x2E ORIGIN 0x2C CALLER 0x2E CODECOPY 0x2D BALANCE CALLDATALOAD 0x2E CALLDATASIZE 0x2C CODECOPY 0x2D ORIGIN ORIGIN PUSH4 0x372E332D CODECOPY 0x2E BALANCE 0x2C BALANCE CALLDATASIZE 0x2E CODESIZE 0x2D BALANCE CALLVALUE 0x2E CALLDATALOAD 0x2C ORIGIN CODESIZE 0x2E CALLER 0x2D BALANCE CALLDATASIZE PUSH4 0x32362E39 0x2D CALLER 0x2E CALLER 0x2C CALLVALUE CALLDATASIZE 0x2E CALLDATALOAD 0x2C BALANCE CALLDATACOPY 0x2E ORIGIN 0x2C CALLVALUE CODESIZE 0x2E CALLER 0x2C CALLER CALLDATACOPY 0x2E CODESIZE KECCAK256 KECCAK256 KECCAK256 PUSH4 0x2D322E34 0x2C BALANCE 0x2E CALLVALUE 0x2D CALLVALUE 0x2E CODESIZE 0x2C ORIGIN 0x2E CODECOPY 0x2D CALLDATACOPY 0x2E CALLDATALOAD 0x2C CALLVALUE 0x2E CALLDATALOAD PUSH4 0x322E362C BALANCE 0x2E CALLDATASIZE 0x2C CALLDATALOAD 0x2C CALLER 0x2E BALANCE 0x2C CALLDATACOPY 0x2E CALLDATALOAD 0x2C CALLVALUE 0x2E CALLDATASIZE PUSH4 0x2D302E31 0x2C CALLER 0x2E CALLER 0x2D ADDRESS 0x2E CODESIZE 0x2C CALLDATASIZE 0x2E CALLDATALOAD 0x2D BALANCE 0x2E CODECOPY 0x2C CODECOPY 0x2E CALLDATASIZE NUMBER BALANCE ADDRESS ORIGIN 0x2E CODESIZE 0x2C CODECOPY CALLDATACOPY 0x2E CALLDATASIZE 0x2C CODECOPY ORIGIN 0x2E CALLVALUE 0x2C BALANCE ADDRESS CALLDATACOPY 0x2C CALLDATACOPY CALLDATACOPY 0x2E ORIGIN 0x2C BALANCE BALANCE BALANCE PUSH4 0x2D322E32 0x2C ADDRESS 0x2E CALLDATASIZE 0x2D CALLVALUE 0x2E CALLVALUE 0x2C ADDRESS 0x2E CODESIZE 0x2D CALLDATASIZE 0x2E CALLDATASIZE 0x2C BALANCE 0x2E ORIGIN KECCAK256 KECCAK256 KECCAK256 NUMBER CALLDATASIZE CODESIZE 0x2E ORIGIN 0x2C BALANCE BALANCE ORIGIN 0x2E ORIGIN 0x2C CALLDATASIZE CALLDATALOAD 0x2E CODESIZE 0x2C BALANCE BALANCE ORIGIN 0x2E ORIGIN 0x2C CALLDATASIZE CALLER 0x2E CALLVALUE 0x2C BALANCE BALANCE ORIGIN 0x2E ORIGIN PUSH27 0x204D32372E352C36322E3963332E322C312E392C362E342C332E38 0x2C CODECOPY 0x2E CODESIZE 0x2C CALLDATALOAD 0x2E CODESIZE PUSH4 0x2D332E34 0x2C ORIGIN 0x2D CALLDATASIZE 0x2E CALLDATASIZE 0x2C CALLER 0x2E CODECOPY 0x2D CODECOPY 0x2E CODECOPY 0x2C CALLDATALOAD 0x2E CODECOPY PUSH4 0x302E392C CALLDATACOPY 0x2E CALLDATALOAD 0x2C CALLER 0x2E CODECOPY 0x2C BALANCE CALLVALUE 0x2E BALANCE 0x2C CODESIZE 0x2E CALLDATASIZE 0x2C BALANCE CODECOPY 0x2E CODECOPY KECCAK256 KECCAK256 KECCAK256 PUSH4 0x372E362C CODECOPY 0x2E ORIGIN 0x2C BALANCE CALLDATACOPY 0x2E CALLDATALOAD 0x2C BALANCE CALLVALUE 0x2E CALLER 0x2C ORIGIN CODECOPY 0x2E CALLDATALOAD 0x2C BALANCE CALLVALUE 0x2E CODESIZE PUSH4 0x32312E38 0x2C BALANCE 0x2C CALLER CODECOPY 0x2E CALLER 0x2D BALANCE CALLDATALOAD 0x2E CALLDATASIZE 0x2C CALLVALUE BALANCE 0x2E CALLDATALOAD 0x2D CALLER CALLVALUE 0x2E CALLDATALOAD PUSH4 0x2D332E33 0x2D ORIGIN 0x2D CALLDATASIZE 0x2E CALLDATACOPY 0x2D CALLVALUE 0x2D BALANCE ADDRESS 0x2E ORIGIN 0x2D CALLDATASIZE 0x2E BALANCE PUSH4 0x332E352D ORIGIN 0x2E BALANCE 0x2C CALLDATASIZE 0x2E CODESIZE 0x2D CALLVALUE 0x2C BALANCE ADDRESS 0x2E BALANCE 0x2D CALLDATALOAD 0x2E CODECOPY PUSH4 0x2D322D31 CALLDATASIZE 0x2E CODESIZE 0x2D BALANCE CODESIZE 0x2D CALLER CALLVALUE 0x2E CODESIZE 0x2D CALLVALUE BALANCE 0x2D CALLER CALLVALUE KECCAK256 KECCAK256 KECCAK256 NUMBER CALLVALUE ORIGIN 0x2E CODECOPY 0x2C ORIGIN CODECOPY 0x2E CALLDATALOAD 0x2C ORIGIN CODECOPY 0x2C CALLVALUE CODESIZE 0x2C ORIGIN CALLDATACOPY 0x2E CALLDATALOAD 0x2C CALLDATASIZE ORIGIN 0x2E CODECOPY PUSH27 0x222F3E20203C7061746820636C6173734E616D653D227374312220 PUSH7 0x696C6C3D222366 PUSH7 0x662220643D224D CALLDATALOAD CALLER 0x2E ORIGIN 0x2C CALLDATALOAD ORIGIN 0x2E CALLDATALOAD PUSH4 0x322E322C ADDRESS 0x2C CALLVALUE 0x2E BALANCE 0x2C ADDRESS 0x2C CALLDATASIZE 0x2E BALANCE 0x2C ADDRESS PUSH4 0x322E352C CALLVALUE 0x2C CALLDATALOAD 0x2C CALLDATACOPY 0x2E CODECOPY 0x2C CALLDATACOPY 0x2E CALLDATASIZE 0x2C BALANCE ORIGIN 0x2E BALANCE PUSH4 0x322E352D CALLVALUE 0x2E ORIGIN 0x2C CALLVALUE 0x2E CODECOPY 0x2D CODESIZE 0x2E BALANCE 0x2C CALLDATACOPY 0x2E CALLER 0x2D BALANCE ORIGIN PUSH4 0x312E382C ADDRESS 0x2C CALLER 0x2E CALLDATASIZE 0x2C ADDRESS 0x2C CALLDATALOAD 0x2E CALLDATASIZE 0x2C ADDRESS KECCAK256 KECCAK256 KECCAK256 PUSH4 0x2D332E35 0x2C CALLDATALOAD 0x2E CALLDATALOAD 0x2D CALLDATASIZE 0x2E CODECOPY 0x2C BALANCE ADDRESS 0x2E CODESIZE 0x2D BALANCE ADDRESS 0x2E CALLER 0x2C BALANCE CALLDATASIZE 0x2E ORIGIN PUSH4 0x332E342C CALLDATALOAD 0x2E CALLVALUE 0x2C CALLDATASIZE 0x2E CODESIZE 0x2C BALANCE ADDRESS 0x2E CODECOPY 0x2C BALANCE ADDRESS 0x2E CALLVALUE 0x2C BALANCE CALLDATASIZE 0x2E CALLDATALOAD PUSH4 0x2D322E31 0x2C ADDRESS 0x2D CALLVALUE 0x2C ADDRESS 0x2D CALLDATASIZE 0x2E BALANCE 0x2C ADDRESS PUSH4 0x2D322E34 0x2D CALLER 0x2E CODECOPY 0x2D CALLVALUE 0x2E CODECOPY 0x2D CALLDATACOPY 0x2E CODECOPY 0x2D CALLDATACOPY 0x2E CALLDATASIZE 0x2D BALANCE ORIGIN 0x2E BALANCE PUSH4 0x2D322E35 0x2C CALLVALUE 0x2E ORIGIN 0x2D CALLVALUE 0x2E CODECOPY 0x2C CODESIZE 0x2E BALANCE 0x2D CALLDATACOPY 0x2E CALLER 0x2C BALANCE ORIGIN 0x2E BALANCE KECCAK256 KECCAK256 KECCAK256 PUSH4 0x2D312E38 0x2C ADDRESS 0x2D CALLER 0x2E CALLDATALOAD 0x2C ADDRESS 0x2D CALLDATALOAD 0x2E CALLDATASIZE 0x2C ADDRESS PUSH4 0x332E352D CALLDATALOAD 0x2E CALLDATALOAD 0x2C CALLDATASIZE 0x2E CODECOPY 0x2D BALANCE ADDRESS 0x2E CODESIZE 0x2C BALANCE ADDRESS 0x2E CALLVALUE 0x2D BALANCE CALLDATASIZE 0x2E ORIGIN NUMBER CALLDATASIZE ADDRESS 0x2E ORIGIN 0x2C CALLDATASIZE CALLER 0x2E CALLDATALOAD 0x2C CALLDATALOAD CALLDATASIZE 0x2E CODESIZE 0x2C CALLDATALOAD CODESIZE 0x2E BALANCE 0x2C CALLDATALOAD CALLER 0x2E ORIGIN 0x2C CALLDATALOAD ORIGIN 0x2E CALLDATALOAD PUSH27 0x222F3E20203C2F673E3C646566733E3C6C696E6561724772616469 PUSH6 0x6E742069643D 0x22 TIMESTAMP 0x22 KECCAK256 PUSH25 0x313D2230222079313D2230222078323D22323730222079323D 0x22 ORIGIN CALLDATACOPY ADDRESS 0x22 KECCAK256 PUSH8 0x72616469656E7455 PUSH15 0x6974733D227573657253706163654F PUSH15 0x557365223E3C73746F702073746F70 0x2D PUSH4 0x6F6C6F72 RETURNDATASIZE 0x22 0x23 CALLDATALOAD CHAINID TIMESTAMP ORIGIN DIFFICULTY CALLER 0x22 0x2F RETURNDATACOPY EXTCODECOPY PUSH20 0x746F70206F66667365743D2231222073746F702D PUSH4 0x6F6C6F72 RETURNDATASIZE 0x22 0x23 GASLIMIT BALANCE TIMESTAMP COINBASE CALLDATASIZE COINBASE 0x22 KECCAK256 PUSH20 0x746F702D6F7061636974793D222E3939222F3E3C 0x2F PUSH13 0x696E6561724772616469656E74 RETURNDATACOPY EXTCODECOPY 0x2F PUSH5 0x6566733E3C PUSH21 0x65787420783D2233322E352220793D223233312220 PUSH7 0x6F6E742D73697A PUSH6 0x3D2232372220 PUSH7 0x696C6C3D222366 PUSH7 0x66222066696C74 PUSH6 0x723D2275726C 0x28 0x23 COINBASE 0x29 0x22 KECCAK256 PUSH7 0x6F6E742D66616D PUSH10 0x6C793D22506C7573204A PUSH2 0x6B61 PUSH19 0x74612053616E732C44656A6156752053616E73 0x2C 0x4E PUSH16 0x746F20436F6C6F7220456D6F6A692C41 PUSH17 0x706C6520436F6C6F7220456D6F6A692C73 PUSH2 0x6E73 0x2D PUSH20 0x657269662220666F6E742D7765696768743D2262 PUSH16 0x6C64223E000000000000000000000000 "
		},
		"gasEstimates": {
			"creation": {
				"codeDepositCost": "2917800",
				"executionCost": "infinite",
				"totalCost": "infinite"
			},
			"external": {
				"approve(address,uint256)": "infinite",
				"balanceOf(address)": "2656",
				"getAddress(string)": "infinite",
				"getAllNames()": "infinite",
				"getApproved(uint256)": "4815",
				"getId(string)": "infinite",
				"getRecord(string,uint8)": "infinite",
				"getRecords(string)": "infinite",
				"ids(string)": "infinite",
				"isApprovedForAll(address,address)": "infinite",
				"isOwner()": "2378",
				"isSet(string)": "infinite",
				"name()": "infinite",
				"names(uint256)": "infinite",
				"owner()": "2383",
				"ownerOf(uint256)": "2583",
				"price(string)": "infinite",
				"records(string)": "infinite",
				"register(string)": "infinite",
				"registerForAddress(string,address)": "infinite",
				"safeTransferFrom(address,address,uint256)": "infinite",
				"safeTransferFrom(address,address,uint256,bytes)": "infinite",
				"setApprovalForAll(address,bool)": "26753",
				"setPrice(uint256,uint256,uint256)": "68814",
				"setRecord(string,string,uint8)": "infinite",
				"setRecords(string,string,string,string,string,string)": "infinite",
				"supportsInterface(bytes4)": "557",
				"symbol()": "infinite",
				"tierOnePrice()": "2384",
				"tierThreePrice()": "2385",
				"tierTwoPrice()": "2384",
				"tld()": "infinite",
				"tokenURI(uint256)": "infinite",
				"transferFrom(address,address,uint256)": "infinite",
				"valid(string)": "infinite",
				"walletOfOwner(address)": "infinite",
				"withdraw()": "infinite"
			}
		},
		"methodIdentifiers": {
			"approve(address,uint256)": "095ea7b3",
			"balanceOf(address)": "70a08231",
			"getAddress(string)": "bf40fac1",
			"getAllNames()": "fb825e5f",
			"getApproved(uint256)": "081812fc",
			"getId(string)": "bee51f3b",
			"getRecord(string,uint8)": "9751e9f1",
			"getRecords(string)": "86e80b71",
			"ids(string)": "8a08677d",
			"isApprovedForAll(address,address)": "e985e9c5",
			"isOwner()": "8f32d59b",
			"isSet(string)": "e327ad61",
			"name()": "06fdde03",
			"names(uint256)": "4622ab03",
			"owner()": "8da5cb5b",
			"ownerOf(uint256)": "6352211e",
			"price(string)": "fe2c6198",
			"records(string)": "541e771d",
			"register(string)": "f2c298be",
			"registerForAddress(string,address)": "15bf7227",
			"safeTransferFrom(address,address,uint256)": "42842e0e",
			"safeTransferFrom(address,address,uint256,bytes)": "b88d4fde",
			"setApprovalForAll(address,bool)": "a22cb465",
			"setPrice(uint256,uint256,uint256)": "aa585d56",
			"setRecord(string,string,uint8)": "f5064fd0",
			"setRecords(string,string,string,string,string,string)": "f0f19346",
			"supportsInterface(bytes4)": "01ffc9a7",
			"symbol()": "95d89b41",
			"tierOnePrice()": "8600c8b2",
			"tierThreePrice()": "4e82dc89",
			"tierTwoPrice()": "d7e915d5",
			"tld()": "2d551432",
			"tokenURI(uint256)": "c87b56dd",
			"transferFrom(address,address,uint256)": "23b872dd",
			"valid(string)": "9791c097",
			"walletOfOwner(address)": "438b6300",
			"withdraw()": "3ccfd60b"
		}
	},
	"abi": [
		{
			"inputs": [
				{
					"internalType": "string",
					"name": "_tld",
					"type": "string"
				},
				{
					"internalType": "uint256",
					"name": "_tierOnePrice",
					"type": "uint256"
				},
				{
					"internalType": "uint256",
					"name": "_tierTwoPrice",
					"type": "uint256"
				},
				{
					"internalType": "uint256",
					"name": "_tierThreePrice",
					"type": "uint256"
				}
			],
			"stateMutability": "payable",
			"type": "constructor"
		},
		{
			"inputs": [],
			"name": "AlreadyRegistered",
			"type": "error"
		},
		{
			"inputs": [
				{
					"internalType": "string",
					"name": "name",
					"type": "string"
				}
			],
			"name": "InvalidName",
			"type": "error"
		},
		{
			"inputs": [],
			"name": "Unauthorized",
			"type": "error"
		},
		{
			"anonymous": false,
			"inputs": [
				{
					"indexed": true,
					"internalType": "address",
					"name": "owner",
					"type": "address"
				},
				{
					"indexed": true,
					"internalType": "address",
					"name": "approved",
					"type": "address"
				},
				{
					"indexed": true,
					"internalType": "uint256",
					"name": "tokenId",
					"type": "uint256"
				}
			],
			"name": "Approval",
			"type": "event"
		},
		{
			"anonymous": false,
			"inputs": [
				{
					"indexed": true,
					"internalType": "address",
					"name": "owner",
					"type": "address"
				},
				{
					"indexed": true,
					"internalType": "address",
					"name": "operator",
					"type": "address"
				},
				{
					"indexed": false,
					"internalType": "bool",
					"name": "approved",
					"type": "bool"
				}
			],
			"name": "ApprovalForAll",
			"type": "event"
		},
		{
			"anonymous": false,
			"inputs": [
				{
					"indexed": true,
					"internalType": "address",
					"name": "from",
					"type": "address"
				},
				{
					"indexed": true,
					"internalType": "address",
					"name": "to",
					"type": "address"
				},
				{
					"indexed": true,
					"internalType": "uint256",
					"name": "tokenId",
					"type": "uint256"
				}
			],
			"name": "Transfer",
			"type": "event"
		},
		{
			"inputs": [
				{
					"internalType": "address",
					"name": "to",
					"type": "address"
				},
				{
					"internalType": "uint256",
					"name": "tokenId",
					"type": "uint256"
				}
			],
			"name": "approve",
			"outputs": [],
			"stateMutability": "nonpayable",
			"type": "function"
		},
		{
			"inputs": [
				{
					"internalType": "address",
					"name": "owner",
					"type": "address"
				}
			],
			"name": "balanceOf",
			"outputs": [
				{
					"internalType": "uint256",
					"name": "",
					"type": "uint256"
				}
			],
			"stateMutability": "view",
			"type": "function"
		},
		{
			"inputs": [
				{
					"internalType": "string",
					"name": "name",
					"type": "string"
				}
			],
			"name": "getAddress",
			"outputs": [
				{
					"internalType": "address",
					"name": "",
					"type": "address"
				}
			],
			"stateMutability": "view",
			"type": "function"
		},
		{
			"inputs": [],
			"name": "getAllNames",
			"outputs": [
				{
					"internalType": "string[]",
					"name": "",
					"type": "string[]"
				}
			],
			"stateMutability": "view",
			"type": "function"
		},
		{
			"inputs": [
				{
					"internalType": "uint256",
					"name": "tokenId",
					"type": "uint256"
				}
			],
			"name": "getApproved",
			"outputs": [
				{
					"internalType": "address",
					"name": "",
					"type": "address"
				}
			],
			"stateMutability": "view",
			"type": "function"
		},
		{
			"inputs": [
				{
					"internalType": "string",
					"name": "name",
					"type": "string"
				}
			],
			"name": "getId",
			"outputs": [
				{
					"internalType": "uint256",
					"name": "",
					"type": "uint256"
				}
			],
			"stateMutability": "view",
			"type": "function"
		},
		{
			"inputs": [
				{
					"internalType": "string",
					"name": "name",
					"type": "string"
				},
				{
					"internalType": "enum RecordType",
					"name": "recordType",
					"type": "uint8"
				}
			],
			"name": "getRecord",
			"outputs": [
				{
					"internalType": "string",
					"name": "",
					"type": "string"
				}
			],
			"stateMutability": "view",
			"type": "function"
		},
		{
			"inputs": [
				{
					"internalType": "string",
					"name": "name",
					"type": "string"
				}
			],
			"name": "getRecords",
			"outputs": [
				{
					"internalType": "string[]",
					"name": "",
					"type": "string[]"
				},
				{
					"internalType": "address",
					"name": "",
					"type": "address"
				}
			],
			"stateMutability": "view",
			"type": "function"
		},
		{
			"inputs": [
				{
					"internalType": "string",
					"name": "",
					"type": "string"
				}
			],
			"name": "ids",
			"outputs": [
				{
					"internalType": "uint256",
					"name": "",
					"type": "uint256"
				}
			],
			"stateMutability": "view",
			"type": "function"
		},
		{
			"inputs": [
				{
					"internalType": "address",
					"name": "owner",
					"type": "address"
				},
				{
					"internalType": "address",
					"name": "operator",
					"type": "address"
				}
			],
			"name": "isApprovedForAll",
			"outputs": [
				{
					"internalType": "bool",
					"name": "",
					"type": "bool"
				}
			],
			"stateMutability": "view",
			"type": "function"
		},
		{
			"inputs": [],
			"name": "isOwner",
			"outputs": [
				{
					"internalType": "bool",
					"name": "",
					"type": "bool"
				}
			],
			"stateMutability": "view",
			"type": "function"
		},
		{
			"inputs": [
				{
					"internalType": "string",
					"name": "name",
					"type": "string"
				}
			],
			"name": "isSet",
			"outputs": [
				{
					"internalType": "bool",
					"name": "",
					"type": "bool"
				}
			],
			"stateMutability": "pure",
			"type": "function"
		},
		{
			"inputs": [],
			"name": "name",
			"outputs": [
				{
					"internalType": "string",
					"name": "",
					"type": "string"
				}
			],
			"stateMutability": "view",
			"type": "function"
		},
		{
			"inputs": [
				{
					"internalType": "uint256",
					"name": "",
					"type": "uint256"
				}
			],
			"name": "names",
			"outputs": [
				{
					"internalType": "string",
					"name": "",
					"type": "string"
				}
			],
			"stateMutability": "view",
			"type": "function"
		},
		{
			"inputs": [],
			"name": "owner",
			"outputs": [
				{
					"internalType": "address payable",
					"name": "",
					"type": "address"
				}
			],
			"stateMutability": "view",
			"type": "function"
		},
		{
			"inputs": [
				{
					"internalType": "uint256",
					"name": "tokenId",
					"type": "uint256"
				}
			],
			"name": "ownerOf",
			"outputs": [
				{
					"internalType": "address",
					"name": "",
					"type": "address"
				}
			],
			"stateMutability": "view",
			"type": "function"
		},
		{
			"inputs": [
				{
					"internalType": "string",
					"name": "name",
					"type": "string"
				}
			],
			"name": "price",
			"outputs": [
				{
					"internalType": "uint256",
					"name": "",
					"type": "uint256"
				}
			],
			"stateMutability": "view",
			"type": "function"
		},
		{
			"inputs": [
				{
					"internalType": "string",
					"name": "",
					"type": "string"
				}
			],
			"name": "records",
			"outputs": [
				{
					"internalType": "string",
					"name": "avatar",
					"type": "string"
				},
				{
					"internalType": "string",
					"name": "twitterTag",
					"type": "string"
				},
				{
					"internalType": "string",
					"name": "website",
					"type": "string"
				},
				{
					"internalType": "string",
					"name": "email",
					"type": "string"
				},
				{
					"internalType": "string",
					"name": "description",
					"type": "string"
				}
			],
			"stateMutability": "view",
			"type": "function"
		},
		{
			"inputs": [
				{
					"internalType": "string",
					"name": "name",
					"type": "string"
				}
			],
			"name": "register",
			"outputs": [],
			"stateMutability": "payable",
			"type": "function"
		},
		{
			"inputs": [
				{
					"internalType": "string",
					"name": "name",
					"type": "string"
				},
				{
					"internalType": "address",
					"name": "_receiver",
					"type": "address"
				}
			],
			"name": "registerForAddress",
			"outputs": [],
			"stateMutability": "nonpayable",
			"type": "function"
		},
		{
			"inputs": [
				{
					"internalType": "address",
					"name": "from",
					"type": "address"
				},
				{
					"internalType": "address",
					"name": "to",
					"type": "address"
				},
				{
					"internalType": "uint256",
					"name": "tokenId",
					"type": "uint256"
				}
			],
			"name": "safeTransferFrom",
			"outputs": [],
			"stateMutability": "nonpayable",
			"type": "function"
		},
		{
			"inputs": [
				{
					"internalType": "address",
					"name": "from",
					"type": "address"
				},
				{
					"internalType": "address",
					"name": "to",
					"type": "address"
				},
				{
					"internalType": "uint256",
					"name": "tokenId",
					"type": "uint256"
				},
				{
					"internalType": "bytes",
					"name": "data",
					"type": "bytes"
				}
			],
			"name": "safeTransferFrom",
			"outputs": [],
			"stateMutability": "nonpayable",
			"type": "function"
		},
		{
			"inputs": [
				{
					"internalType": "address",
					"name": "operator",
					"type": "address"
				},
				{
					"internalType": "bool",
					"name": "approved",
					"type": "bool"
				}
			],
			"name": "setApprovalForAll",
			"outputs": [],
			"stateMutability": "nonpayable",
			"type": "function"
		},
		{
			"inputs": [
				{
					"internalType": "uint256",
					"name": "_tierOnePrice",
					"type": "uint256"
				},
				{
					"internalType": "uint256",
					"name": "_tierTwoPrice",
					"type": "uint256"
				},
				{
					"internalType": "uint256",
					"name": "_tierThreePrice",
					"type": "uint256"
				}
			],
			"name": "setPrice",
			"outputs": [],
			"stateMutability": "nonpayable",
			"type": "function"
		},
		{
			"inputs": [
				{
					"internalType": "string",
					"name": "name",
					"type": "string"
				},
				{
					"internalType": "string",
					"name": "record",
					"type": "string"
				},
				{
					"internalType": "enum RecordType",
					"name": "recordType",
					"type": "uint8"
				}
			],
			"name": "setRecord",
			"outputs": [],
			"stateMutability": "nonpayable",
			"type": "function"
		},
		{
			"inputs": [
				{
					"internalType": "string",
					"name": "name",
					"type": "string"
				},
				{
					"internalType": "string",
					"name": "_avatar",
					"type": "string"
				},
				{
					"internalType": "string",
					"name": "_twitterTag",
					"type": "string"
				},
				{
					"internalType": "string",
					"name": "_website",
					"type": "string"
				},
				{
					"internalType": "string",
					"name": "_email",
					"type": "string"
				},
				{
					"internalType": "string",
					"name": "_description",
					"type": "string"
				}
			],
			"name": "setRecords",
			"outputs": [],
			"stateMutability": "nonpayable",
			"type": "function"
		},
		{
			"inputs": [
				{
					"internalType": "bytes4",
					"name": "interfaceId",
					"type": "bytes4"
				}
			],
			"name": "supportsInterface",
			"outputs": [
				{
					"internalType": "bool",
					"name": "",
					"type": "bool"
				}
			],
			"stateMutability": "view",
			"type": "function"
		},
		{
			"inputs": [],
			"name": "symbol",
			"outputs": [
				{
					"internalType": "string",
					"name": "",
					"type": "string"
				}
			],
			"stateMutability": "view",
			"type": "function"
		},
		{
			"inputs": [],
			"name": "tierOnePrice",
			"outputs": [
				{
					"internalType": "uint256",
					"name": "",
					"type": "uint256"
				}
			],
			"stateMutability": "view",
			"type": "function"
		},
		{
			"inputs": [],
			"name": "tierThreePrice",
			"outputs": [
				{
					"internalType": "uint256",
					"name": "",
					"type": "uint256"
				}
			],
			"stateMutability": "view",
			"type": "function"
		},
		{
			"inputs": [],
			"name": "tierTwoPrice",
			"outputs": [
				{
					"internalType": "uint256",
					"name": "",
					"type": "uint256"
				}
			],
			"stateMutability": "view",
			"type": "function"
		},
		{
			"inputs": [],
			"name": "tld",
			"outputs": [
				{
					"internalType": "string",
					"name": "",
					"type": "string"
				}
			],
			"stateMutability": "view",
			"type": "function"
		},
		{
			"inputs": [
				{
					"internalType": "uint256",
					"name": "tokenId",
					"type": "uint256"
				}
			],
			"name": "tokenURI",
			"outputs": [
				{
					"internalType": "string",
					"name": "",
					"type": "string"
				}
			],
			"stateMutability": "view",
			"type": "function"
		},
		{
			"inputs": [
				{
					"internalType": "address",
					"name": "from",
					"type": "address"
				},
				{
					"internalType": "address",
					"name": "to",
					"type": "address"
				},
				{
					"internalType": "uint256",
					"name": "tokenId",
					"type": "uint256"
				}
			],
			"name": "transferFrom",
			"outputs": [],
			"stateMutability": "nonpayable",
			"type": "function"
		},
		{
			"inputs": [
				{
					"internalType": "string",
					"name": "name",
					"type": "string"
				}
			],
			"name": "valid",
			"outputs": [
				{
					"internalType": "bool",
					"name": "",
					"type": "bool"
				}
			],
			"stateMutability": "pure",
			"type": "function"
		},
		{
			"inputs": [
				{
					"internalType": "address",
					"name": "_owner",
					"type": "address"
				}
			],
			"name": "walletOfOwner",
			"outputs": [
				{
					"internalType": "uint256[]",
					"name": "",
					"type": "uint256[]"
				}
			],
			"stateMutability": "view",
			"type": "function"
		},
		{
			"inputs": [],
			"name": "withdraw",
			"outputs": [],
			"stateMutability": "nonpayable",
			"type": "function"
		}
	]
}