{
  "_format": "hh-sol-artifact-1",
  "contractName": "ERC20Gateway",
  "sourceName": "contracts/ERC20Gateway.sol",
  "abi": [
    {
      "inputs": [],
      "stateMutability": "nonpayable",
      "type": "constructor"
    },
    {
      "anonymous": false,
      "inputs": [
        {
          "indexed": true,
          "internalType": "uint256",
          "name": "merchantId",
          "type": "uint256"
        },
        {
          "indexed": true,
          "internalType": "address",
          "name": "merchantWallet",
          "type": "address"
        },
        {
          "indexed": true,
          "internalType": "bytes32",
          "name": "api",
          "type": "bytes32"
        },
        {
          "indexed": false,
          "internalType": "enum ERC20Gateway.TokenType",
          "name": "_tokenType",
          "type": "uint8"
        }
      ],
      "name": "APIRegistered",
      "type": "event"
    },
    {
      "anonymous": false,
      "inputs": [
        {
          "indexed": true,
          "internalType": "uint256",
          "name": "purchaseid",
          "type": "uint256"
        },
        {
          "indexed": true,
          "internalType": "address",
          "name": "sender",
          "type": "address"
        },
        {
          "indexed": true,
          "internalType": "address",
          "name": "beneficiary",
          "type": "address"
        },
        {
          "indexed": false,
          "internalType": "uint256",
          "name": "amount",
          "type": "uint256"
        },
        {
          "indexed": false,
          "internalType": "enum ERC20Gateway.TokenType",
          "name": "_tokenType",
          "type": "uint8"
        }
      ],
      "name": "ERC20Transferred",
      "type": "event"
    },
    {
      "inputs": [
        {
          "internalType": "bytes32",
          "name": "",
          "type": "bytes32"
        }
      ],
      "name": "apiRegistered",
      "outputs": [
        {
          "internalType": "bool",
          "name": "",
          "type": "bool"
        }
      ],
      "stateMutability": "view",
      "type": "function"
    },
    {
      "inputs": [
        {
          "internalType": "address",
          "name": "",
          "type": "address"
        }
      ],
      "name": "apikey",
      "outputs": [
        {
          "internalType": "bytes32",
          "name": "",
          "type": "bytes32"
        }
      ],
      "stateMutability": "view",
      "type": "function"
    },
    {
      "inputs": [
        {
          "internalType": "address",
          "name": "",
          "type": "address"
        },
        {
          "internalType": "address",
          "name": "",
          "type": "address"
        }
      ],
      "name": "balanceToPay",
      "outputs": [
        {
          "internalType": "uint256",
          "name": "",
          "type": "uint256"
        }
      ],
      "stateMutability": "view",
      "type": "function"
    },
    {
      "inputs": [
        {
          "internalType": "address",
          "name": "_erc20Wallet",
          "type": "address"
        }
      ],
      "name": "fetchAPIKey",
      "outputs": [
        {
          "internalType": "bytes32",
          "name": "",
          "type": "bytes32"
        }
      ],
      "stateMutability": "view",
      "type": "function"
    },
    {
      "inputs": [
        {
          "internalType": "address",
          "name": "_tokenAddress",
          "type": "address"
        }
      ],
      "name": "getTokenBalance",
      "outputs": [
        {
          "internalType": "uint256",
          "name": "_balance",
          "type": "uint256"
        }
      ],
      "stateMutability": "view",
      "type": "function"
    },
    {
      "inputs": [
        {
          "internalType": "uint256",
          "name": "",
          "type": "uint256"
        }
      ],
      "name": "idToMerchants",
      "outputs": [
        {
          "internalType": "uint256",
          "name": "merchantId",
          "type": "uint256"
        },
        {
          "internalType": "address",
          "name": "merchantAddress",
          "type": "address"
        },
        {
          "internalType": "bytes32",
          "name": "apikey",
          "type": "bytes32"
        },
        {
          "internalType": "enum ERC20Gateway.TokenType",
          "name": "tokentype",
          "type": "uint8"
        }
      ],
      "stateMutability": "view",
      "type": "function"
    },
    {
      "inputs": [
        {
          "internalType": "uint256",
          "name": "",
          "type": "uint256"
        }
      ],
      "name": "idToPayments",
      "outputs": [
        {
          "internalType": "uint256",
          "name": "id",
          "type": "uint256"
        },
        {
          "internalType": "uint256",
          "name": "amount",
          "type": "uint256"
        },
        {
          "internalType": "uint256",
          "name": "depositedOn",
          "type": "uint256"
        },
        {
          "internalType": "address",
          "name": "buyer",
          "type": "address"
        },
        {
          "internalType": "address",
          "name": "seller",
          "type": "address"
        },
        {
          "internalType": "enum ERC20Gateway.TokenType",
          "name": "tokentype",
          "type": "uint8"
        }
      ],
      "stateMutability": "view",
      "type": "function"
    },
    {
      "inputs": [
        {
          "internalType": "uint256",
          "name": "_amount",
          "type": "uint256"
        },
        {
          "internalType": "address",
          "name": "_tokenAddress",
          "type": "address"
        },
        {
          "internalType": "enum ERC20Gateway.TokenType",
          "name": "_token",
          "type": "uint8"
        },
        {
          "internalType": "bytes32",
          "name": "_api",
          "type": "bytes32"
        }
      ],
      "name": "makePayment",
      "outputs": [
        {
          "internalType": "bool",
          "name": "",
          "type": "bool"
        }
      ],
      "stateMutability": "nonpayable",
      "type": "function"
    },
    {
      "inputs": [
        {
          "internalType": "bytes32",
          "name": "",
          "type": "bytes32"
        }
      ],
      "name": "merchantAddress",
      "outputs": [
        {
          "internalType": "address",
          "name": "",
          "type": "address"
        }
      ],
      "stateMutability": "view",
      "type": "function"
    },
    {
      "inputs": [
        {
          "internalType": "address",
          "name": "_erc20Wallet",
          "type": "address"
        },
        {
          "internalType": "string",
          "name": "_code",
          "type": "string"
        },
        {
          "internalType": "enum ERC20Gateway.TokenType",
          "name": "_tokenType",
          "type": "uint8"
        }
      ],
      "name": "registerMerchant",
      "outputs": [
        {
          "internalType": "bytes32",
          "name": "",
          "type": "bytes32"
        }
      ],
      "stateMutability": "nonpayable",
      "type": "function"
    },
    {
      "inputs": [
        {
          "internalType": "address",
          "name": "",
          "type": "address"
        }
      ],
      "name": "registered",
      "outputs": [
        {
          "internalType": "bool",
          "name": "",
          "type": "bool"
        }
      ],
      "stateMutability": "view",
      "type": "function"
    },
    {
      "inputs": [
        {
          "internalType": "bytes32",
          "name": "_api",
          "type": "bytes32"
        },
        {
          "internalType": "address",
          "name": "_currencyToWithdraw",
          "type": "address"
        }
      ],
      "name": "withdrawBalance",
      "outputs": [
        {
          "internalType": "bool",
          "name": "",
          "type": "bool"
        }
      ],
      "stateMutability": "nonpayable",
      "type": "function"
    }
  ],
  "bytecode": "0x608060405234801561001057600080fd5b506001600081905560038054336001600160a01b031990911617905561004090610059602090811b610cc017901c565b610054600261005960201b610cc01760201c565b610062565b80546001019055565b611322806100716000396000f3fe608060405234801561001057600080fd5b50600436106100b45760003560e01c8063ae2dc8fc11610071578063ae2dc8fc146101a3578063b2dd5c07146101ce578063b97a9871146101f1578063ba12d4bd14610214578063ed8568f614610234578063f842f81514610286576100b4565b8063037bdd2b146100b95780633aecd0e3146100df5780635470f859146100f257806368daf537146101155780637557eddd146101285780637950f2541461013b575b600080fd5b6100cc6100c7366004610ff2565b6102c7565b6040519081526020015b60405180910390f35b6100cc6100ed366004610fa6565b6104e1565b610105610100366004611130565b610563565b60405190151581526020016100d6565b6101056101233660046110f6565b610923565b6100cc610136366004610fa6565b610c42565b6101916101493660046110de565b600a60205260009081526040902080546001820154600283015460038401546004909401549293919290916001600160a01b039081169190811690600160a01b900460ff1686565b6040516100d69695949392919061124d565b6100cc6101b1366004610fc0565b600760209081526000928352604080842090915290825290205481565b6101056101dc366004610fa6565b60096020526000908152604090205460ff1681565b6101056101ff3660046110de565b60066020526000908152604090205460ff1681565b6100cc610222366004610fa6565b60056020526000908152604090205481565b6102766102423660046110de565b600460205260009081526040902080546001820154600283015460039093015491926001600160a01b039091169160ff1684565b6040516100d69493929190611206565b6102af6102943660046110de565b6008602052600090815260409020546001600160a01b031681565b6040516001600160a01b0390911681526020016100d6565b6001600160a01b03831660009081526009602052604081205460ff161561032a5760405162461bcd60e51b8152602060048201526012602482015271105b1c9958591e48149959da5cdd195c995960721b60448201526064015b60405180910390fd5b6000848460405160200161033f929190611195565b60408051808303601f1901815291815281516020928301206001600160a01b038816600081815260058552838120839055828152600685528381208054600160ff19918216811790925583835260098752858320805490911682179055838252600890955292832080546001600160a01b03191690911790559250906103c3905490565b90506040518060800160405280828152602001876001600160a01b0316815260200183815260200185600381111561040b57634e487b7160e01b600052602160045260246000fd5b90526000828152600460209081526040918290208351815590830151600180830180546001600160a01b0319166001600160a01b039093169290921790915591830151600282015560608301516003808301805493949293909260ff1990911691849081111561048b57634e487b7160e01b600052602160045260246000fd5b021790555090505081866001600160a01b0316827f8e8088f17f224431191bf9b6bf14ca2395690b73a71c56d9136746ec4e648360876040516104ce91906111f8565b60405180910390a45090505b9392505050565b6040516370a0823160e01b81523060048201526000906001600160a01b038316906370a082319060240160206040518083038186803b15801561052357600080fd5b505afa158015610537573d6000803e3d6000fd5b505050506040513d601f19601f8201168201806040525081019061055b9190611118565b90505b919050565b6000600260005414156105b85760405162461bcd60e51b815260206004820152601f60248201527f5265656e7472616e637947756172643a207265656e7472616e742063616c6c006044820152606401610321565b6002600055846105ff5760405162461bcd60e51b81526020600482015260126024820152710416d6f756e742063616e6e6f7420626520360741b6044820152606401610321565b60008281526006602052604090205460ff16151560011461067c5760405162461bcd60e51b815260206004820152603160248201527f4150494b6579204e6f7420726567697374657265642c20706c656173652063686044820152701958dac81dda5d1a0813595c98da185b9d607a1b6064820152608401610321565b600083600381111561069e57634e487b7160e01b600052602160045260246000fd5b15806106c957508360038111156106c557634e487b7160e01b600052602160045260246000fd5b6001145b806106f357508360038111156106ef57634e487b7160e01b600052602160045260246000fd5b6002145b8061071d575083600381111561071957634e487b7160e01b600052602160045260246000fd5b6003145b156108c657506001600061073060025490565b905061073d338789610cc9565b610748338789610dac565b6040805160c08101825282815260208082018a905242828401523360608301526000878152600890915291909120546001600160a01b0316608082015260a081018660038111156107a957634e487b7160e01b600052602160045260246000fd5b90526000828152600a6020908152604091829020835181559083015160018201559082015160028201556060820151600380830180546001600160a01b039384166001600160a01b03199182161790915560808501516004850180549190941691161780835560a0850151929160ff60a01b1990911690600160a01b90849081111561084557634e487b7160e01b600052602160045260246000fd5b0217905550505060008481526008602052604090205461087190889088906001600160a01b0316610e8a565b6003546040516001600160a01b0390911690339083907f561a39e9dfc765bbe0fe64e7d4400ac8e58cddca9b8d5c95a681c5f17aefc092906108b6908c908b90611239565b60405180910390a4509050610916565b806109135760405162461bcd60e51b815260206004820152601b60248201527f546f6b656e2054797065206973206e6f7420737570706f7274656400000000006044820152606401610321565b90505b6001600055949350505050565b6000828152600860205260408120546001600160a01b031633146109955760405162461bcd60e51b8152602060048201526024808201527f4f6e6c79206d65726368616e742063616e2063616c6c20746869732066756e636044820152633a34b7b760e11b6064820152608401610321565b3360009081526007602090815260408083206001600160a01b03861684529091529020546109fd5760405162461bcd60e51b81526020600482015260156024820152744e6f20416d6f756e7420746f20776974686472617760581b6044820152606401610321565b6040516370a0823160e01b81523060048201526000906001600160a01b038416906370a082319060240160206040518083038186803b158015610a3f57600080fd5b505afa158015610a53573d6000803e3d6000fd5b505050506040513d601f19601f82011682018060405250810190610a779190611118565b905060008111610ad55760405162461bcd60e51b8152602060048201526024808201527f436f6e74726163742042616c616e636520666f72207468697320746f6b656e206044820152630697320360e41b6064820152608401610321565b3360009081526007602090815260408083206001600160a01b038716845290915290205480610b525760405162461bcd60e51b8152602060048201526024808201527f4d65726368616e742042616c616e636520666f72207468697320746f6b656e206044820152630697320360e41b6064820152608401610321565b6000610b5e8383610f68565b60405163a9059cbb60e01b8152336004820152602481018290529091506001600160a01b0386169063a9059cbb90604401602060405180830381600087803b158015610ba957600080fd5b505af1158015610bbd573d6000803e3d6000fd5b505050506040513d601f19601f82011682018060405250810190610be191906110be565b503360009081526007602090815260408083206001600160a01b0389168452909152902054610c109082610f68565b3360009081526007602090815260408083206001600160a01b038a168452909152902055506001925050505b92915050565b6001600160a01b03811660009081526009602052604081205460ff161515600114610ca45760405162461bcd60e51b8152602060048201526012602482015271139bdd08149959da5cdd195c99590816595d60721b6044820152606401610321565b506001600160a01b031660009081526005602052604090205490565b80546001019055565b6040516370a0823160e01b81526001600160a01b0384811660048301528291908416906370a082319060240160206040518083038186803b158015610d0d57600080fd5b505afa158015610d21573d6000803e3d6000fd5b505050506040513d601f19601f82011682018060405250810190610d459190611118565b1015610da75760405162461bcd60e51b815260206004820152602b60248201527f45524332305061796d656e743a20696e73756666696369656e7420637572726560448201526a6e63792062616c616e636560a81b6064820152608401610321565b505050565b604051636eb1769f60e11b81526001600160a01b03848116600483015230602483015282919084169063dd62ed3e9060440160206040518083038186803b158015610df657600080fd5b505afa158015610e0a573d6000803e3d6000fd5b505050506040513d601f19601f82011682018060405250810190610e2e9190611118565b1015610da75760405162461bcd60e51b815260206004820152602560248201527f45524332305061796d656e743a20696e73756666696369656e7420616c6c6f7760448201526430b731b29760d91b6064820152608401610321565b6001600160a01b03808216600090815260076020908152604080832093861683529290522054610eba9084610f74565b6001600160a01b03828116600090815260076020908152604080832093871680845293909152908190209290925590516323b872dd60e01b8152336004820152306024820152604481018590526323b872dd90606401602060405180830381600087803b158015610f2a57600080fd5b505af1158015610f3e573d6000803e3d6000fd5b505050506040513d601f19601f82011682018060405250810190610f6291906110be565b50505050565b60006104da82846112a9565b60006104da8284611291565b80356001600160a01b038116811461055e57600080fd5b80356004811061055e57600080fd5b600060208284031215610fb7578081fd5b6104da82610f80565b60008060408385031215610fd2578081fd5b610fdb83610f80565b9150610fe960208401610f80565b90509250929050565b600080600060608486031215611006578081fd5b61100f84610f80565b9250602084013567ffffffffffffffff8082111561102b578283fd5b818601915086601f83011261103e578283fd5b813581811115611050576110506112d6565b604051601f8201601f19908116603f01168101908382118183101715611078576110786112d6565b81604052828152896020848701011115611090578586fd5b826020860160208301379182016020018590525093506110b591505060408501610f97565b90509250925092565b6000602082840312156110cf578081fd5b815180151581146104da578182fd5b6000602082840312156110ef578081fd5b5035919050565b60008060408385031215611108578182fd5b82359150610fe960208401610f80565b600060208284031215611129578081fd5b5051919050565b60008060008060808587031215611145578081fd5b8435935061115560208601610f80565b925061116360408601610f97565b9396929550929360600135925050565b6004811061119157634e487b7160e01b600052602160045260246000fd5b9052565b600060018060a01b038416825260206040818401528351806040850152825b818110156111d0578581018301518582016060015282016111b4565b818111156111e15783606083870101525b50601f01601f191692909201606001949350505050565b60208101610c3c8284611173565b8481526001600160a01b038416602082015260408101839052608081016112306060830184611173565b95945050505050565b828152604081016104da6020830184611173565b86815260208101869052604081018590526001600160a01b0384811660608301528316608082015260c0810161128660a0830184611173565b979650505050505050565b600082198211156112a4576112a46112c0565b500190565b6000828210156112bb576112bb6112c0565b500390565b634e487b7160e01b600052601160045260246000fd5b634e487b7160e01b600052604160045260246000fdfea264697066735822122082c2e8437af3998396e5d2659caea9985dab7e3ef86270652fb40fb9ea43a58964736f6c63430008020033",
  "linkReferences": {},
  "deployedLinkReferences": {}
}