{
  "_format": "hh-sol-artifact-1",
  "contractName": "XRC20Gateway",
  "sourceName": "contracts/XRC20Gateway.sol",
  "abi": [
    {
      "inputs": [
        {
          "internalType": "address",
          "name": "_pli",
          "type": "address"
        }
      ],
      "stateMutability": "nonpayable",
      "type": "constructor"
    },
    {
      "anonymous": false,
      "inputs": [
        {
          "indexed": true,
          "internalType": "bytes32",
          "name": "id",
          "type": "bytes32"
        }
      ],
      "name": "PluginCancelled",
      "type": "event"
    },
    {
      "anonymous": false,
      "inputs": [
        {
          "indexed": true,
          "internalType": "bytes32",
          "name": "id",
          "type": "bytes32"
        }
      ],
      "name": "PluginFulfilled",
      "type": "event"
    },
    {
      "anonymous": false,
      "inputs": [
        {
          "indexed": true,
          "internalType": "bytes32",
          "name": "id",
          "type": "bytes32"
        }
      ],
      "name": "PluginRequested",
      "type": "event"
    },
    {
      "anonymous": false,
      "inputs": [
        {
          "indexed": true,
          "internalType": "bytes32",
          "name": "requestId",
          "type": "bytes32"
        },
        {
          "indexed": true,
          "internalType": "uint256",
          "name": "price",
          "type": "uint256"
        }
      ],
      "name": "RequestPriceFulfilled",
      "type": "event"
    },
    {
      "anonymous": false,
      "inputs": [
        {
          "indexed": true,
          "internalType": "address",
          "name": "requester",
          "type": "address"
        },
        {
          "indexed": true,
          "internalType": "bytes32",
          "name": "jobId",
          "type": "bytes32"
        },
        {
          "indexed": true,
          "internalType": "bytes32",
          "name": "requestId",
          "type": "bytes32"
        }
      ],
      "name": "requestCreated",
      "type": "event"
    },
    {
      "inputs": [
        {
          "internalType": "string",
          "name": "_symbol",
          "type": "string"
        },
        {
          "internalType": "address",
          "name": "_tokenaddress",
          "type": "address"
        }
      ],
      "name": "addSupportedToken",
      "outputs": [],
      "stateMutability": "nonpayable",
      "type": "function"
    },
    {
      "inputs": [
        {
          "internalType": "bytes32",
          "name": "_requestId",
          "type": "bytes32"
        },
        {
          "internalType": "uint256",
          "name": "_payment",
          "type": "uint256"
        },
        {
          "internalType": "bytes4",
          "name": "_callbackFunctionId",
          "type": "bytes4"
        },
        {
          "internalType": "uint256",
          "name": "_expiration",
          "type": "uint256"
        }
      ],
      "name": "cancelRequest",
      "outputs": [],
      "stateMutability": "nonpayable",
      "type": "function"
    },
    {
      "inputs": [],
      "name": "contractowner",
      "outputs": [
        {
          "internalType": "address",
          "name": "",
          "type": "address"
        }
      ],
      "stateMutability": "view",
      "type": "function"
    },
    {
      "inputs": [],
      "name": "currentPrice",
      "outputs": [
        {
          "internalType": "uint256",
          "name": "",
          "type": "uint256"
        }
      ],
      "stateMutability": "view",
      "type": "function"
    },
    {
      "inputs": [
        {
          "internalType": "uint256",
          "name": "_amount",
          "type": "uint256"
        },
        {
          "internalType": "address",
          "name": "_tokenAddress",
          "type": "address"
        },
        {
          "internalType": "string",
          "name": "_symbol",
          "type": "string"
        }
      ],
      "name": "depositFunds",
      "outputs": [],
      "stateMutability": "nonpayable",
      "type": "function"
    },
    {
      "inputs": [
        {
          "internalType": "bytes32",
          "name": "_requestId",
          "type": "bytes32"
        },
        {
          "internalType": "uint256",
          "name": "_price",
          "type": "uint256"
        }
      ],
      "name": "fulfillPrice",
      "outputs": [],
      "stateMutability": "nonpayable",
      "type": "function"
    },
    {
      "inputs": [],
      "name": "getPluginToken",
      "outputs": [
        {
          "internalType": "address",
          "name": "",
          "type": "address"
        }
      ],
      "stateMutability": "view",
      "type": "function"
    },
    {
      "inputs": [
        {
          "internalType": "address",
          "name": "_oracle",
          "type": "address"
        },
        {
          "internalType": "string",
          "name": "_jobId",
          "type": "string"
        },
        {
          "internalType": "string",
          "name": "_fsymbol",
          "type": "string"
        },
        {
          "internalType": "string",
          "name": "_tsymbol",
          "type": "string"
        },
        {
          "internalType": "uint256",
          "name": "_amountPaid",
          "type": "uint256"
        },
        {
          "internalType": "address",
          "name": "_buyer",
          "type": "address"
        },
        {
          "internalType": "address",
          "name": "_tokenaddress",
          "type": "address"
        }
      ],
      "name": "requestPrice",
      "outputs": [
        {
          "internalType": "bytes32",
          "name": "requestId",
          "type": "bytes32"
        }
      ],
      "stateMutability": "nonpayable",
      "type": "function"
    },
    {
      "inputs": [],
      "name": "withdrawPli",
      "outputs": [],
      "stateMutability": "nonpayable",
      "type": "function"
    }
  ],
  "bytecode": "0x608060405260016004553480156200001657600080fd5b5060405162001d1e38038062001d1e8339810160408190526200003991620000a7565b600280546001600160a01b0319166001600160a01b03831617905560098054336001600160a01b03199091161790556200008060066200009e602090811b620009c617901c565b6200009760076200009e60201b620009c61760201c565b50620000d7565b80546001019055565b600060208284031215620000b9578081fd5b81516001600160a01b0381168114620000d0578182fd5b9392505050565b611c3780620000e76000396000f3fe608060405234801561001057600080fd5b50600436106100935760003560e01c80639d1b464a116100665780639d1b464a146100f8578063a4b6f67e1461010f578063b7ef17e014610117578063ec65d0f81461012a578063ed88ed6c1461013d57610093565b806337fccd30146100985780636098c94c146100a25780638544e0d7146100d25780638d2a648d146100e5575b600080fd5b6100a0610150565b005b6009546100b5906001600160a01b031681565b6040516001600160a01b0390911681526020015b60405180910390f35b6100a06100e0366004611839565b6102af565b6100a06100f336600461176a565b610414565b61010160085481565b6040519081526020016100c9565b6100b5610595565b61010161012536600461168a565b6105ae565b6100a061013836600461178b565b610833565b6100a061014b3660046117d5565b610845565b60006101646002546001600160a01b031690565b6040516370a0823160e01b81523060048201529091506001600160a01b0382169063a9059cbb90339083906370a082319060240160206040518083038186803b1580156101b057600080fd5b505afa1580156101c4573d6000803e3d6000fd5b505050506040513d601f19601f820116820180604052508101906101e89190611821565b6040516001600160e01b031960e085901b1681526001600160a01b0390921660048301526024820152604401602060405180830381600087803b15801561022e57600080fd5b505af1158015610242573d6000803e3d6000fd5b505050506040513d601f19601f82011682018060405250810190610266919061174a565b6102ac5760405162461bcd60e51b81526020600482015260126024820152712ab730b13632903a37903a3930b739b332b960711b60448201526064015b60405180910390fd5b50565b6009546001600160a01b031633146102d95760405162461bcd60e51b81526004016102a39061196e565b600083116103295760405162461bcd60e51b815260206004820152601960248201527f4465706f7369742066756e64732063616e6e6f7420626520300000000000000060448201526064016102a3565b600d8160405161033991906118ba565b908152604080519182900360209081019092206001600160a01b0385166000908152925290205460ff1615156001146103ef5760405162461bcd60e51b815260206004820152604c60248201527f53796d626f6c20616e642f6f722041646472657373206e6f7420737570706f7260448201527f7465642c20706c6561736520696e69746961746520616464537570706f72746560648201526b19151bdad95b88199a5c9cdd60a21b608482015260a4016102a3565b6103fa3383856109cf565b610405338385610aad565b61040f8383610b8b565b505050565b60008281526005602052604090205482906001600160a01b0316331461048d5760405162461bcd60e51b815260206004820152602860248201527f536f75726365206d75737420626520746865206f7261636c65206f6620746865604482015267081c995c5d595cdd60c21b60648201526084016102a3565b60008181526005602052604080822080546001600160a01b03191690555182917fa40ad10b942505047c532a7399bf5eac2768b11b7155b40ec80309aea567f99891a26000838152600c6020908152604091829020825160e081018452815481526001820154928101929092526002810154928201929092526003820154606082015260048201546001600160a01b039081166080830181905260059093015490811660a08301819052600160a01b90910460ff16151560c083015290916105559185610c11565b600160c0820152604080820184905251839085907fc2d94e2e1f0c977bdf720bde3bd6b0ff77c8853d45d1f47089f6065139e3fef790600090a350505050565b60006105a96002546001600160a01b031690565b905090565b6000806105bb6007610c93565b6040805160e0810182528281526020808201898152600083850181815242606086019081526001600160a01b03808d16608088019081528c821660a0890190815260c089018681528b8752600b90985298852097518855945160018801559151600287015551600386015591516004850180549184166001600160a01b031992831617905594516005909401805493511515600160a01b0260ff60a01b19959093169390951692909217929092169190911790915590915061068d61067f8a610c9b565b30638d2a648d60e01b610cb9565b604080518082019091526007815266199cde5b589bdb60ca1b60208201529091506106ba9082908a610ce0565b6040805180820190915260078152661d1cde5b589bdb60ca1b60208201526106e490829089610ce0565b604080518082019091526009815268185b5bdd5b94185a5960ba1b602082015261071090829088610cfe565b60408051808201909152600581526474696d657360d81b6020820152610740908290670de0b6b3a7640000610d1c565b6107538a8267016345785d8a0000610d3a565b6000838152600b60209081526040808320848452600c9092529091208154815560018083015490820155600280830154908201556003808301549082015560048083015490820180546001600160a01b03199081166001600160a01b0393841617909155600593840180549490930180549091169390911692909217808355905460ff600160a01b918290041615150260ff60a01b199091161790559250826107fb8a610c9b565b60405133907f7f3df4038a13e7b83557e5a0ebf67fec07391a522319ab42e81255e88de18ffb90600090a45050979650505050505050565b61083f84848484610d59565b50505050565b6009546001600160a01b0316331461086f5760405162461bcd60e51b81526004016102a39061196e565b600d8260405161087f91906118ba565b90815260408051602092819003830190206001600160a01b0384166000908152925290205460ff16156108f45760405162461bcd60e51b815260206004820152601e60248201527f53796d626f6c2026204164647265737320616c7265616479206164646564000060448201526064016102a3565b60006109006006610c93565b6040805160608101825282815260208082018781526001600160a01b038716838501526000858152600a8352939093208251815592518051949550919361094d9260018501920190611518565b5060409182015160029190910180546001600160a01b0319166001600160a01b0390921691909117905551600190600d906109899086906118ba565b90815260408051602092819003830190206001600160a01b0395909516600090815294909152909220805460ff1916921515929092179091555050565b80546001019055565b6040516370a0823160e01b81526001600160a01b0384811660048301528291908416906370a082319060240160206040518083038186803b158015610a1357600080fd5b505afa158015610a27573d6000803e3d6000fd5b505050506040513d601f19601f82011682018060405250810190610a4b9190611821565b101561040f5760405162461bcd60e51b815260206004820152602b60248201527f5852433230476174657761793a20696e73756666696369656e7420637572726560448201526a6e63792062616c616e636560a81b60648201526084016102a3565b604051636eb1769f60e11b81526001600160a01b03848116600483015230602483015282919084169063dd62ed3e9060440160206040518083038186803b158015610af757600080fd5b505afa158015610b0b573d6000803e3d6000fd5b505050506040513d601f19601f82011682018060405250810190610b2f9190611821565b101561040f5760405162461bcd60e51b815260206004820152602560248201527f5852433230476174657761793a20696e73756666696369656e7420616c6c6f7760448201526430b731b29760d91b60648201526084016102a3565b6040516323b872dd60e01b8152336004820152306024820152604481018390526001600160a01b038216906323b872dd90606401602060405180830381600087803b158015610bd957600080fd5b505af1158015610bed573d6000803e3d6000fd5b505050506040513d601f19601f8201168201806040525081019061040f919061174a565b60405163a9059cbb60e01b81526001600160a01b0384811660048301526024820183905283169063a9059cbb90604401602060405180830381600087803b158015610c5b57600080fd5b505af1158015610c6f573d6000803e3d6000fd5b505050506040513d601f19601f8201168201806040525081019061083f919061174a565b80545b919050565b80516000908290610cb0575060009050610c96565b50506020015190565b610cc161159c565b610cc961159c565b610cd581868686610e2b565b9150505b9392505050565b6080830151610cef9083610e68565b608083015161040f9082610e68565b6080830151610d0d9083610e68565b608083015161040f9082610e7f565b6080830151610d2b9083610e68565b608083015161040f9082610e8f565b6000610d5184848460016320214ca360e11b610ef4565b949350505050565b60008481526005602052604080822080546001600160a01b0319811690915590516001600160a01b039091169186917f715822738dad692e521ebc0193d189bf23153eb1d4420173d6b30cd8add9f9a69190a2604051636ee4d55360e01b815260048101869052602481018590526001600160e01b031984166044820152606481018390526001600160a01b03821690636ee4d55390608401600060405180830381600087803b158015610e0c57600080fd5b505af1158015610e20573d6000803e3d6000fd5b505050505050505050565b610e3361159c565b610e438560800151610100611100565b50509183526001600160a01b031660208301526001600160e01b031916604082015290565b610e75826003835161116b565b61040f828261123f565b610e8b8260008361116b565b5050565b67ffffffffffffffff19811215610eaf57610eaa8282611266565b610e8b565b67ffffffffffffffff811315610ec957610eaa82826112a8565b60008112610edd57610eaa8260008361116b565b610e8b826001610eef84600019611afe565b61116b565b6004546040516bffffffffffffffffffffffff193060601b166020820152603481019190915260009060540160408051808303601f19018152918152815160209283012060045460608901526000818152600590935281832080546001600160a01b0319166001600160a01b038b16179055905190925082917fa6745906207afb96a5801b8e5711fd7b74c5780ce893a973806e179d675bbe2491a2600082600080886000015189602001518a604001518b606001518a8d6080015160000151604051602401610fcb9897969594939291906118d6565b60408051601f198184030181529181526020820180516001600160e01b03166001600160e01b0319909416939093179092526002549151630200057560e51b81529092506001600160a01b0390911690634000aea090611033908a908990869060040161193e565b602060405180830381600087803b15801561104d57600080fd5b505af1158015611061573d6000803e3d6000fd5b505050506040513d601f19601f82011682018060405250810190611085919061174a565b6110dd5760405162461bcd60e51b815260206004820152602360248201527f756e61626c6520746f207472616e73666572416e6443616c6c20746f206f7261604482015262636c6560e81b60648201526084016102a3565b6001600460008282546110f091906119b3565b9091555091979650505050505050565b604080518082019091526060815260006020820152611120602083611bb5565b1561114857611130602083611bb5565b61113b906020611b3d565b61114590836119b3565b91505b506020808301829052604080518085526000815283019091019052815b92915050565b6017811161118c576111868360e0600585901b1683176112cb565b5061040f565b60ff81116111b6576111a9836018611fe0600586901b16176112cb565b50611186838260016112f0565b61ffff81116111e1576111d4836019611fe0600586901b16176112cb565b50611186838260026112f0565b63ffffffff811161120e5761120183601a611fe0600586901b16176112cb565b50611186838260046112f0565b67ffffffffffffffff811161040f5761123283601b611fe0600586901b16176112cb565b5061083f838260086112f0565b604080518082019091526060815260006020820152610cd983846000015151848551611316565b6112718260c36112cb565b50610e8b8261128283600019611afe565b60405160200161129491815260200190565b604051602081830303815290604052611400565b6112b38260c26112cb565b50610e8b828260405160200161129491815260200190565b604080518082019091526060815260006020820152610cd9838460000151518461140d565b604080518082019091526060815260006020820152610d51848560000151518585611469565b604080518082019091526060815260006020820152825182111561133957600080fd5b602085015161134883866119b3565b111561137b5761137b8561136b8760200151878661136691906119b3565b6114ea565b611376906002611adf565b611501565b60008086518051876020830101935080888701111561139a5787860182525b505050602084015b602084106113da57805182526113b96020836119b3565b91506113c66020826119b3565b90506113d3602085611b3d565b93506113a2565b51815160001960208690036101000a019081169019919091161790525083949350505050565b610e75826002835161116b565b604080518082019091526060815260006020820152836020015183106114425761144284856020015160026113769190611adf565b83518051602085830101848153508085141561145f576001810182525b5093949350505050565b604080518082019091526060815260006020820152602085015161148d85846119b3565b11156114a1576114a18561136b86856119b3565b600060016114b184610100611a11565b6114bb9190611b3d565b90508551838682010185831982511617815250805184870111156114df5783860181525b509495945050505050565b6000818311156114fb575081611165565b50919050565b815161150d8383611100565b5061083f838261123f565b82805461152490611b80565b90600052602060002090601f016020900481019282611546576000855561158c565b82601f1061155f57805160ff191683800117855561158c565b8280016001018555821561158c579182015b8281111561158c578251825591602001919060010190611571565b506115989291506115d7565b5090565b6040805160a0810182526000808252602080830182905282840182905260608084018390528451808601909552845283015290608082015290565b5b8082111561159857600081556001016115d8565b80356001600160a01b0381168114610c9657600080fd5b600082601f830112611613578081fd5b813567ffffffffffffffff8082111561162e5761162e611beb565b604051601f8301601f19908116603f0116810190828211818310171561165657611656611beb565b8160405283815286602085880101111561166e578485fd5b8360208701602083013792830160200193909352509392505050565b600080600080600080600060e0888a0312156116a4578283fd5b6116ad886115ec565b9650602088013567ffffffffffffffff808211156116c9578485fd5b6116d58b838c01611603565b975060408a01359150808211156116ea578485fd5b6116f68b838c01611603565b965060608a013591508082111561170b578485fd5b506117188a828b01611603565b9450506080880135925061172e60a089016115ec565b915061173c60c089016115ec565b905092959891949750929550565b60006020828403121561175b578081fd5b81518015158114610cd9578182fd5b6000806040838503121561177c578182fd5b50508035926020909101359150565b600080600080608085870312156117a0578384fd5b843593506020850135925060408501356001600160e01b0319811681146117c5578283fd5b9396929550929360600135925050565b600080604083850312156117e7578182fd5b823567ffffffffffffffff8111156117fd578283fd5b61180985828601611603565b925050611818602084016115ec565b90509250929050565b600060208284031215611832578081fd5b5051919050565b60008060006060848603121561184d578283fd5b8335925061185d602085016115ec565b9150604084013567ffffffffffffffff811115611878578182fd5b61188486828701611603565b9150509250925092565b600081518084526118a6816020860160208601611b54565b601f01601f19169290920160200192915050565b600082516118cc818460208701611b54565b9190910192915050565b6001600160a01b0389811682526020820189905260408201889052861660608201526001600160e01b03198516608082015260a0810184905260c0810183905261010060e0820181905260009061192f8382018561188e565b9b9a5050505050505050505050565b600060018060a01b038516825283602083015260606040830152611965606083018461188e565b95945050505050565b60208082526025908201527f4f6e6c7920436f6e7472616374204f776e65722043616e206465706f7369742060408201526446756e647360d81b606082015260800190565b600082198211156119c6576119c6611bd5565b500190565b80825b60018086116119dd5750611a08565b8187048211156119ef576119ef611bd5565b808616156119fc57918102915b9490941c9380026119ce565b94509492505050565b6000610cd96000198484600082611a2a57506001610cd9565b81611a3757506000610cd9565b8160018114611a4d5760028114611a5757611a84565b6001915050610cd9565b60ff841115611a6857611a68611bd5565b6001841b915084821115611a7e57611a7e611bd5565b50610cd9565b5060208310610133831016604e8410600b8410161715611ab7575081810a83811115611ab257611ab2611bd5565b610cd9565b611ac484848460016119cb565b808604821115611ad657611ad6611bd5565b02949350505050565b6000816000190483118215151615611af957611af9611bd5565b500290565b60008083128015600160ff1b850184121615611b1c57611b1c611bd5565b6001600160ff1b0384018313811615611b3757611b37611bd5565b50500390565b600082821015611b4f57611b4f611bd5565b500390565b60005b83811015611b6f578181015183820152602001611b57565b8381111561083f5750506000910152565b600281046001821680611b9457607f821691505b602082108114156114fb57634e487b7160e01b600052602260045260246000fd5b600082611bd057634e487b7160e01b81526012600452602481fd5b500690565b634e487b7160e01b600052601160045260246000fd5b634e487b7160e01b600052604160045260246000fdfea2646970667358221220b35afdadd18b1f838b9fef76ab9f6297fafcf6d983e563490e9c024b8eb5a70e64736f6c63430008020033",
  "linkReferences": {},
  "deployedLinkReferences": {}
}